S01D0000436F6D756E69636163696F6E53696D7543696E74612E73726563A2
S11300000C943D000C945A000C945A000C945A0021
S11300100C945A000C945A000C945A000C945A00F4
S11300200C945A000C945A000C945A000C947E0FB1
S11300300C945A000C945A000C94B80C0C945A006A
S11300400C945A000C945A000C942A0E0C94530EDF
S11300500C945A000C945A000C945A000C945A00B4
S11300600C945A000C945A009C0EA50EB30EC10EAB
S1130070CF0EDA0EE80E020F1B0F11241FBECFEFB6
S1130080D8E0DEBFCDBF12E0A0E0B1E0E6ECF6E2DE
S113009002C005900D92A43CB107D9F725E0A4EC69
S11300A0B2E001C01D92A73DB207E1F70E94DD0C4A
S11300B00C9461130C940000FC018081811112C026
S11300C0A181B28111962C91119781E090E0038077
S11300D002C0880F991F0A94E2F780958223119633
S11300E08C9308958130C9F437B181E090E0AC017C
S11300F0048002C0440F551F0A94E2F7242F209570
S1130100232327B9AEE7B0E02C91048002C0880F06
S1130110991F0A94E2F7822B8C930895FC01808145
S113012081110FC0A181B2812C9130E0C9010380FB
S113013002C0959587950A94E2F780FF04C081E098
S1130140089580E0089580E00895CF92DF92EF92C1
S1130150FF92CF93DF93EC018E85833009F443C083
S113016028F4813051F0823081F17EC0843009F46A
S113017052C0853009F45EC077C0EC85FD850995D1
S1130180CF84D888E988FA889B01AC012C193D09F1
S11301904E095F0969017A012093ED023093EE0262
S11301A04093EF025093F0022C813D814E815F8198
S11301B0A8EEB3E00E946110C616D706E806F90659
S11301C008F452C082E08E874FC0E885F98581E04B
S11301D00995EC85FD8509956F87788B898B9A8BBA
S11301E083E08E8741C0EC85FD850995CF84D8884E
S11301F0E988FA88DC01CB018C199D09AE09BF0995
S11302000A97A105B10580F1E885F98580E0099593
S113021084E08E8729C0EA85FB850995813021F524
S1130220EC85FD8509956F87788B898B9A8B85E0A2
S11302308E871AC0EA85FB850995811115C0EC8566
S1130240FD850995CF84D888E988FA886C197D09D9
S11302508E099F092AE330E040E050E00E942A1012
S11302603C8B2B8B86E08E87DF91CF91FF90EF90B4
S1130270DF90CF900895FF928330D8F590E027E186
S1130280289FF001299FF00D1124E859FC4F26897D
S1130290253078F5E7E1E89F9001E99F300D1124BE
S11302A0D901A859BC4F5496FC905497EF2DF0E017
S11302B0EE0FFF1FEE0FFF1F2E0F3F1FF901E8592E
S11302C0FC4F408351836283738321E02F0D549646
S11302D02C935497253010F0FD01148A27E1289FB0
S11302E0F001299FF00D1124E859FC4F86898F5F96
S11302F0868BFF900895282F30E087E1829FF001DC
S1130300839FF00D1124E859FC4F86898823F1F06E
S113031047E1429FC001439F900D1124FC01E8591D
S1130320FC4FE589F0E0EE0FFF1FEE0FFF1F8E0F6D
S11303309F1FFC01E859FC4F80819181A281B38108
S1130340FB0180839183A283B38381E0089590E0CD
S113035027E1289FF001299FF00D1124E859FC4F53
S11303602689222309F127E1289FF001299FF00D16
S11303701124E859FC4F25892F5F258B253048F03F
S113038027E1289FF001299FF00D1124E859FC4F23
S1130390158A27E1289FF001299FF00D1124E859BF
S11303A0FC4F86898150868B08958091B2048430F5
S11303B0D8F02091B4048091B50490E0982F882758
S11303C0822B90931301809312012091B6048091A3
S11303D0B70490E0982F8827822B90931101809383
S11303E0100181E08093260308958091B204823045
S11303F0A8F02091B4048091B50490E0982F882748
S1130400822BA0E0B0E080934D0390934E03A09321
S11304104F03B093500381E08093250308958091A6
S1130420B204882359F081E09091B404911101C081
S113043080E0EAE0F3E0808381E0808F089580919A
S1130440B2048630D8F08091B40480930D01809179
S1130450B50480930C018091B60480930B018091C4
S1130460B70480930A018091B804809309018091B4
S1130470B9048093080181E0809323030895809157
S1130480B204882341F081E09091B404911101C039
S113049080E080930B0308958091B204882339F09F
S11304A08091B4048D3019F481E08093E2020895C0
S11304B08091B204833070F08091B404E6E4F3E0F8
S11304C080838091B50481838091B604828381E026
S11304D080931C03089581E08093E20288B18160D7
S11304E088B98091B204882321F08091B4048D30BE
S11304F019F081E080931A0308950F931F9380915C
S1130500B204813029F49091B4049F3F09F454C09B
S1130510823008F451C09091B4046091B50480E035
S113052048C0282F30E0492F50E0082E02C05595CE
S113053047950A94E2F740FF3BC0462F50E0082E4F
S113054002C0559547950A94E2F740FF19C0F90196
S1130550EE0FFF1FEE0FFF1F2E0F3F1FF901E55097
S1130560FD4F21E020830091DE021091DF022091F3
S1130570E0023091E102018312832383348318C0A3
S1130580F901EE0FFF1FEE0FFF1F2E0F3F1FF901A2
S1130590E550FD4F23E020830091DE021091DF023D
S11305A02091E0023091E10201831283238334839A
S11305B08F5F833008F4B5CF1F910F910895109287
S11305C00C0360E01CC0F901EC54FB4F2081FC01DA
S11305D0EC54FB4F80816E5F813089F4213041F00F
S11305E018F0223049F00BC081E080930F0307C05C
S11305F081E08093100303C081E080931103262FD0
S113060030E0C90101964091B20450E08417950787
S1130610D4F20895EAE0F3E081E08383858F0895BE
S1130620EAE0F3E012828091B4048093D60281E080
S113063084830895882321F085B1826085B9089563
S113064085B18D7F85B9089583B182FB882780F9B0
S1130650089520918400309185008091C802909182
S1130660C902A901481B590B8091C4029091C5028B
S1130670A091C602B091C702840F951FA11DB11DA0
S11306808093C4029093C502A093C602B093C7029C
S11306903093C9022093C802BC01CD019695879579
S11306A07795679508958091B204823090F02091F7
S11306B0B4048091B50490E0982F8827822B9093FE
S11306C00F0180930E0140E060E070E084E60E9438
S11306D0B30D0895CF93DF9388B1816088B98AE020
S11306E0E9E2F3E0DF01C82F1D92CA95E9F7EEE5D0
S11306F0F3E0DF01C82F1D92CA95E9F7E1EFF2E0BC
S1130700DF011D928A95E9F71092D9021092D8025E
S11307101092D7021092D6021092D5021092D402EF
S1130720EAE0F3E01482158216821782108611869D
S113073012861386148685E4A8E6B3E0ED011992C7
S11307408A95E9F7109228031092CF021092D002F2
S11307501092D1021092D20281E080930701158A8F
S113076080E011C0E82FF0E09F01220F331F220F19
S1130770331FE20FF31FE550FD4F108211821282E6
S1130780138214828F5F833068F381E080930C03BB
S11307908093E2028091B204882331F08091B40402
S11307A08D3029F08A3019F081E080931B03DF91AA
S11307B0CF9108950F931F93CF93DF9300D0CDB7BC
S11307C0DEB7833090F5062F182F662371F090E082
S11307D09C01220F331F220F331F820F931F60E0EF
S11307E0895C9C4F0E94650F0DC090E09C01220F14
S11307F0331F220F331F820F931F62E8895C9C4FC3
S11308000E94650F81E090E002C0880F991F1A953D
S1130810E2F78983011101C080E08A8342E0BE01CE
S11308206F5F7F4F82E50E94B30D0F900F90DF91B1
S1130830CF911F910F9108951F93CF93DF9300D011
S1130840CDB7DEB78091E202823009F04EC08091CC
S11308500C03882309F449C080E291E00E948E00D1
S1130860182F81110FC080910301813059F48093B6
S11308700F0319828A8342E0BE016F5F7F4F8EE5CA
S11308800E94B30D109303018BE191E00E948E004E
S1130890182F81110FC080910201813059F4809387
S11308A0100389838A8342E0BE016F5F7F4F8EE528
S11308B00E94B30D1093020186E191E00E948E0024
S11308C0182F811110C080910101813061F480934F
S11308D0110392E099838A8342E0BE016F5F7F4FE8
S11308E08EE50E94B30D109301010F900F90DF91DC
S11308F0CF911F910895CF93DF9300D000D01F9222
S1130900CDB7DEB780912103882371F010922103C3
S113091083E08093E2028BB181608BB940E060E0B8
S113092070E081E50E94B30D80912003882341F09B
S11309301092200340E060E070E08AE50E94B30D6D
S113094080911703882341F01092170340E060E080
S113095070E080EF0E94B30D80911803882359F052
S1130960109218038DE0898341E0BE016F5F7F4FD1
S113097080EF0E94B30D80911903882341F01092F7
S1130980190340E060E070E080E50E94B30D8091BF
S11309901A03882341F010921A0340E060E070E0EB
S11309A081E50E94B30D80911B03882341F01092CE
S11309B01B0340E060E070E083E50E94B30D80918A
S11309C02203882361F0EAE0F3E0108E80818983BA
S11309D041E0BE016F5F7F4F89E50E94B30D8091B6
S11309E01C03882389F010921C03E6E4F3E0808161
S11309F0898381818A8382818B8343E0BE016F5F17
S1130A007F4F80E40E94B30D80911D03882359F029
S1130A1010921D038DE0898341E0BE016F5F7F4F1B
S1130A2084E50E94B30D80911E03882399F01092EF
S1130A301E03809114019091150189838091140102
S1130A40909115019A8342E0BE016F5F7F4F85E567
S1130A500E94B30D80912403882361F0EAE0F3E05F
S1130A60128E8181898341E0BE016F5F7F4F86E5ED
S1130A700E94B30D80912503882379F010922503F9
S1130A8090914D0380914E0399838A8342E0BE0185
S1130A906F5F7F4F87E50E94B30D80911F0388230A
S1130AA0C1F010921F038091280389838091D6029C
S1130AB08A83E8E6F3E086898B8385A58C8380911D
S1130AC0AC038D8345E0BE016F5F7F4F88E50E94D4
S1130AD0B30D80912603882341F01092260340E051
S1130AE060E070E082E60E94B30D80910D038823DC
S1130AF041F010920D0342E063ED72E083E60E9440
S1130B00B30D0F900F900F900F900F90DF91CF9136
S1130B10089590E01CC0292F30E0F901EE0FFF1F6B
S1130B20E20FF31FE057FD4F408148130FC0F90156
S1130B30EE0FFF1F2E0F3F1FF901E057FD4F0180FD
S1130B40F281E02D309749F0099508959F5F913126
S1130B5010F38AE291E00E94A60D08958091E202CA
S1130B60813011F130F0823019F1833009F44FC033
S1130B7008956091DE027091DF028091E00290910D
S1130B80E10220ED37E040E050E00E942A10643694
S1130B9071058105910520F485B1806285B90895B8
S1130BA085B18F7D85B9089585B1806285B9089531
S1130BB08091DE029091DF02A091E002B091E10207
S1130BC04091DA025091DB026091DC027091DD0207
S1130BD0841B950BA60BB70B84369105A105B105B3
S1130BE008F442C095B180E2892785B98091DE027C
S1130BF09091DF02A091E002B091E1028093DA02C9
S1130C009093DB02A093DC02B093DD0208958091FF
S1130C10DE029091DF02A091E002B091E1024091E6
S1130C20DA025091DB026091DC027091DD02841BD8
S1130C30950BA60BB70B843F9140A105B105A0F01D
S1130C4095B180E2892785B98091DE029091DF0217
S1130C50A091E002B091E1028093DA029093DB026A
S1130C60A093DC02B093DD020895FC010190002002
S1130C70E9F73197AF01481B590BBC0180E70E948B
S1130C80B30D0895CF92DF92EF92FF920F931F93CB
S1130C90CF93DF93CDB7DEB7E2970FB6F894DEBFFC
S1130CA00FBECDBF80910A038111E5C08091E2029D
S1130CB0823009F0E0C085E291E00E948E00182F96
S1130CC0F8948091DE029091DF02A091E002B0914D
S1130CD0E1027894111116C080910701813091F4DA
S1130CE0F8948091DE029091DF02A091E002B0912D
S1130CF0E1028093CF029093D002A093D102B093EB
S1130D00D2027894113009F0B4C0809107018111A6
S1130D10B0C0F8944091DE025091DF026091E0028D
S1130D207091E1028091CF029091D002A091D10202
S1130D30B091D2029A01AB01281B390B4A0B5B0B11
S1130D407894243131054105510508F492C060E1DD
S1130D5077E280E090E00E942A10E22FF22F2093A5
S1130D60280381E080931F03909146038091D6026B
S1130D70981751F090914703891741F090914803D7
S1130D80891731F00FEF05C000E003C001E001C096
S1130D9002E00F3F09F463C0002339F0013051F43D
S1130DA088E590E0A0E0B0E009C08DE290E0A0E02A
S1130DB0B0E004C088E890E0A0E0B0E09C01AD01A0
S1130DC02B5F3F4F4F4F5F4FA8EEB3E00E9461107F
S1130DD0FF2329F02E2F30E040E050E004C021E052
S1130DE030E040E050E00E942A10F22EE32ED42E90
S1130DF0C52EA0910E01B0910F010E94611024E64E
S1130E0030E040E050E00E942A108091DE02909190
S1130E10DF02A091E002B091E102BA01A901480FFA
S1130E20591F6A1F7B1F802F0E943B01CF92DF92C4
S1130E30EF92FF921F920F938EEB91E09F938F930B
S1130E40CE0101967C019F938F930E947710C70176
S1130E500E9435060FB6F894DEBF0FBECDBF809159
S1130E60D602898341E0BE016F5F7F4F8FE50E9408
S1130E70B30D10930701E2960FB6F894DEBF0FBED0
S1130E80CDBFDF91CF911F910F91FF90EF90DF9035
S1130E90CF9008958F929F92AF92BF92CF92DF929C
S1130EA0FF920F931F93CF93DF93CDB7DEB7E697EF
S1130EB00FB6F894DEBF0FBECDBFF8948090DE026B
S1130EC09090DF02A090E002B090E1027894F12CBF
S1130ED012C10F2D10E0F801EE0FFF1FEE0FFF1FE0
S1130EE0E00FF11FE550FD4F8081813009F462C0AD
S1130EF038F0823009F4A2C0833009F4D2C0FAC0B9
S1130F0080910A038111F6C0BE016D5C7F4F8F2D65
S1130F100E947B01882309F4EDC08BA99CA9ADA98B
S1130F20BEA9A5019401281B390B4A0B5B0B0AF4DB
S1130F30E1C08F2D0E94A70161E08F2D0E94DA038A
S1130F408BA99CA9ADA9BEA9A5019401281B390BA5
S1130F504A0B5B0BDA01C901BF93AF939F932F93A5
S1130F601F93FF9286EE91E09F938F93AE014F5FA4
S1130F705F4F6A015F934F930E947710C6010E94EE
S1130F803506F801EE0FFF1FEE0FFF1F0E0F1F1F98
S1130F90F801E550FD4F82E0808381829282A38232
S1130FA0B48281E080931F030FB6F894DEBF0FBEB6
S1130FB0CDBFA0C080910A038823A1F1F801EE0FF0
S1130FC0FF1FEE0FFF1FE00FF11FE550FD4F818162
S1130FD09281A381B481B501A401481B590B6A0B0A
S1130FE07B0B8091140190911501A0E0B0E04817AB
S1130FF059076A077B0708F47DC061E08F2D0E94C2
S1131000DA03F801EE0FFF1FEE0FFF1F0E0F1F1F75
S1131010F801E550FD4F82E0808381829282A382B1
S1131020B48268C0F801EE0FFF1FEE0FFF1F0E0F12
S11310301F1FF801E550FD4F10825CC0F801EE0F50
S1131040FF1FEE0FFF1FE00FF11FE550FD4F8181E1
S11310509281A381B481B501A401481B590B6A0B89
S11310607B0B8091120190911301A0E0B0E048172E
S113107059076A077B07F0F160E08F2D0E94DA03BD
S1131080F801EE0FFF1FEE0FFF1F0E0F1F1FF801D9
S1131090E550FD4F83E0808381829282A382B482F3
S11310A029C0F801EE0FFF1FEE0FFF1FE00FF11F25
S11310B0E550FD4F81819281A381B481B501A401E2
S11310C0481B590B6A0B7B0B809110019091110105
S11310D0A0E0B0E0481759076A077B0758F0F80109
S11310E0EE0FFF1FEE0FFF1F0E0F1F1FF801E5503D
S11310F0FD4F1082F39492E09F1508F0EACEE69635
S11311000FB6F894DEBF0FBECDBFDF91CF911F9114
S11311100F91FF90DF90CF90BF90AF909F908F90F2
S11311200895EF92FF920F931F93CF93DF93CDB760
S1131130DEB7AA970FB6F894DEBF0FBECDBF85E227
S113114091E00E948E0011E0811101C010E088231B
S113115029F080910D03882309F459C0809100017E
S1131160811105C080910D03882309F450C080913A
S1131170570381114CC08091DE029091DF02A0914F
S1131180E002B091E1024091CB025091CC02609117
S1131190CD027091CE02841B950BA60BB70B893C34
S11311A09105A105B10598F10F2EF9E4EF2EF3E0B6
S11311B0FF2EF02DD7011C96ED91FC911D970995FA
S11311C0F7016787708B818B928B81E08687809192
S11311D0DE029091DF02A091E002B091E1028093DF
S11311E0CB029093CC02A093CD02B093CE02809117
S11311F0DE029091DF02A091E002B091E1028093BF
S1131200330390933403A0933503B09336031093C0
S1131210000189E493E00E94A5008091CA02813014
S1131220A1F480915703823081F48091DE02909181
S1131230DF02A091E002B091E10280933303909326
S11312403403A0933503B0933603809157038093FE
S1131250CA02823048F18091DE029091DF02A091AF
S1131260E002B091E1024091330350913403609164
S1131270350370913603841B950BA60BB70B85368B
S11312809105A105B10580F080910D03882351F0EB
S113129010920D03198241E0BE016F5F7F4F83E618
S11312A00E94B30D1092570380915703863009F0C2
S11312B06DC000915C0310915D031F930F938EE04A
S11312C092E09F938F93CE0101967C019F938F931D
S11312D00E947710C7010E94350680910D030F907C
S11312E00F900F900F900F900F90882359F0109249
S11312F00D0309A741E0BE01675D7F4F83E60E94AD
S1131300B30D42C080910D0190E00817190730F029
S113131080910C0190E080179107D0F480910B012B
S113132090E00817190730F080910A0190E08017C7
S1131330910780F48091090190E00817190760F083
S11313408091080190E08017910740F480E007C085
S113135086E005C088E003C080E001C08AE08823FD
S113136079F08093D60291E090930E0389A70AA79F
S113137042E0BE01675D7F4F8FE50E94B30D04C05C
S11313808DE292E00E94350610925703AA960FB69A
S1131390F894DEBF0FBECDBFDF91CF911F910F91A7
S11313A0FF90EF900895EF92FF920F931F93CF93C6
S11313B0DF93CDB7DEB7C854D1090FB6F894DEBFBA
S11313C00FBECDBF82E692E00E94350686E0EAE7D2
S11313D0F2E0DE01119601900D928A95E1F710E09A
S11313E01FC0E12FF0E0E75DFC4F80811F928F93D7
S11313F080E892E09F938F937E0181E4E80EF11CD4
S1131400FF92EF920E947710B701CE0101960E94DD
S11314106C101F5F0F900F900F900F900F900F9014
S11314201A30F8F28E010F5F1F4FF801019000206F
S1131430E9F731978DE590E091838083C8010E949C
S1131440350686E0E4E8F2E0D80101900D928A9531
S1131450E1F710E01FC0E12FF0E0E25AFC4F808179
S11314601F928F9380E892E09F938F937E0181E493
S1131470E80EF11CFF92EF920E947710B701CE01A3
S113148001960E946C101F5F0F900F900F900F90A9
S11314900F900F901A30F8F28E010F5F1F4FF80172
S11314A001900020E9F731978DE590E091838083E6
S11314B0C8010E94350686E0EAE8F2E0D80101900E
S11314C00D928A95E1F710E01FC0E12FF0E0EF5094
S11314D0FD4F80811F928F9380E892E09F938F93BA
S11314E07E0181E4E80EF11CFF92EF920E947710D6
S11314F0B701CE0101960E946C101F5F0F900F90F0
S11315000F900F900F900F901A30F8F2CE010196C1
S1131510FC0101900020E9F731972DE530E031839B
S113152020830E943506C85BDF4F0FB6F894DEBFF8
S11315300FBECDBFDF91CF911F910F91FF90EF9020
S1131540089580910A03882309F455C18091E20229
S1131550823009F050C180910E038823C1F080913C
S11315601203811114C08091D9028A3080F4E9E019
S1131570F0E0E81BF109E75DFC4F9091D6029083FF
S11315808F5F8093D90210920E030E94D309809139
S11315900F03882381F18091120381112CC01092D2
S11315A00F038091D902882331F180913203909105
S11315B04603891311C0EBEFF2E081E08083809150
S11315C0DE029091DF02A091E002B091E1028183FA
S11315D09283A383B48305C08093D50281E0809372
S11315E01503109232038091D90281508093D9025D
S11315F081E080931203809115038823B1F08091D8
S11316001303811112C08091D8028A3070F4E9E08A
S1131610F0E0E81BF1099091D502E25AFC4F908367
S11316208F5F8093D8021092150380911003882352
S113163081F18091130381112CC0109210038091C9
S1131640D802882331F1809167039091470389136D
S113165011C0EBEFF2E081E085838091DE0290918E
S1131660DF02A091E002B091E10286839783A08714
S1131670B18705C08093D40281E080931603109251
S113168067038091D80281508093D80281E08093CF
S11316901303809116038823B1F080911403811100
S11316A012C08091D7028A3070F4E9E0F0E0E81BC0
S11316B0F1099091D402EF50FD4F90838F5F809396
S11316C0D7021092160380911103882341F180916F
S11316D01403811124C0109211038091D70288232E
S11316E0F1F02091FA0290914803291310C0EBEF16
S11316F0F2E091E092874091DE025091DF02609126
S1131700E0027091E10243875487658776871092DF
S1131710FA0281508093D70281E080931403809170
S11317201203882301F180910601282F30E0EAE0BA
S1131730F0E0E21BF30BA9E0B0E0A21BB30BA75D42
S1131740BC4F9C91E75DFC4F90838F5F80930601B3
S11317508A3049F4109229031092120381E0809395
S113176006010E94D30980911303882301F180911B
S11317700501282F30E0EAE0F0E0E21BF30BA9E0DA
S1131780B0E0A21BB30BA25ABC4F9C91E25AFC4F8F
S113179090838F5F809305018A3049F410925E0331
S11317A01092130381E0809305010E94D309809174
S11317B01403882301F180910401282F30E0EAE02A
S11317C0F0E0E21BF30BA9E0B0E0A21BB30BAF50B7
S11317D0BD4F9C91EF50FD4F90838F5F8093040128
S11317E08A3049F41092F1021092140381E080933C
S11317F004010E94D309089582E08093C00080E12F
S113180090E09093C5008093C40086E08093C2006A
S113181088E98093C100089584B1806284B984B159
S1131820826084B984B18B7F84B98AB180688AB9B3
S113183084B1806184B984B1886084B98AB1837CBD
S11318408AB98BB18C638BB987B1816087B988B150
S1131850816088B9089582E084BD94E095BD9CE7D9
S113186097BD80936E0008951092800082E080936B
S11318708100089580910B03811111C020912803E8
S1131880222369F030E040E050E068EA71E680E04D
S113189090E00E942A10309315012093140181E0F6
S11318A080931E0308958091B2048430C0F0809127
S11318B0B404809328038091B504E6E4F3E08083C4
S11318C08091B60481838091B70482830E943A0C8C
S11318D088B18E7F88B982E08093E20208958111F5
S11318E019C080914603882391F08091470388238F
S11318F071F080914803882351F088B18E7F88B9B4
S113190082E08093E20281E080931903089581E0EC
S11319108093200308958091B204882389F08091F4
S1131920B404809328030E943A0C8091B20482305C
S113193020F08091B5048D3019F081E080931D036F
S113194008958091B204823090F080910B03882333
S113195061F02091B4048091B50490E0982F882719
S1131960822B90931501809314010E943A0C0895E0
S11319701F920F920FB60F9211248F939F93AF93E0
S1131980BF938091DE029091DF02A091E002B091BA
S1131990E1020296A11DB11D8093DE029093DF0245
S11319A0A093E002B093E102BF91AF919F918F9118
S11319B00F900FBE0F901F901895F8940E940C0C76
S11319C00E94FC0B0E942B0C0E94340C0E94830D7D
S11319D0EAE0F3E01086118612861786108A118ACF
S11319E0178A20E012C0822F90E0FC01EE0FFF1F47
S11319F0EE0FFF1F8E0F9F1FFC01E550FD4F10825D
S1131A0011821282138214822F5F233060F347E025
S1131A106BE270E087E393E00E942E0F43E065E2FF
S1131A2070E08CE393E00E942E0F44E065E270E0E6
S1131A3081E493E00E942E0FC0E00FC08C2F90E051
S1131A409C01220F331F220F331F820F931F62E862
S1131A50895C9C4F0E94650FCF5FC33078F310926E
S1131A603303109234031092350310923603E9E4E1
S1131A70F3E088EE93E0A0E0B0E084839583A6834E
S1131A80B7838AE193E09187808784E293E0938728
S1131A90828789E293E095878487168685E291E0C0
S1131AA00E945C0080E291E00E945C008BE191E086
S1131AB00E945C0086E191E00E945C0088B1816034
S1131AC088B91092150110921401CAE0D3E011E014
S1131AD01983789440E060E070E080EF0E94B30DD9
S1131AE01A8318830E94810E0E9491080E941C048C
S1131AF00E9442060E94A10A0E944A070E947B0497
S1131B000E94AE05EFCF1092AD041092AE04109275
S1131B10AF041092D5051092D60508959091D5057D
S1131B209F5F2091D605921781F0A5EDB5E0EC9169
S1131B30F0E0EB52FB4F80839C939FB7F894E1EC69
S1131B40F0E08081806280839FBF0895CF93DF930C
S1131B50EC0103C021960E948E0D88818111FACF79
S1131B60DF91CF910895BF92CF92DF92EF92FF92CF
S1131B700F931F93CF93DF9300D000D0CDB7DEB780
S1131B80C82E7B01D42E85E589838EE48A8385E47F
S1131B908B8382E58C836894BB24B1F8B40E80E017
S1131BA000E009C0E1E0F0E0EC0FFD1FE80FF11DDB
S1131BB0908109278F5F8430A8F30B258AE30827D7
S1131BC00C25E114F10469F0D11008C00AC0F70132
S1131BD0E80FF11D908109278F5F01C080E08D150A
S1131BE0B0F310E00AC0E1E0F0E0EC0FFD1FE10FFC
S1131BF0F11D80810E948E0D1F5F1430A0F38B2D88
S1131C000E948E0D8AE30E948E0D8C2D0E948E0DF3
S1131C10E114F10471F0D11009C00BC0F701E10F18
S1131C20F11D80810E948E0D1F5F01C010E01D1503
S1131C30A8F3802F0E948E0D0F900F900F900F909D
S1131C40DF91CF911F910F91FF90EF90DF90CF9094
S1131C50BF9008951F920F920FB60F9211242F93E5
S1131C608F939F93AF93BF93EF93FF932091C600FD
S1131C708091AD048F5F9091AE04891741F0ADEA75
S1131C80B4E0EC91F0E0E355FC4F20838C93FF919A
S1131C90EF91BF91AF919F918F912F910F900FBEB4
S1131CA00F901F9018951F920F920FB60F92112448
S1131CB08F939F93AF93BF93EF93FF939091D60528
S1131CC08091D505981769F0A6EDB5E0EC91F0E0A8
S1131CD0EB52FB4F80818093C6008C918F5F8C9375
S1131CE005C0E1ECF0E080818F7D8083FF91EF916E
S1131CF0BF91AF919F918F910F900FBE0F901F9046
S1131D001895CF93C091AD04A3C0AEEAB4E0EC91B2
S1131D10F0E0E355FC4F20818C918F5F8C93E09130
S1131D20AF048E2F90E08930910508F091C0FC013A
S1131D30EC5CFF4F0C944C10253509F089C02093BE
S1131D40B00481E08093AF0483C02E3449F4E0EB07
S1131D50F4E080812827208382E08093AF0478C058
S1131D601092AF0475C0253449F4E0EBF4E08081AF
S1131D702827208383E08093AF046AC01092AF04C5
S1131D8067C0223549F4E0EBF4E080812827208302
S1131D9084E08093AF045CC01092AF0459C02093D8
S1131DA0B104E0EBF4E080812827208385E0809370
S1131DB0AF044EC02A3349F4E0EBF4E080812827D5
S1131DC0208386E08093AF0443C01092AF0440C0E8
S1131DD02093B304E0EBF4E08081282720838091F2
S1131DE0B104823010F0825001C080E08093B204CC
S1131DF01092D404882311F087E001C088E0809316
S1131E00AF0426C08091D404803228F4E82FF0E097
S1131E10EC54FB4F20838F5F8093D404E0EBF4E019
S1131E209081292720839091B204891788F088E053
S1131E308093AF040DC08091B004281307C040E024
S1131E4060E070E08091B3040E9489051092AF04B1
S1131E508091AE04C81359CFCF910895FC017183CA
S1131E606083428380E494E094838383DB018C91D8
S1131E7021E030E002C0220F331F4A95E2F720959B
S1131E8028232C938091E602833058F4A82FB0E0E5
S1131E90AA0FBB1FA951BD4FED93FC938F5F809395
S1131EA0E6028091E602813079F4EFE6F0E0808189
S1131EB08260808380918400909185008C599F4F2B
S1131EC090938900809388000895CF93DF93EC0169
S1131ED0653B08F064EB262F30E0A0E8BEE00E94EA
S1131EE0521024EB30E040E050E00E942A10205CC5
S1131EF03B4F3C832B83DF91CF9108951F920F9228
S1131F000FB60F9211242F933F934F935F938F93A8
S1131F109F93AF93BF93EF93FF938091E60288233F
S1131F2009F489C02091E502E22FE695422F50E0A2
S1131F3090E0880F991F481759070CF05BC020FDEB
S1131F402AC0F0E0EE0FFF1FE951FD4F0190F08130
S1131F50E02DA081B1812C9181E090E0028002C04B
S1131F60880F991F0A94E2F7822B8C9383819481C2
S1131F70E8E8F0E020813181280F391F3183208384
S1131F802091E3023091E402820F931F9093E402C4
S1131F908093E30229C0F0E0EE0FFF1FE951FD4FEB
S1131FA0A081B181ED91FC911197208181E090E0B5
S1131FB012960C9002C0880F991F0A94E2F780953C
S1131FC082238083E8E8F0E0808191818C599F4FDF
S1131FD0918380838091E3029091E4028C599F4F16
S1131FE09093E4028093E3028091E5028F5F8093F3
S1131FF0E50221C02091E3023091E40220348CE90F
S1132000380758F4E8E8F0E080819181821B930B53
S1132010805C93469183808308C0E8E8F0E0808187
S113202091818C599F4F918380831092E502109285
S1132030E4021092E302FF91EF91BF91AF919F915F
S11320408F915F914F913F912F910F900FBE0F9001
S11320501F901895A1E21A2EAA1BBB1BFD010DC0EF
S1132060AA1FBB1FEE1FFF1FA217B307E407F50744
S113207020F0A21BB30BE40BF50B661F771F881F20
S1132080991F1A9469F760957095809590959B01B6
S1132090AC01BD01CF010895EE0FFF1F0590F4912F
S11320A0E02D0994A29FB001B39FC001A39F700DBE
S11320B0811D1124911DB29F700D811D1124911D4C
S11320C008950E945210A59F900DB49F900DA49F57
S11320D0800D911D11240895FB01DC010D90002059
S11320E0E9F7119701900D920020E1F70895AEE011
S11320F0B0E0EDE7F0E10C9438130D891E8986E019
S11321008C831A8309838FEF9FE79E838D83AE01AF
S1132110475E5F4F6F89788DCE0101960E949910BA
S1132120EF81F885E00FF11F10822E96E4E00C9405
S11321305413ABE0B0E0EFE9F0E10C942A136C0126
S11321407B018A01FC0117821682838181FFCCC145
S1132150CE0101963C01F6019381F70193FD85912F
S113216093FF81917F01882309F4BAC1853239F440
S113217093FD859193FF81917F01853229F4B60106
S113218090E00E949012E7CF912C212C312CFFE19A
S1132190F315D8F08B3279F038F4803279F0833249
S11321A0A1F4232D20611DC08D3261F0803369F4C8
S11321B0232D216016C0832D8260382EE32DE46028
S11321C03E2E2AC0F32DF8601DC037FC2DC020ED33
S11321D0280F2A3040F08E32B9F436FC81C1232D09
S11321E02064322E19C036FE06C08AE0989E200D67
S11321F01124922E11C0EAE02E9E200D1124222ECD
S1132200F32DF0623F2E08C08C3621F4832D8068B4
S1132210382E02C0883641F4F70193FD859193FF6F
S113222081917F018111B3CF982F9F7D9554933075
S113223028F40C5F1F4F9FE399830DC0833631F060
S1132240833771F0833509F059C021C0F8018081CA
S113225089830E5F1F4F88248394912C530113C0EC
S11322602801F2E04F0E511CF801A080B18036FE27
S113227003C0692D70E002C06FEF7FEFC5010E94BB
S113228085124C018201F32DFF773F2E16C02801E1
S113229022E0420E511CF801A080B18036FE03C03A
S11322A0692D70E002C06FEF7FEFC5010E947A12C2
S11322B04C01F32DF0683F2E820133FC1BC0822DAC
S11322C090E088169906B0F4B60180E290E00E948E
S11322D090122A94F4CFF50137FC859137FE819151
S11322E05F01B60190E00E94901221102A9421E02F
S11322F0821A91088114910471F7E8C0843611F0B0
S1132300893641F5F80137FE07C060817181828109
S113231093810C5F1F4F08C060817181072E000CF0
S1132320880B990B0E5F1F4FF32DFF763F2E97FFFF
S113233009C090958095709561957F4F8F4F9F4F01
S1132340F0683F2E2AE030E0A3010E94CC12882ED0
S1132350861845C0853731F4232D2F7EB22E2AE00E
S113236030E025C0932D997FB92E8F36C1F018F433
S1132370883579F0B5C0803719F0883721F0B0C0BE
S1132380E92FE061BE2EB4FE0DC0FB2DF460BF2E1C
S113239009C034FE0AC0292F2660B22E06C028E0E8
S11323A030E005C020E130E002C020E132E0F80175
S11323B0B7FE07C060817181828193810C5F1F4FDA
S11323C006C06081718180E090E00E5F1F4FA30121
S11323D00E94CC12882E8618FB2DFF773F2E36FEE6
S11323E00DC0232D2E7FA22E891458F434FE0BC069
S11323F032FC09C0832D8E7EA82E05C0B82CA32CD8
S113240003C0B82C01C0B92CA4FE0FC0FE01E80D16
S1132410F11D8081803321F49A2D997EA92E09C063
S1132420A2FE06C0B394B39404C08A2D867809F042
S1132430B394A3FC11C0A0FE06C0B21488F4280C07
S1132440922C9B180EC0B21460F4B60180E290E0A6
S11324500E949012B394F7CFB21418F42B1802C050
S1132460982C212CA4FE10C0B60180E390E00E94B9
S11324709012A2FE17C0A1FC03C088E790E002C03E
S113248088E590E0B6010CC08A2D867859F0A1FE4B
S113249002C08BE201C080E2A7FC8DE2B60190E0AD
S11324A00E949012891438F4B60180E390E00E94EF
S11324B090129A94F7CF8A94F301E80DF11D80816C
S11324C0B60190E00E9490128110F5CF222009F409
S11324D042CEB60180E290E00E9490122A94F6CF98
S11324E0F6018681978102C08FEF9FEF2B96E2E180
S11324F00C944613FC010590615070400110D8F70C
S1132500809590958E0F9F1F0895FC016150704037
S113251001900110D8F7809590958E0F9F1F089514
S11325200F931F93CF93DF93FB01238121FD03C0FE
S11325308FEF9FEF2CC022FF16C046815781248164
S113254035814217530744F4A081B1819D012F5F67
S11325503F4F318320838C93268137812F5F3F4FF8
S11325603783268314C08B01EC01FB010084F185C1
S1132570E02D0995892BE1F6D80116968D919C9151
S11325801797019617969C938E931697CE01DF9119
S1132590CF911F910F910895FA01AA27283051F184
S11325A0203181F1E8946F936E7F6E5F7F4F8F4F80
S11325B09F4FAF4FB1E03ED0B4E03CD0670F781FDF
S11325C0891F9A1FA11D680F791F8A1F911DA11DC4
S11325D06A0F711D811D911DA11D20D009F46894FD
S11325E03F912AE0269F11243019305D3193DEF6A5
S11325F0CF010895462F4770405D4193B3E00FD05B
S1132600C9F7F6CF462F4F70405D4A3318F0495D45
S113261031FD4052419302D0A9F7EACFB4E0A69528
S11326209795879577956795BA95C9F7009761054A
S1132630710508959B01AC010A2E069457954795A0
S113264037952795BA95C9F7620F731F841F951F95
S1132650A01D08952F923F924F925F926F927F92A6
S11326608F929F92AF92BF92CF92DF92EF92FF929E
S11326700F931F93CF93DF93CDB7DEB7CA1BDB0B4A
S11326800FB6F894DEBF0FBECDBF09942A883988EF
S113269048885F846E847D848C849B84AA84B984F6
S11326A0C884DF80EE80FD800C811B81AA81B98102
S11326B0CE0FD11D0FB6F894DEBF0FBECDBFED0116
S10926C00895F894FFCF19
S11326C601010101010101010B090D0B0F0E85002A
S11326D664002C01A0000029000500002900040064
S11326E600290003000029000200554E45523A43D2
S11326F66D645F556E6B6E6F776E0A000D0A5B2113
S11327065D2053544F503A2043696E7461206465CA
S113271674656E6964612E0D0A000D0A5B3F5D20C7
S113272653544F502069676E6F7261646F3A204E3E
S11327366F2068617920636F6E6578696F6E2061BA
S113274663746976612E0D0A000D0A5B215D2052C1
S11327564553455420494E54454752414C3A20531B
S11327666F66747761726520792048617264776157
S11327767265206C696D70696F732E0D0A00544979
S11327864D454D4F44453A20532564204167656EB7
S11327966461646F2E20542E5675656C6F3A20253D
S11327A66C75206D730054494D454D4F44453A2090
S11327B653256420504154454F2120284C617465AB
S11327C66E6369613A20256C64206D732900484361
S11327D6535230343A204C454354555241204649CD
S11327E653494341203D20257520636D00534953C9
S11327F654454D413A2043616A612069676E6F72A0
S113280661646120284D656469646120667565723A
S11328166120646520746F6C6572616E63696173AF
S113282629002D2D2D2045535441444F2044452045
S113283643494E5441202D2D2D0051303A205B0042
S11328462564200051313A205B0051323A205B0066
S1132856F04C0250530C516B02536A03630A03593A
S11328660F02405802548B0C563F0255A10C57F5E3
S113287601601F0262D5016453035F10035EDF0229
S1072886527D020079
S9030000FC
