S01D0000436F6D756E69636163696F6E53696D7543696E74612E73726563A2
S11300000C943D000C945A000C945A000C945A0021
S11300100C945A000C945A000C945A000C945A00F4
S11300200C945A000C945A000C945A000C94AB098A
S11300300C945A000C9421060C94FC050C945A0060
S11300400C945A000C945A000C9457080C94800891
S11300500C945A000C945A000C945A000C945A00B4
S11300600C945A000C945A00C908D208E008EE080F
S1130070FC08070915092F09480911241FBECFEFF1
S1130080D8E0DEBFCDBF11E0A0E0B1E0E0E2F5E1F1
S113009002C005900D92AC3FB107D9F724E0ACEF54
S11300A0B1E001C01D92A63AB207E1F70E941B0716
S11300B00C948E0A0C940000FC018081811112C002
S11300C0A181B28111962C91119781E090E0038077
S11300D002C0880F991F0A94E2F780958223119633
S11300E08C9308958130C9F437B181E090E0AC017C
S11300F0048002C0440F551F0A94E2F7242F209570
S1130100232327B9AEE7B0E02C91048002C0880F06
S1130110991F0A94E2F7822B8C930895FC01808145
S113012081110FC0A181B2812C9130E0C9010380FB
S113013002C0959587950A94E2F780FF04C081E098
S1130140089580E0089580E008950F931F93CF935E
S1130150DF93EC018E818230B9F018F4813031F0F4
S113016054C0833049F18430B1F14FC0E881F98142
S113017081E00995EC81FD8109956F8378878987F2
S11301809A8782E08E8341C0EC81FD8109950F81BD
S1130190188529853A85DC01CB01801B910BA20BC4
S11301A0B30B0A97A105B10580F1E881F98180E0DC
S11301B0099583E08E8329C0EA81FB81099581300A
S11301C021F5EC81FD8109956F83788789879A876A
S11301D084E08E831AC0EA81FB810995811115C0E0
S11301E0EC81FD8109950F81188529853A85601B6D
S11301F0710B820B930B2AE330E040E050E00E9445
S1130200570A3C872B8785E08E83DF91CF911F911E
S11302100F910895809183038D3029F481E08093B8
S1130220100280933D02089580918403E2E6F2E097
S113023080838091850381838091860382830895DE
S113024081E08093100280933F02089580916202BE
S1130250882379F080916302882359F080916402A5
S1130260882339F082E08093100281E080933E027B
S1130270089581E080934302089508951092440202
S113028060E01CC0F901ED57FC4F2081FC01ED57E3
S1130290FC4F80816E5F813089F4213041F018F089
S11302A0223049F00BC081E08093350207C081E021
S11302B08093360203C081E080933702262F30E01A
S11302C0C90101964091810350E084179507D4F247
S11302D00895E4E3F2E0108A80918303809304029A
S11302E081E080830895882321F08BB180688BB9E5
S11302F008958BB18F778BB9089589B186FB8827D0
S113030080F9089520918400309185008091000245
S113031090910102A901481B590B8091FC01909115
S1130320FD01A091FE01B091FF01840F951FA11D55
S1130330B11D8093FC019093FD01A093FE01B09345
S1130340FF013093010220930002BC01CD01969578
S113035087957795679508958AE0E5E4F2E0DF01F3
S1130360982F1D929A95E9F7E2E7F2E0DF01982FC2
S11303701D929A95E9F7EBE1F2E0DF011D928A956F
S1130380E9F71092070210920602109205021092E9
S113039004021092030210920202E4E3F2E01082DB
S11303A01182128213821482158216821782108699
S11303B080E011C0E82FF0E09F01220F331F220FCD
S11303C0331FE20FF31FEB5DFD4F10821182128287
S11303D0138214828F5F833068F3E4E3F2E081E0F8
S11303E0808B10921002848708950F931F93CF93EC
S11303F0DF9300D0CDB7DEB7833090F5062F182FEA
S1130400662371F090E09C01220F331F220F331FEB
S1130410820F931F60E08D5A9D4F0E9492090DC078
S113042090E09C01220F331F220F331F820F931F72
S113043062E88D5A9D4F0E94920981E090E002C0CB
S1130440880F991F1A95E2F78983011101C080E092
S11304508A8342E0BE016F5F7F4F82E50E94E0071E
S11304600F900F90DF91CF911F910F9108951F93DB
S1130470CF93DF93D091830310918403C0E033C002
S11304802C2F30E08D2F90E00C2E02C0959587958F
S11304900A94E2F780FF26C0812F90E00C2E02C060
S11304A0959587950A94E2F780FF1CC0F901EE0F39
S11304B0FF1FEE0FFF1F2E0F3F1FF901EB5DFD4FD6
S11304C081E0808380910C0290910D02A0910E0234
S11304D0B0910F0281839283A383B48361E08C2F54
S11304E00E94F501CF5FC33058F2DF91CF911F9185
S11304F008950F931F93CF93C0E077C08C2F90E0A3
S1130500FC01EE0FFF1FEE0FFF1FE80FF91FEB5D5D
S1130510FD4F2081213019F02230E9F165C040916E
S11305200C0250910D0260910E0270910F02FC01B9
S1130530EE0FFF1FEE0FFF1FE80FF91FEB5DFD4FDE
S11305400181128123813481401B510B620B730B97
S1130550403A51056105710508F446C0FC01EE0FEF
S1130560FF1FEE0FFF1F8E0F9F1FFC01EB5DFD4F62
S113057082E0808380910C0290910D02A0910E0282
S1130580B0910F0281839283A383B48360E08C2FA4
S11305900E94F50129C040910C0250910D02609116
S11305A00E0270910F02FC01EE0FFF1FEE0FFF1FF2
S11305B0E80FF91FEB5DFD4F018112812381348126
S11305C0401B510B620B730B403A510561057105D9
S11305D058F0FC01EE0FFF1FEE0FFF1F8E0F9F1F41
S11305E0FC01EB5DFD4F1082CF5FC33008F486CF72
S11305F0CF911F910F91089580914102882359F062
S11306001092410283E08093100240E060E070E0C9
S113061081E50E94E00780913D02882341F0109219
S11306203D0240E060E070E080EF0E94E0078091CE
S11306303E02882341F010923E0240E060E070E008
S113064080E50E94E00780913F02882341F01092E8
S11306503F0240E060E070E081E50E94E0078091A5
S11306604002882341F01092400240E060E070E0D4
S113067083E50E94E00780914202882341F01092B2
S1130680420240E060E070E080E40E94E007809174
S11306904302882341F01092430240E060E070E09E
S11306A08AE50E94E007089590E01CC0292F30E0FD
S11306B0F901EE0FFF1FE20FF31FEF51FE4F4081D0
S11306C048130FC0F901EE0FFF1F2E0F3F1FF90152
S11306D0EF51FE4F0180F281E02D309749F00995EA
S11306E008959F5F993010F38BE191E00E94D30746
S11306F0089580911002813011F130F0823019F1A7
S1130700833009F44FC0089560910C0270910D027A
S113071080910E0290910F0220ED37E040E050E00E
S11307200E94570A643671058105910520F485B14C
S1130730806285B9089585B18F7D85B9089585B1A5
S1130740806285B9089580910C0290910D02A09168
S11307500E02B0910F02409108025091090260917B
S11307600A0270910B02841B950BA60BB70B8436FF
S11307709105A105B10508F442C095B180E289272D
S113078085B980910C0290910D02A0910E02B09156
S11307900F028093080290930902A0930A02B09377
S11307A00B02089580910C0290910D02A0910E020B
S11307B0B0910F02409108025091090260910A021F
S11307C070910B02841B950BA60BB70B843F9140D1
S11307D0A105B105A0F095B180E2892785B9809182
S11307E00C0290910D02A0910E02B0910F02809321
S11307F0080290930902A0930A02B0930B02089591
S1130800CF938FEA91E00E94D3078BEC91E00E9492
S1130810D307C0E014C0EC2FF0E0EB5BFD4F808108
S1130820882321F08A3021F0805D03C08DE201C06D
S113083088E50E94BB0780E20E94BB07CF5FCA30F5
S113084050F381ED91E00E94D30785ED91E00E9481
S1130850D307C0E014C0EC2FF0E0EE58FD4F8081C8
S1130860882321F08A3021F0805D03C08DE201C02D
S113087088E50E94BB0780E20E94BB07CF5FCA30B5
S113088050F381ED91E00E94D3078BED91E00E943B
S1130890D307C0E014C0EC2FF0E0E55EFD4F80818B
S11308A0882321F08A3021F0805D03C08DE201C0ED
S11308B088E50E94BB0780E20E94BB07CF5FCA3075
S11308C050F3CF91089580911002823009F058C1FD
S11308D0809134028823C1F080913802811114C0C0
S11308E0809107028A3080F4E9E0F0E0E81BF10926
S11308F0EB5BFD4F9091040290838F5F809307021E
S1130900109234020E940004809135028823A1F1E0
S113091080913802811130C0109235028091070213
S1130920882351F180914E0290916202891315C07F
S1130930E5E2F2E081E0808380910C0290910D0267
S1130940A0910E02B0910F0281839283A383B4839A
S113095061E080E00E94F50105C08093030281E01C
S113096080933B0210924E02809107028150809343
S1130970070281E08093380280913B028823B1F022
S113098080913902811112C0809106028A3070F47C
S1130990E9E0F0E0E81BF10990910302EE58FD4F05
S11309A090838F5F8093060210923B0280913602FF
S11309B08823A1F180913902811130C0109236024E
S11309C080910602882351F180917B029091630209
S11309D0891315C0E5E2F2E081E0858380910C0281
S11309E090910D02A0910E02B0910F02868397831D
S11309F0A087B18761E081E00E94F50105C0809382
S1130A00020281E080933C0210927B0280910602F4
S1130A1081508093060281E08093390280913C02E8
S1130A208823B1F080913A02811112C080910502AD
S1130A308A3070F4E9E0F0E0E81BF10990910202D9
S1130A40E55EFD4F90838F5F8093050210923C0218
S1130A5080913702882371F180913A0281112AC072
S1130A601092370280910502882321F1909124028B
S1130A7080916402981314C0E5E2F2E081E0828779
S1130A8080910C0290910D02A0910E02B0910F0280
S1130A9083879487A587B68761E082E00E94F50189
S1130AA0109224028091050281508093050281E016
S1130AB080933A02809138028823F1F080910601F4
S1130AC0282F30E0EAE0F0E0E21BF30BA9E0B0E00D
S1130AD0A21BB30BAB5BBD4F9C91EB5BFD4F9083B3
S1130AE08F5F809306018A3039F410924502109288
S1130AF0380281E080930601809139028823F1F065
S1130B0080910501282F30E0EAE0F0E0E21BF30BCE
S1130B10A9E0B0E0A21BB30BAE58BD4F9C91EE58B8
S1130B20FD4F90838F5F809305018A3039F41092D2
S1130B3072021092390281E08093050180913A0299
S1130B408823F1F080910401282F30E0EAE0F0E0FE
S1130B50E21BF30BA9E0B0E0A21BB30BA55EBD4FF3
S1130B609C91E55EFD4F90838F5F809304018A30F2
S1130B7039F410921B0210923A0281E0809304012E
S1130B80089582E08093C00080E190E09093C500D6
S1130B908093C40086E08093C20088E98093C100FA
S1130BA0089584B1806284B984B1887F84B985B1A1
S1130BB0876085B987B1807F87B988B1807F88B91C
S1130BC08AB18C618AB98AB18F7B8AB98AB180680B
S1130BD08AB9089582E084BD94E095BD9CE797BDF1
S1130BE080936E0008951092800082E080938100CB
S1130BF081E080936F0008951F920F920FB60F92B9
S1130C0011248F939F93AF93BF9380910C02909183
S1130C100D02A0910E02B0910F020296A11DB11D0A
S1130C2080930C0290930D02A0930E02B0930F02D6
S1130C30BF91AF919F918F910F900FBE0F901F9016
S1130C4018951F920F920FB60F9211240F900FBE9A
S1130C500F901F901895CF93DF931F92CDB7DEB7F7
S1130C6080916B028823D9F080910C0290910D023F
S1130C70A0910E02B0910F0240914F025091500288
S1130C806091510270915202841B950BA60BB70B15
S1130C9085369105A105B10510F010926B0286E12D
S1130CA091E00E948E0090911002923009F590918B
S1130CB044029923E9F081111BC090910301913002
S1130CC0B9F490916B02911113C091E090936B026F
S1130CD040910C0250910D0260910E0270910F022E
S1130CE040934F025093500260935102709352020A
S1130CF08093030185E692E00E94A50080916B0237
S1130D008530B1F580917002909171029C0123505D
S1130D1031092430310538F486E08093040281E0FF
S1130D208093340216C0AC0147505109423051053A
S1130D3038F488E08093040281E08093340209C08F
S1130D400997029730F48AE08093040281E080934B
S1130D5034022830310550F480910402898341E043
S1130D60BE016F5F7F4F8FE50E94E00710926B0218
S1130D700F90DF91CF9108951F93CF93DF9300D00D
S1130D80CDB7DEB780911002823009F04EC0809159
S1130D904402882309F449C081E191E00E948E0055
S1130DA0182F81110FC080910201813059F4809372
S1130DB0350219828A8342E0BE016F5F7F4F8EE560
S1130DC00E94E007109302018CE091E00E948E00E3
S1130DD0182F81110FC080910101813059F4809343
S1130DE0360289838A8342E0BE016F5F7F4F8EE5BE
S1130DF00E94E0071093010187E091E00E948E00B9
S1130E00182F811110C080910001813061F480930A
S1130E10370292E099838A8342E0BE016F5F7F4F7D
S1130E208EE50E94E007109300010F900F90DF9170
S1130E30CF911F910895F8940E94D1050E94C10595
S1130E400E94EA050E94F3050E94B007E4E3F2E081
S1130E50148215821682128613861486158620E063
S1130E6012C0822F90E0FC01EE0FFF1FEE0FFF1F58
S1130E708E0F9F1FFC01EB5DFD4F108211821282C9
S1130E80138214822F5F233060F342E06BE270E040
S1130E9083E592E00E945B0943E06BE270E088E541
S1130EA092E00E945B0944E06BE270E08DE592E021
S1130EB00E945B09C0E00FC08C2F90E09C01220FC0
S1130EC0331F220F331F820F931F62E88D5A9D4FE9
S1130ED00E949209CF5FC33078F310924F021092B0
S1130EE050021092510210925202E5E6F2E083E7BA
S1130EF091E0918380838DE791E09383828382E8FC
S1130F0091E095838483168286E191E00E945C00DF
S1130F1081E191E00E945C008CE091E00E945C0021
S1130F2087E091E00E945C008BB18F778BB9789455
S1130F3040E060E070E080EF0E94E00781E0809391
S1130F4044020E94AE080E94FC020E9479020E94A0
S1130F5079030E9463040E942B060E94BC06F1CF11
S1130F6010927C0310927D0310927E031092A404CD
S1130F701092A50408959091A4049F5F2091A50464
S1130F80921781F0A4EAB4E0EC91F0E0EC55FC4F48
S1130F9080839C939FB7F894E1ECF0E080818062B9
S1130FA080839FBF0895CF93DF93EC0103C0219604
S1130FB00E94BB0788818111FACFDF91CF910895F8
S1130FC0BF92CF92DF92EF92FF920F931F93CF9332
S1130FD0DF9300D000D0CDB7DEB7C82E7B01D42E6E
S1130FE085E589838EE48A8385E48B8382E58C831B
S1130FF06894BB24B1F8B40E80E000E009C0E1E0DD
S1131000F0E0EC0FFD1FE80FF11D908109278F5FC1
S11310108430A8F30B258AE308270C25E114F10496
S113102069F0D11008C00AC0F701E80FF11D9081E2
S113103009278F5F01C080E08D15B0F310E00AC06E
S1131040E1E0F0E0EC0FFD1FE10FF11D80810E9453
S1131050BB071F5F1430A0F38B2D0E94BB078AE3EC
S11310600E94BB078C2D0E94BB07E114F10471F0B0
S1131070D11009C00BC0F701E10FF11D80810E945E
S1131080BB071F5F01C010E01D15A8F3802F0E944D
S1131090BB070F900F900F900F90DF91CF911F918E
S11310A00F91FF90EF90DF90CF90BF9008951F9223
S11310B00F920FB60F9211242F938F939F93AF9398
S11310C0BF93EF93FF932091C60080917C038F5FC1
S11310D090917D03891741F0ACE7B3E0EC91F0E027
S11310E0E458FD4F20838C93FF91EF91BF91AF9112
S11310F09F918F912F910F900FBE0F901F90189575
S11311001F920F920FB60F9211248F939F93AF9358
S1131110BF93EF93FF939091A5048091A404981733
S113112069F0A5EAB4E0EC91F0E0EC55FC4F808165
S11311308093C6008C918F5F8C9305C0E1ECF0E046
S113114080818F7D8083FF91EF91BF91AF919F91BB
S11311508F910F900FBE0F901F901895CF93C09151
S11311607C03A3C0ADE7B3E0EC91F0E0E458FD4F9D
S113117020818C918F5F8C93E0917E038E2F90E081
S11311808930910508F091C0FC01EC5CFF4F0C9490
S1131190790A253509F089C020937F0381E0809383
S11311A07E0383C02E3449F4EFE7F3E080812827DF
S11311B0208382E080937E0378C010927E0375C002
S11311C0253449F4EFE7F3E080812827208383E086
S11311D080937E036AC010927E0367C0223549F46F
S11311E0EFE7F3E080812827208384E080937E0367
S11311F05CC010927E0359C020938003EFE7F3E0B4
S113120080812827208385E080937E034EC02A3383
S113121049F4EFE7F3E080812827208386E0809378
S11312207E0343C010927E0340C020938203EFE705
S1131230F3E080812827208380918003823010F09E
S1131240825001C080E0809381031092A30388231D
S113125011F087E001C088E080937E0326C080916E
S1131260A303803228F4E82FF0E0ED57FC4F2083ED
S11312708F5F8093A303EFE7F3E090812927208316
S113128090918103891788F088E080937E030DC0D4
S113129080917F03281307C040E060E070E08091F4
S11312A082030E94540310927E0380917D03C8132D
S11312B059CFCF910895FC0171836083428380E408
S11312C094E094838383DB018C9121E030E002C0BD
S11312D0220F331F4A95E2F7209528232C938091FF
S11312E01402833058F4A82FB0E0AA0FBB1FAB5EE2
S11312F0BD4FED93FC938F5F809314028091140291
S1131300813079F4EFE6F0E080818260808380911F
S11313108400909185008C599F4F9093890080930D
S113132088000895CF93DF93EC01653B08F064EBEC
S1131330262F30E0A0E8BEE00E947F0A24EB30E0D4
S113134040E050E00E94570A205C3B4F3C832B83D3
S1131350DF91CF9108951F920F920FB60F9211242F
S11313602F933F934F935F938F939F93AF93BF9329
S1131370EF93FF9380911402882309F489C020918C
S11313801302E22FE695422F50E090E0880F991F58
S1131390481759070CF05BC020FD2AC0F0E0EE0F9F
S11313A0FF1FEB5EFD4F0190F081E02DA081B18124
S11313B02C9181E090E0028002C0880F991F0A946A
S11313C0E2F7822B8C9383819481E8E8F0E020811A
S11313D03181280F391F31832083209111023091EC
S11313E01202820F931F909312028093110229C05C
S11313F0F0E0EE0FFF1FEB5EFD4FA081B181ED9198
S1131400FC911197208181E090E012960C9002C02B
S1131410880F991F0A94E2F7809582238083E8E875
S1131420F0E0808191818C599F4F918380838091DA
S11314301102909112028C599F4F90931202809343
S11314401102809113028F5F8093130221C02091B7
S113145011023091120220348CE9380758F4E8E87C
S1131460F0E080819181821B930B805C9346918391
S1131470808308C0E8E8F0E0808191818C599F4F17
S1131480918380831092130210921202109211021F
S1131490FF91EF91BF91AF919F918F915F914F9188
S11314A03F912F910F900FBE0F901F901895A1E2BE
S11314B01A2EAA1BBB1BFD010DC0AA1FBB1FEE1FCA
S11314C0FF1FA217B307E407F50720F0A21BB30B15
S11314D0E40BF50B661F771F881F991F1A9469F791
S11314E060957095809590959B01AC01BD01CF01ED
S11314F00895EE0FFF1F0590F491E02D0994A29F2B
S1131500B001B39FC001A39F700D811D1124911DD3
S1131510B29F700D811D1124911D0895F894FFCF81
S1131520010101010101010026000300002600025F
S11315300000260001000026000000554E45523AE6
S1131540436D645F556E6B6E6F776E0A000D0A5BB8
S1131550215D2053544F503A2043696E74612064D6
S11315606574656E6964612E0D0A000D0A5B3F5D4A
S11315702053544F502069676E6F7261646F3A2034
S11315804E6F2068617920636F6E6578696F6E2095
S11315906163746976612E0D0A000D0A5B215D207A
S11315A0524553455420494E54454752414C3A20E4
S11315B0536F66747761726520792048617264772D
S11315C0617265206C696D70696F732E0D0A000D70
S11315D00A2D2D2D2045535441444F20444520438A
S11315E0494E5441202D2D2D0D0A0051303A205BD7
S11315F0005D0D0A0051313A205B0051323A205B04
S113160000F00A0140140150260151200152370212
S10F161053AC01543D015E3E015F6901D2
S9030000FC
