S01D0000436F6D756E69636163696F6E53696D7543696E74612E73726563A2
S11300000C943D000C945A000C945A000C945A0021
S11300100C945A000C945A000C945A000C945A00F4
S11300200C945A000C945A000C945A000C94A20894
S11300300C945A000C9464050C943F050C945A00DB
S11300400C945A000C945A000C944E070C947707A5
S11300500C945A000C945A000C945A000C945A00B4
S11300600C945A000C945A00C007C907D707E50737
S1130070F307FE070C0826083F0811241FBECFEF24
S1130080D8E0DEBFCDBF11E0A0E0B1E0EEE0F3E1E7
S113009002C005900D92AA3FB107D9F724E0AAEF58
S11300A0B1E001C01D92A13AB207E1F70E94150622
S11300B00C9485090C940000FC018081811112C00C
S11300C0A181B28111962C91119781E090E0038077
S11300D002C0880F991F0A94E2F780958223119633
S11300E08C9308958130C9F437B181E090E0AC017C
S11300F0048002C0440F551F0A94E2F7242F209570
S1130100232327B9AEE7B0E02C91048002C0880F06
S1130110991F0A94E2F7822B8C930895FC01808145
S113012081110FC0A181B2812C9130E0C9010380FB
S113013002C0959587950A94E2F780FF04C081E098
S1130140089580E0089580E008950F931F93CF935E
S1130150DF93EC018E818230B9F018F4813031F0F4
S113016054C0833049F18430B1F14FC0E881F98142
S113017081E00995EC81FD8109956F8378878987F2
S11301809A8782E08E8341C0EC81FD8109950F81BD
S1130190188529853A85DC01CB01801B910BA20BC4
S11301A0B30B0A97A105B10580F1E881F98180E0DC
S11301B0099583E08E8329C0EA81FB81099581300A
S11301C021F5EC81FD8109956F83788789879A876A
S11301D084E08E831AC0EA81FB810995811115C0E0
S11301E0EC81FD8109950F81188529853A85601B6D
S11301F0710B820B930B2AE330E040E050E00E9445
S11302004E093C872B8785E08E83DF91CF911F9128
S11302100F91089580917E038D3031F481E08093B5
S11302200E0280933B02089581E080933E0208957C
S113023080917F03EDE5F2E08083809180038183E8
S113024080918103828382E080930E02089581E08D
S113025080930E02089580917E038D3019F41092DC
S11302600E02089581E080933E0208950895089552
S113027010923F0260E01CC0F901E258FC4F20815B
S1130280FC01E258FC4F80816E5F813089F421309B
S113029041F018F0223049F00BC081E08093330222
S11302A007C081E08093340203C081E0809335026B
S11302B0262F30E0C901019640917C0350E0841759
S11302C09507D4F20895E2E3F2E0158680917E0367
S11302D08093020281E080830895882321F08BB10A
S11302E080688BB908958BB18F778BB9089589B1E4
S11302F086FB882780F90895209184003091850039
S11303008091FE019091FF01A901481B590B809136
S1130310FA019091FB01A091FC01B091FD01840FC1
S1130320951FA11DB11D8093FA019093FB01A09329
S1130330FC01B093FD013093FF012093FE01BC0149
S1130340CD01969587957795679508950F931F939B
S1130350CF93DF9300D0CDB7DEB7833090F5062F6F
S1130360182F662371F090E09C01220F331F220F97
S1130370331F820F931F60E0825B9D4F0E948908A8
S11303800DC090E09C01220F331F220F331F820FF8
S1130390931F62E8825B9D4F0E94890881E090E090
S11303A002C0880F991F1A95E2F78983011101C0D1
S11303B080E08A8342E0BE016F5F7F4F82E50E9446
S11303C0D7060F900F90DF91CF911F910F91089551
S11303D00F931F93CF93C0E07AC08C2F90E0FC0161
S11303E0EE0FFF1FEE0FFF1FE80FF91FED5DFD4F2E
S11303F02081213019F02230E9F168C040910A02CD
S113040050910B0260910C0270910D02FC01EE0FF1
S1130410FF1FEE0FFF1FE80FF91FED5DFD4F018178
S1130420128123813481401B510B620B730B403AC0
S113043051056105710508F449C0FC01EE0FFF1F69
S1130440EE0FFF1F8E0F9F1FFC01ED5DFD4F82E03D
S1130450808380910A0290910B02A0910C02B091CA
S11304600D0281839283A383B48360E08C2F0E9466
S1130470A6012CC040910A0250910B0260910C021B
S113048070910D02FC01EE0FFF1FEE0FFF1FE80F2E
S1130490F91FED5DFD4F0181128123813481401BE1
S11304A0510B620B730B403A51056105710570F0F5
S11304B0FC01EE0FFF1FEE0FFF1F8E0F9F1FFC01AD
S11304C0ED5DFD4F108288B18D7F88B9CF5FC33059
S11304D008F483CFCF911F910F91089580913E022C
S11304E0882329F010923E0283E080930E028091CB
S11304F03B02882341F010923B0240E060E070E050
S113050080E50E94D70680913C02882341F0109236
S11305103C0240E060E070E081E50E94D7068091F3
S11305203D02882341F010923D0240E060E070E01B
S113053083E50E94D706089590E01CC0292F30E07F
S1130540F901EE0FFF1FE20FF31FEF51FE4F408141
S113055048130FC0F901EE0FFF1F2E0F3F1FF901C3
S1130560EF51FE4F0180F281E02D309749F009955B
S113057008959F5F983010F38BE191E00E94CA06C2
S1130580089580910E02813011F130F0823019F11A
S1130590833009F44FC0089560910A0270910B02F0
S11305A080910C0290910D0220ED37E040E050E084
S11305B00E944E09643671058105910520F485B1C8
S11305C0806285B9089585B18F7D85B9089585B117
S11305D0806285B9089580910A0290910B02A091DE
S11305E00C02B0910D0240910602509107026091F5
S11305F0080270910902841B950BA60BB70B843675
S11306009105A105B10508F442C095B180E289279E
S113061085B980910A0290910B02A0910C02B091CD
S11306200D028093060290930702A0930802B093F0
S11306300902089580910A0290910B02A0910C0284
S1130640B0910D0240910602509107026091080298
S113065070910902841B950BA60BB70B843F914044
S1130660A105B105A0F095B180E2892785B98091F3
S11306700A0290910B02A0910C02B0910D0280939A
S1130680060290930702A0930802B093090208950A
S1130690CF938FEA91E00E94CA068BEC91E00E940E
S11306A0CA06C0E014C0EC2FF0E0E05CFD4F80818E
S11306B0882321F08A3021F0805D03C08DE201C0DF
S11306C088E50E94B20680E20E94B206CF5FCA307B
S11306D050F381ED91E00E94CA0685ED91E00E94FD
S11306E0CA06C0E014C0EC2FF0E0E359FD4F80814E
S11306F0882321F08A3021F0805D03C08DE201C09F
S113070088E50E94B20680E20E94B206CF5FCA303A
S113071050F381ED91E00E94CA068BED91E00E94B6
S1130720CA06C0E014C0EC2FF0E0E75EFD4F808104
S1130730882321F08A3021F0805D03C08DE201C05E
S113074088E50E94B20680E20E94B206CF5FCA30FA
S113075050F3CF910895809132028823C1F08091A3
S11307603602811114C0809105028A3080F4E9E0D8
S1130770F0E0E81BF109E05CFD4F909102029083E8
S11307808F5F80930502109232020E944803809189
S113079033028823A1F180913602811130C0109276
S11307A0330280910502882351F18091490290918E
S11307B05D02891315C0E3E2F2E081E08083809159
S11307C00A0290910B02A0910C02B0910D02818358
S11307D09283A383B48361E080E00E94A60105C0F4
S11307E08093010281E08093390210924902809142
S11307F0050281508093050281E080933602809146
S113080039028823B1F080913702811112C080919E
S113081004028A3070F4E9E0F0E0E81BF1099091F9
S11308200102E359FD4F90838F5F8093040210927D
S11308303902809134028823A1F180913702811119
S113084030C01092340280910402882351F18091C7
S1130850760290915E02891315C0E3E2F2E081E032
S1130860858380910A0290910B02A0910C02B091B1
S11308700D0286839783A087B18761E081E00E949F
S1130880A60105C08093000281E080933A02109291
S113089076028091040281508093040281E0809367
S11308A0370280913A028823B1F080913802811195
S11308B012C0809103028A3070F4E9E0F0E0E81B92
S11308C0F10990910002E75EFD4F90838F5F809362
S11308D0030210923A0280913502882371F18091CB
S11308E0380281112AC010923502809103028823B4
S11308F021F19091220280915F02981314C0E3E2E7
S1130900F2E081E0828780910A0290910B02A0912B
S11309100C02B0910D0283879487A587B68761E0A6
S113092082E00E94A601109222028091030281506B
S11309308093030281E080933802809136028823F9
S1130940F1F080910601282F30E0EAE0F0E0E21BAC
S1130950F30BA9E0B0E0A21BB30BA05CBD4F9C91CC
S1130960E05CFD4F90838F5F809306018A3039F4F9
S1130970109240021092360281E080930601809129
S113098037028823F1F080910501282F30E0EAE056
S1130990F0E0E21BF30BA9E0B0E0A21BB30BA359F8
S11309A0BD4F9C91E359FD4F90838F5F8093050168
S11309B08A3039F410926D021092370281E08093EC
S11309C00501809138028823F1F080910401282FD9
S11309D030E0EAE0F0E0E21BF30BA9E0B0E0A21B98
S11309E0B30BA75EBD4F9C91E75EFD4F90838F5F75
S11309F0809304018A3039F410921902109238025B
S1130A0081E080930401089582E08093C00080E136
S1130A1090E09093C5008093C40086E08093C20068
S1130A2088E98093C100089584B1806284B984B157
S1130A30887F84B985B1876085B987B1807F87B99C
S1130A4088B1807F88B98AB18C618AB98AB18F7B79
S1130A508AB98AB180688AB9089582E084BD94E035
S1130A6095BD9CE797BD80936E0008951092800019
S1130A7082E08093810081E080936F0008951F924B
S1130A800F920FB60F9211248F939F93AF93BF933E
S1130A9080910A0290910B02A0910C02B0910D0278
S1130AA00296A11DB11D80930A0290930B02A0939C
S1130AB00C02B0930D02BF91AF919F918F910F9053
S1130AC00FBE0F901F9018951F920F920FB60F92A2
S1130AD011240F900FBE0F901F90189580916602FD
S1130AE08823D9F080910A0290910B02A0910C0204
S1130AF0B0910D0240914A0250914B0260914C0218
S1130B0070914D02841B950BA60BB70B853691058E
S1130B10A105B10510F01092660286E191E00E94F1
S1130B208E0090913F029923E9F081111BC09091AE
S1130B3003019130B9F490916602911113C091E0D0
S1130B409093660240910A0250910B0260910C024C
S1130B5070910D0240934A0250934B0260934C02F1
S1130B6070934D028093030180E692E00E94A500F9
S1130B7080916602853049F580916B0290916C02F8
S1130B809C01235031092430310538F486E08093E8
S1130B90020281E08093320216C09C012750310981
S1130BA02230310538F488E08093020281E080939A
S1130BB0320209C00997029730F48AE08093020256
S1130BC081E08093320210926602089580913F0280
S1130BD0882351F181E191E00E948E00811106C0C9
S1130BE090910201913011F49093330280930201A9
S1130BF08CE091E00E948E00811106C09091010169
S1130C00913011F4909334028093010187E091E0D4
S1130C100E948E00811106C090910001913011F460
S1130C2090933502809300010895F8940E9414056E
S1130C300E9404050E942D050E9436050E94A70605
S1130C40E2E3F2E01482158216821186128613867C
S1130C50148620E012C0822F90E0FC01EE0FFF1FEB
S1130C60EE0FFF1F8E0F9F1FFC01ED5DFD4F1082E5
S1130C7011821282138214822F5F233060F342E0C8
S1130C806BE270E08EE492E00E94520843E06BE273
S1130C9070E083E592E00E94520844E06BE270E069
S1130CA088E592E00E945208C0E00FC08C2F90E0CB
S1130CB09C01220F331F220F331F820F931F62E800
S1130CC0825B9D4F0E948908CF5FC33078F31092F6
S1130CD04A0210924B0210924C0210924D02E0E62E
S1130CE0F2E08DE691E09183808387E791E093833E
S1130CF082838CE791E095838483168286E191E078
S1130D000E945C0081E191E00E945C008CE091E033
S1130D100E945C0087E091E00E945C008BB18F77B9
S1130D208BB9789440E060E070E080EF0E94D706D1
S1130D300E94A5070E946E020E94E8010E94C1025F
S1130D400E94AB030E946E050E94E605F1CF10924B
S1130D507703109278031092790310929F041092F3
S1130D60A004089590919F049F5F2091A00492177E
S1130D7081F0AFE9B4E0EC91F0E0E156FC4F808300
S1130D809C939FB7F894E1ECF0E0808180628083CB
S1130D909FBF0895CF93DF93EC0103C021960E9477
S1130DA0B20688818111FACFDF91CF910895BF9265
S1130DB0CF92DF92EF92FF920F931F93CF93DF9323
S1130DC000D000D0CDB7DEB7C82E7B01D42E85E588
S1130DD089838EE48A8385E48B8382E58C8368949B
S1130DE0BB24B1F8B40E80E000E009C0E1E0F0E01B
S1130DF0EC0FFD1FE80FF11D908109278F5F8430F0
S1130E00A8F30B258AE308270C25E114F10469F003
S1130E10D11008C00AC0F701E80FF11D908109271D
S1130E208F5F01C080E08D15B0F310E00AC0E1E0EF
S1130E30F0E0EC0FFD1FE10FF11D80810E94B2066E
S1130E401F5F1430A0F38B2D0E94B2068AE30E9428
S1130E50B2068C2D0E94B206E114F10471F0D11097
S1130E6009C00BC0F701E10FF11D80810E94B20699
S1130E701F5F01C010E01D15A8F3802F0E94B20669
S1130E800F900F900F900F90DF91CF911F910F91C2
S1130E90FF90EF90DF90CF90BF9008951F920F9234
S1130EA00FB60F9211242F938F939F93AF93BF93F9
S1130EB0EF93FF932091C600809177038F5F909109
S1130EC07803891741F0A7E7B3E0EC91F0E0E95823
S1130ED0FD4F20838C93FF91EF91BF91AF919F9130
S1130EE08F912F910F900FBE0F901F9018951F9206
S1130EF00F920FB60F9211248F939F93AF93BF93CA
S1130F00EF93FF939091A00480919F04981769F048
S1130F10A0EAB4E0EC91F0E0E156FC4F80818093CC
S1130F20C6008C918F5F8C9305C0E1ECF0E080816A
S1130F308F7D8083FF91EF91BF91AF919F918F91AE
S1130F400F900FBE0F901F901895CF93C091770309
S1130F50A3C0A8E7B3E0EC91F0E0E958FD4F20818D
S1130F608C918F5F8C93E09179038E2F90E0893080
S1130F70910508F091C0FC01EC5CFF4F0C947009E2
S1130F80253509F089C020937A0381E080937903A1
S1130F9083C02E3449F4EAE7F3E0808128272083D4
S1130FA082E08093790378C01092790375C0253468
S1130FB049F4EAE7F3E080812827208383E08093E3
S1130FC079036AC01092790367C0223549F4EAE7CD
S1130FD0F3E080812827208384E0809379035CC038
S1130FE01092790359C020937B03EAE7F3E08081F0
S1130FF02827208385E0809379034EC02A3349F45F
S1131000EAE7F3E080812827208386E08093790350
S113101043C01092790340C020937D03EAE7F3E0D4
S113102080812827208380917B03823010F08250B6
S113103001C080E080937C0310929E03882311F00A
S113104087E001C088E08093790326C080919E03E5
S1131050803228F4E82FF0E0E258FC4F20838F5FC1
S113106080939E03EAE7F3E09081292720839091FF
S11310707C03891788F088E0809379030DC0809100
S11310807A03281307C040E060E070E080917D039C
S11310900E949C021092790380917803C81359CF5F
S11310A0CF910895FC0171836083428380E494E0CE
S11310B094838383DB018C9121E030E002C0220F12
S11310C0331F4A95E2F7209528232C93809112022E
S11310D0833058F4A82FB0E0AA0FBB1FAD5EBD4FFC
S11310E0ED93FC938F5F8093120280911202813002
S11310F079F4EFE6F0E0808182608083809184005F
S1131100909185008C599F4F90938900809388001B
S11311100895CF93DF93EC01653B08F064EB262F31
S113112030E0A0E8BEE00E94760924EB30E040E025
S113113050E00E944E09205C3B4F3C832B83DF919F
S1131140CF9108951F920F920FB60F9211242F93EF
S11311503F934F935F938F939F93AF93BF93EF937B
S1131160FF9380911202882309F489C0209111020F
S1131170E22FE695422F50E090E0880F991F481720
S113118059070CF05BC020FD2AC0F0E0EE0FFF1FF2
S1131190ED5EFD4F0190F081E02DA081B1812C9195
S11311A081E090E0028002C0880F991F0A94E2F760
S11311B0822B8C9383819481E8E8F0E02081318153
S11311C0280F391F3183208320910F0230911002A0
S11311D0820F931F9093100280930F0229C0F0E0B6
S11311E0EE0FFF1FED5EFD4FA081B181ED91FC91EB
S11311F01197208181E090E012960C9002C0880F34
S1131200991F0A94E2F7809582238083E8E8F0E04E
S1131210808191818C599F4F9183808380910F02AB
S1131220909110028C599F4F9093100280930F025B
S1131230809111028F5F8093110221C020910F02CF
S11312403091100220348CE9380758F4E8E8F0E0D3
S113125080819181821B930B805C93469183808370
S113126008C0E8E8F0E0808191818C599F4F918318
S11312708083109211021092100210920F02FF91BB
S1131280EF91BF91AF919F918F915F914F913F915A
S11312902F910F900FBE0F901F901895A1E21A2E58
S11312A0AA1BBB1BFD010DC0AA1FBB1FEE1FFF1F06
S11312B0A217B307E407F50720F0A21BB30BE40B56
S11312C0F50B661F771F881F991F1A9469F760959D
S11312D07095809590959B01AC01BD01CF01089557
S11312E0EE0FFF1F0590F491E02D0994A29FB00129
S11312F0B39FC001A39F700D811D1124911DB29F46
S1111300700D811D1124911D0895F894FFCFE6
S113130E0101010101010100260003000026000273
S113131E0000260001000026000000554E45523AFA
S113132E436D645F556E6B6E6F776E0A000D0A5BCC
S113133E215D2053544F503A2043696E74612064EA
S113134E6574656E6964612E0D0A000D0A5B3F5D5E
S113135E2053544F502069676E6F7261646F3A2048
S113136E4E6F2068617920636F6E6578696F6E20A9
S113137E6163746976612E0D0A000D0A5B215D208E
S113138E524553455420494E54454752414C3A20F8
S113139E536F667477617265207920486172647741
S11313AE617265206C696D70696F732E0D0A000D84
S11313BE0A2D2D2D2045535441444F20444520439E
S11313CE494E5441202D2D2D0D0A0051303A205BEB
S11313DE005D0D0A0051313A205B0051323A205B18
S11313EE00F00A01501801512701523601532B0106
S10D13FE5437015E38015F630100FB
S9030000FC
