S01D0000436F6D756E69636163696F6E53696D7543696E74612E73726563A2
S11300000C943D000C945A000C945A000C945A0021
S11300100C945A000C945A000C945A000C945A00F4
S11300200C945A000C945A000C945A000C94A9098C
S11300300C945A000C94CA050C9480050C945A0034
S11300400C945A000C945A000C9455080C947E0895
S11300500C945A000C945A000C945A000C945A00B4
S11300600C945A000C945A00C708D008DE08EC0817
S1130070FA08050913092D09460911241FBECFEFFB
S1130080D8E0DEBFCDBF12E0A0E0B1E0ECE1F5E1E5
S113009002C005900D92A233B107D9F724E0A2E380
S11300A0B2E001C01D92A23EB207E1F70E941F0711
S11300B00C948C0A0C940000CF93DF93FC01DB01B9
S11300C08C91482381E009F480E0918189131FC059
S11300D08081893018F48F5F80831BC08930C9F414
S11300E0EF01411109C081E082830380F481E02D96
S11300F0309749F0099507C012820580F681E02DFA
S1130100309709F0099588818F5F888302C0108237
S11301108183DF91CF9108950F931F93CF93DF9342
S1130120EC018E818230B9F018F4813031F054C082
S1130130833049F18430B1F14FC0E881F98181E025
S11301400995EC81FD8109956F83788789879A8762
S113015082E08E8341C0EC81FD8109950F81188571
S113016029853A85DC01CB01801B910BA20BB30BD3
S11301700A97A105B10580F1E881F98180E009952C
S113018083E08E8329C0EA81FB810995813021F5C2
S1130190EC81FD8109956F83788789879A8784E04C
S11301A08E831AC0EA81FB810995811115C0EC8107
S11301B0FD8109950F81188529853A85601B710B8E
S11301C0820B930B2AE330E040E050E00E94550A92
S11301D03C872B8785E08E83DF91CF911F910F9110
S11301E008958091BF038D3031F481E080934B02F8
S11301F080937D02089581E0809380020895809128
S1130200C003EEE9F2E080838091C1038183809191
S1130210C203828382E080934B02089581E080933D
S11302204B0208958091BF038D3019F410924B0254
S1130230089581E08093800208950895089560E010
S11302401CC0F901E154FC4F2081FC01E154FC4F36
S113025080816E5F813089F4213041F018F02230C2
S113026049F00BC081E08093750207C081E0809360
S1130270760203C081E080937702262F30E0C90123
S113028001964091BD0350E084179507D4F2089578
S11302908091BF0380933E0281E0809374020895AD
S11302A0882321F08BB180688BB908958BB18F7747
S11302B08BB9089589B186FB882780F90895209128
S11302C084003091850080913A0290913B02A9010B
S11302D0481B590B8091360290913702A091380245
S11302E0B0913902840F951FA11DB11D8093360270
S11302F090933702A0933802B093390230933B02B3
S113030020933A02BC01CD01969587957795679520
S1130310089540E060E070E080EF0E94DE0781E035
S1130320809374020895CF93DF9300D0CDB7DEB7E6
S113033080914B02823021F080914B028130C1F4D4
S113034040E060E070E081E50E94DE0787E0898399
S11303501A8242E0BE016F5F7F4F82E50E94DE0792
S113036081E080934B0286E391E00E94D10704C0B0
S113037084E591E00E94D1070F900F90DF91CF9117
S1130380089540E060E070E083E50E94DE078AE0C3
S1130390E1E8F2E0DF01982F1D929A95E9F7EEEA81
S11303A0F2E0DF01982F1D929A95E9F7EBE5F2E070
S11303B0DF011D928A95E9F71092410210924002E2
S11303C010923F0210923E0210923D0210923C02A3
S11303D0E4E7F2E010821182128213821482158201
S11303E016821782108680E011C0E82FF0E09F018A
S11303F0220F331F220F331FE20FF31FEB59FD4F60
S1130400108211821282138214828F5F833068F308
S113041010924B0283E891E00E94D10708950F9354
S11304201F93CF93DF9300D0CDB7DEB7833090F521
S1130430062F182F662371F090E09C01220F331FC2
S1130440220F331F820F931F60E081579D4F0E943C
S113045090090DC090E09C01220F331F220F331F1F
S1130460820F931F62E881579D4F0E94900981E09B
S113047090E002C0880F991F1A95E2F78983011151
S113048001C080E08A8342E0BE016F5F7F4F82E556
S11304900E94DE070F900F90DF91CF911F910F9173
S11304A008950F931F93CF93C0E07AC08C2F90E0F0
S11304B0FC01EE0FFF1FEE0FFF1FE80FF91FEB59B2
S11304C0FD4F2081213019F02230E9F168C04091BC
S11304D04702509148026091490270914A02FC011E
S11304E0EE0FFF1FEE0FFF1FE80FF91FEB59FD4F33
S11304F00181128123813481401B510B620B730BE8
S1130500403A51056105710508F449C0FC01EE0F3C
S1130510FF1FEE0FFF1F8E0F9F1FFC01EB59FD4FB6
S113052082E080838091470290914802A091490221
S1130530B0914A0281839283A383B48360E08C2FB9
S11305400E940F022CC040914702509148026091D2
S1130550490270914A02FC01EE0FFF1FEE0FFF1FCC
S1130560E80FF91FEB59FD4F01811281238134817A
S1130570401B510B620B730B403A51056105710529
S113058070F0FC01EE0FFF1FEE0FFF1F8E0F9F1F79
S1130590FC01EB59FD4F108288B18D7F88B9CF5F84
S11305A0C33008F483CFCF911F910F9108958091A8
S11305B08002882329F01092800283E080934B020A
S11305C080917D02882341F010927D0240E060E03A
S11305D070E080E50E94DE0780917E02882341F06E
S11305E010927E0240E060E070E081E50E94DE0748
S11305F080917F02882341F010927F0240E060E006
S113060070E083E50E94DE07089590E01CC0292F66
S113061030E0F901EE0FFF1FE20FF31FE75EFD4F1D
S1130620408148130FC0F901EE0FFF1F2E0F3F1F2B
S1130630F901E75EFD4F0180F281E02D309749F02A
S1130640099508959F5F983010F388EB91E00E941C
S1130650D107089580914B028130F9F018F082306F
S113066001F1089560914702709148028091490216
S113067090914A0220ED37E040E050E00E94550A94
S1130680643671058105910520F488B1816088B9CB
S1130690089588B18E7F88B9089588B1816088B93A
S11306A008958091470290914802A0914902B09127
S11306B04A02409142025091430260914402709177
S11306C04502841B950BA60BB70B84369105A10537
S11306D0B105A0F098B181E0892788B980914702DB
S11306E090914802A0914902B0914A02809342023B
S11306F090934302A0934402B09345020895CF938C
S11307008AEC91E00E94D10786EE91E00E94D10725
S1130710C0E014C0EC2FF0E0EF57FD4F8081882338
S113072021F08A3021F0805D03C08DE201C088E5AC
S11307300E94B90780E20E94B907CF5FCA3050F324
S11307408CEE91E00E94D10780EF91E00E94D107E6
S1130750C0E014C0EC2FF0E0E255FD4F8081882307
S113076021F08A3021F0805D03C08DE201C088E56C
S11307700E94B90780E20E94B907CF5FCA3050F3E4
S11307808CEE91E00E94D10786EF91E00E94D107A0
S1130790C0E014C0EC2FF0E0E55AFD4F80818823BF
S11307A021F08A3021F0805D03C08DE201C088E52C
S11307B00E94B90780E20E94B907CF5FCA3050F3A4
S11307C08CEF91E00E94D107CF910895809174023B
S11307D08823C1F080917802811114C08091410274
S11307E08A3080F4E9E0F0E0E81BF109EF57FD4FAF
S11307F090913E0290838F5F809341021092740225
S11308000E947F03809175028823A1F18091780270
S1130810811130C01092750280914102882351F1F8
S113082080918A0290919E02891315C0E5E6F2E058
S113083081E080838091470290914802A09149020F
S1130840B0914A0281839283A383B48361E080E000
S11308500E940F0205C080933D0281E080937B02D9
S113086010928A028091410281508093410281E07A
S11308708093780280917B028823B1F08091790281
S1130880811112C0809140028A3070F4E9E0F0E0F6
S1130890E81BF10990913D02E255FD4F90838F5F73
S11308A08093400210927B02809176028823A1F10A
S11308B080917902811130C01092760280914002B9
S11308C0882351F18091B70290919F02891315C03A
S11308D0E5E6F2E081E08583809147029091480249
S11308E0A0914902B0914A0286839783A087B18779
S11308F061E081E00E940F0205C080933C0281E028
S113090080937C021092B7028091400281508093C0
S1130910400281E08093790280917C028823B1F0C7
S113092080917A02811112C080913F028A3070F462
S1130930E9E0F0E0E81BF10990913C02E55AFD4F33
S113094090838F5F80933F0210927C0280917702A4
S1130950882371F180917A0281112AC01092770262
S113096080913F02882321F1909164028091A0023A
S1130970981314C0E5E6F2E081E082878091470293
S113098090914802A0914902B0914A0283879487CA
S1130990A587B68761E082E00E940F02109264028C
S11309A080913F02815080933F0281E080937A02DC
S11309B080917802882301F180910201282F30E090
S11309C0EAE0F0E0E21BF30BA9E0B0E0A21BB30BFA
S11309D0AF57BD4F9C91EF57FD4F90838F5F80932E
S11309E002018A3049F4109281021092780281E067
S11309F0809302010E947F0380917902882301F190
S1130A0080910101282F30E0EAE0F0E0E21BF30BD3
S1130A10A9E0B0E0A21BB30BA255BD4F9C91E255D7
S1130A20FD4F90838F5F809301018A3049F41092C7
S1130A30AE021092790281E0809301010E947F034B
S1130A4080917A02882301F180910001282F30E0FF
S1130A50EAE0F0E0E21BF30BA9E0B0E0A21BB30B69
S1130A60A55ABD4F9C91E55AFD4F90838F5F8093AB
S1130A7000018A3049F410925B0210927A0281E0FC
S1130A80809300010E947F03089582E08093C00058
S1130A9080E190E09093C5008093C40086E0809349
S1130AA0C20088E98093C100089584B1806284B94A
S1130AB087B1836087B988B18C7F88B987B1837E19
S1130AC087B988B18C6188B98AB18C618AB98AB1D5
S1130AD08F7B8AB98AB180688AB9089582E084BD1F
S1130AE094E095BD9CE797BD80936E0008951092A5
S1130AF0800082E08093810081E080936F000895FC
S1130B001F920F920FB60F9211242F933F934F937E
S1130B105F936F937F938F939F93AF93BF93EF9361
S1130B20FF938091470290914802A0914902B091AD
S1130B304A020296A11DB11D809347029093480278
S1130B40A0934902B0934A0244E066E270E081E176
S1130B5091E00E945C0048E066E270E08AE091E087
S1130B600E945C0040E166E270E083E091E00E9454
S1130B705C00FF91EF91BF91AF919F918F917F9115
S1130B806F915F914F913F912F910F900FBE0F90F6
S1130B901F9018951F920F920FB60F9211248F93E6
S1130BA09F93809146028F5F809346028E3130F08E
S1130BB095B180E2892785B9109246029F918F9161
S1130BC00F900FBE0F901F9018958091A702882355
S1130BD0D9F08091470290914802A0914902B091C6
S1130BE04A0240918B0250918C0260918D02709167
S1130BF08E02841B950BA60BB70B85369105A105B8
S1130C00B10510F01092A70280914702909148021A
S1130C10A0914902B0914A0240918B0250918C02FA
S1130C2060918D0270918E02841B950BA60BB70BFD
S1130C30843F9140A105B105B8F08091A7028111CC
S1130C4013C081E08093A7028091470290914802EB
S1130C50A0914902B0914A0280938B0290938C0236
S1130C60A0938D02B0938E0281EA92E00E948C00E0
S1130C708091A702853009F03FC08091AC02909129
S1130C80AD029C01235031092430310538F486E04B
S1130C9080933E0281E08093740216C0AC014750F9
S1130CA051094230510538F488E080933E0281E0D6
S1130CB08093740209C00997029730F48AE0809304
S1130CC03E0281E0809374022830310598F481E07B
S1130CD0809350028091470290914802A09149026A
S1130CE0B0914A0280934C0290934D02A0934E021D
S1130CF0B0934F021092A7020895CF93DF93AC01F3
S1130D00E1ECF0E0708180818F77808320E014C073
S1130D109091B8039F5F3091B903931761F0A8EBEA
S1130D20B3E0EC91F0E0EA01C20FD11D3881E85440
S1130D30FD4F30839C932F5F261750F37093C100AF
S1130D40DF91CF910895CF93DF93CDB7DEB72A9784
S1130D500FB6F894DEBF0FBECDBF809147029091CD
S1130D604802A0914902B0914A0240913202509146
S1130D7033026091340270913502841B950BA60BEB
S1130D80B70B8C3D9540A105B10508F44FC0809187
S1130D904102882389F08AE0E8E1F1E0DE0111965E
S1130DA001900D928A95E1F76AE0CE0101960E94C6
S1130DB07D0681E08093750280914002882389F04A
S1130DC08AE0E2E2F1E0DE01119601900D928A954B
S1130DD0E1F76AE0CE0101960E947D0681E08093EE
S1130DE0760280913F02882389F08AE0ECE2F1E008
S1130DF0DE01119601900D928A95E1F76AE0CE0129
S1130E0001960E947D0681E08093770280914702DB
S1130E1090914802A0914902B0914A028093320213
S1130E2090933302A0933402B09335022A960FB6FE
S1130E30F894DEBF0FBECDBFDF91CF910895F89433
S1130E400E9455050E9445050E946E050E94770583
S1130E500E94AE07E4E7F2E014821582168211863E
S1130E6012861386148620E012C0822F90E0FC01C3
S1130E70EE0FFF1FEE0FFF1F8E0F9F1FFC01EB599C
S1130E80FD4F108211821282138214822F5F23304D
S1130E9060F3EEE9F2E010821182128242E06BE22A
S1130EA070E08FE892E00E94590943E06BE270E041
S1130EB084E992E00E94590944E06BE270E089E918
S1130EC092E00E945909C0E00FC08C2F90E09C0171
S1130ED0220F331F220F331F820F931F62E88157A3
S1130EE09D4F0E949009CF5FC33078F310928B021C
S1130EF010928C0210928D0210928E02E1EAF2E0BE
S1130F0080E591E0918380838AE591E093838283F5
S1130F108FE591E09583848316828BB18F778BB9AB
S1130F20EEE9F2E088E0808386E081838AE08283D0
S1130F30789440E060E070E080EF0E94DE070E9459
S1130F40AC080E94D7020E9451020E942A030E9408
S1130F50E6030E94E5050E94A306F1CF1092B803B0
S1130F601092B9031092BA031092E0041092E104B3
S1130F7008959091E0049F5F2091E104921781F01D
S1130F80A0EEB4E0EC91F0E0E052FC4F80839C933F
S1130F909FB7F894E1ECF0E08081806280839FBF8A
S1130FA00895CF93DF93EC0103C021960E94B90703
S1130FB088818111FACFDF91CF910895BF92CF92AA
S1130FC0DF92EF92FF920F931F93CF93DF9300D0A2
S1130FD000D0CDB7DEB7C82E7B01D42E85E589833A
S1130FE08EE48A8385E48B8382E58C836894BB24B6
S1130FF0B1F8B40E80E000E009C0E1E0F0E0EC0FED
S1131000FD1FE80FF11D908109278F5F8430A8F33D
S11310100B258AE308270C25E114F10469F0D110AB
S113102008C00AC0F701E80FF11D908109278F5FFE
S113103001C080E08D15B0F310E00AC0E1E0F0E0FB
S1131040EC0FFD1FE10FF11D80810E94B9071F5FA6
S11310501430A0F38B2D0E94B9078AE30E94B907CC
S11310608C2D0E94B907E114F10471F0D11009C06C
S11310700BC0F701E10FF11D80810E94B9071F5FCA
S113108001C010E01D15A8F3802F0E94B9070F902E
S11310900F900F900F90DF91CF911F910F91FF90C0
S11310A0EF90DF90CF90BF9008951F920F920FB6EC
S11310B00F9211242F938F939F93AF93BF93EF932A
S11310C0FF932091C6008091B8038F5F9091B9037C
S11310D0891741F0A8EBB3E0EC91F0E0E854FD4F40
S11310E020838C93FF91EF91BF91AF919F918F914A
S11310F02F910F900FBE0F901F9018951F920F9273
S11311000FB60F9211248F939F93AF93BF93EF93D6
S1131110FF939091E1048091E004981769F0A1EEA7
S1131120B4E0EC91F0E0E052FC4F80818093C60083
S11311308C918F5F8C9305C0E1ECF0E080818F7D12
S11311408083FF91EF91BF91AF919F918F910F9009
S11311500FBE0F901F901895CF93C091B803A3C0F2
S1131160A9EBB3E0EC91F0E0E854FD4F20818C91C1
S11311708F5F8C93E091BA038E2F90E089309105B4
S113118008F091C0FC01EC5CFF4F0C94770A253504
S113119009F089C02093BB0381E08093BA0383C024
S11311A02E3449F4EBEBF3E080812827208382E09E
S11311B08093BA0378C01092BA0375C0253449F4F9
S11311C0EBEBF3E080812827208383E08093BA034C
S11311D06AC01092BA0367C0223549F4EBEBF3E01E
S11311E080812827208384E08093BA035CC0109216
S11311F0BA0359C02093BC03EBEBF3E080812827AA
S1131200208385E08093BA034EC02A3349F4EBEB84
S1131210F3E080812827208386E08093BA0343C0CB
S11312201092BA0340C02093BE03EBEBF3E080813D
S1131230282720838091BC03823010F0825001C0A3
S113124080E08093BD031092DF03882311F087E0D0
S113125001C088E08093BA0326C08091DF03803206
S113126028F4E82FF0E0E154FC4F20838F5F809353
S1131270DF03EBEBF3E09081292720839091BD03FA
S1131280891788F088E08093BA030DC08091BB036E
S1131290281307C040E060E070E08091BE030E9424
S11312A005031092BA038091B903C81359CFCF91A3
S11312B00895FC0171836083428380E494E0948305
S11312C08383DB018C9121E030E002C0220F331FC5
S11312D04A95E2F7209528232C9380915402833079
S11312E058F4A82FB0E0AA0FBB1FAB5ABD4FED9323
S11312F0FC938F5F8093540280915402813079F47F
S1131300EFE6F0E080818260808380918400909198
S113131085008C599F4F909389008093880008958D
S1131320CF93DF93EC01653B08F064EB262F30E0AC
S1131330A0E8BEE00E947D0A24EB30E040E050E0EB
S11313400E94550A205C3B4F3C832B83DF91CF9155
S113135008951F920F920FB60F9211242F933F936B
S11313604F935F938F939F93AF93BF93EF93FF93A9
S113137080915402882309F489C020915302E22FFA
S1131380E695422F50E090E0880F991F48175907BF
S11313900CF05BC020FD2AC0F0E0EE0FFF1FEB5AFB
S11313A0FD4F0190F081E02DA081B1812C9181E06D
S11313B090E0028002C0880F991F0A94E2F7822B02
S11313C08C9383819481E8E8F0E020813181280FB7
S11313D0391F318320832091510230915202820FB0
S11313E0931F909352028093510229C0F0E0EE0FB4
S11313F0FF1FEB5AFD4FA081B181ED91FC91119734
S1131400208181E090E012960C9002C0880F991F11
S11314100A94E2F7809582238083E8E8F0E08081F3
S113142091818C599F4F9183808380915102909137
S113143052028C599F4F9093520280935102809193
S113144053028F5F8093530221C020915102309147
S1131450520220348CE9380758F4E8E8F0E080813F
S11314609181821B930B805C93469183808308C097
S1131470E8E8F0E0808191818C599F4F91838083CB
S1131480109253021092520210925102FF91EF9166
S1131490BF91AF919F918F915F914F913F912F9108
S11314A00F900FBE0F901F901895A1E21A2EAA1B41
S11314B0BB1BFD010DC0AA1FBB1FEE1FFF1FA21700
S11314C0B307E407F50720F0A21BB30BE40BF50BFD
S11314D0661F771F881F991F1A9469F76095709586
S11314E0809590959B01AC01BD01CF010895EE0F4D
S11314F0FF1F0590F491E02D0994A29FB001B39FC2
S1131500C001A39F700D811D1124911DB29F700D08
S10F1510811D1124911D0895F894FFCF53
S113151C010101000100C101000000010093010060
S113152C0000010089010000554E4552033A5E004B
S113153C016A554E4552033A5E01016B554E4552B4
S113154C033A5E0201680D0A5B215D2053544F502F
S113155C3A2043696E746120646574656E696461D4
S113156C2E0D0A000D0A5B3F5D2053544F50206929
S113157C676E6F7261646F3A204E6F2068617920D8
S113158C636F6E6578696F6E206163746976612E22
S113159C0D0A000D0A5B215D205245534554204928
S11315AC4E54454752414C3A20536F6674776172DE
S11315BC652079204861726477617265206C696D6D
S11315CC70696F732E0D0A00554E45523A436D6483
S11315DC5F556E6B6E6F776E0A000D0A2D2D2D20E4
S11315EC45535441444F2044452043494E544120D3
S11315FC2D2D2D0D0A0051303A205B005D0D0A0093
S113160C51313A205B0051323A205B005D0D0A2DBA
S113161C2D2D2D2D2D2D2D2D2D2D2D2D2D2D2D2DEA
S113162C2D2D2D2D2D2D0D0A00F0F10050FF005104
S113163C0E01521D01531201541E015E1F015F481D
S105164C010097
S9030000FC
