S01D0000436F6D756E69636163696F6E53696D7543696E74612E73726563A2
S11300000C943D000C945A000C945A000C945A0021
S11300100C945A000C945A000C945A000C945A00F4
S11300200C945A000C945A000C945A000C94A50990
S11300300C945A000C94C6050C947C050C945A003C
S11300400C945A000C945A000C9451080C947A089D
S11300500C945A000C945A000C945A000C945A00B4
S11300600C945A000C945A00C308CC08DA08E80827
S1130070F60801090F092909420911241FBECFEF0F
S1130080D8E0DEBFCDBF12E0A0E0B1E0E4E1F5E1ED
S113009002C005900D92A431B107D9F724E0A4E180
S11300A0B2E001C01D92A43CB207E1F70E941B0715
S11300B00C94880A0C940000CF93DF93FC01DB01BD
S11300C08C91482381E009F480E0918189131FC059
S11300D08081893018F48F5F80831BC08930C9F414
S11300E0EF01411109C081E082830380F481E02D96
S11300F0309749F0099507C012820580F681E02DFA
S1130100309709F0099588818F5F888302C0108237
S11301108183DF91CF9108950F931F93CF93DF9342
S1130120EC018E818230B9F018F4813031F054C082
S1130130833049F18430B1F14FC0E881F98181E025
S11301400995EC81FD8109956F83788789879A8762
S113015082E08E8341C0EC81FD8109950F81188571
S113016029853A85DC01CB01801B910BA20BB30BD3
S11301700A97A105B10580F1E881F98180E009952C
S113018083E08E8329C0EA81FB810995813021F5C2
S1130190EC81FD8109956F83788789879A8784E04C
S11301A08E831AC0EA81FB810995811115C0EC8107
S11301B0FD8109950F81188529853A85601B710B8E
S11301C0820B930B2AE330E040E050E00E94510A96
S11301D03C872B8785E08E83DF91CF911F910F9110
S11301E008958091A1038D3031F481E080932D0234
S11301F080935F02089581E0809362020895809164
S1130200A203E0E8F2E080838091A30381838091DC
S1130210A403828382E080932D02089581E0809379
S11302202D0208958091A1038D3019F410922D02AE
S1130230089581E08093620208950895089560E02E
S11302401CC0F901EF55FC4F2081FC01EF55FC4F18
S113025080816E5F813089F4213041F018F02230C2
S113026049F00BC081E08093570207C081E080937E
S1130270580203C081E080935902262F30E0C9015F
S1130280019640919F0350E084179507D4F2089596
S11302908091A1038093200281E080935602089507
S11302A0882321F08BB180688BB908958BB18F7747
S11302B08BB9089589B186FB882780F90895209128
S11302C084003091850080911C0290911D02A90147
S11302D0481B590B8091180290911902A0911A029F
S11302E0B0911B02840F951FA11DB11D80931802AC
S11302F090931902A0931A02B0931B0230931D022B
S113030020931C02BC01CD0196958795779567953E
S1130310089540E060E070E080EF0E94DA0781E039
S1130320809356020895CF93DF9300D0CDB7DEB704
S113033080912D02823021F080912D028130C1F410
S113034040E060E070E081E50E94DA0787E089839D
S11303501A8242E0BE016F5F7F4F82E50E94DA0796
S113036081E080932D0286E391E00E94CD0704C0D2
S113037084E591E00E94CD070F900F90DF91CF911B
S1130380089540E060E070E083E50E94DA078AE0C7
S1130390E3E6F2E0DF01982F1D929A95E9F7E0E990
S11303A0F2E0DF01982F1D929A95E9F7EDE3F2E070
S11303B0DF011D928A95E9F710922302109222021E
S11303C0109221021092200210921F0210921E021B
S11303D0E6E5F2E010821182128213821482158201
S11303E016821782108680E011C0E82FF0E09F018A
S11303F0220F331F220F331FE20FF31FE95BFD4F60
S1130400108211821282138214828F5F833068F308
S113041010922D0283E891E00E94CD0708950F9376
S11304201F93CF93DF9300D0CDB7DEB7833090F521
S1130430062F182F662371F090E09C01220F331FC2
S1130440220F331F820F931F60E08F589D4F0E942D
S11304508C090DC090E09C01220F331F220F331F23
S1130460820F931F62E88F589D4F0E948C0981E090
S113047090E002C0880F991F1A95E2F78983011151
S113048001C080E08A8342E0BE016F5F7F4F82E556
S11304900E94DA070F900F90DF91CF911F910F9177
S11304A008950F931F93CF93C0E07AC08C2F90E0F0
S11304B0FC01EE0FFF1FEE0FFF1FE80FF91FE95BB2
S11304C0FD4F2081213019F02230E9F168C04091BC
S11304D0290250912A0260912B0270912C02FC0196
S11304E0EE0FFF1FEE0FFF1FE80FF91FE95BFD4F33
S11304F00181128123813481401B510B620B730BE8
S1130500403A51056105710508F449C0FC01EE0F3C
S1130510FF1FEE0FFF1F8E0F9F1FFC01E95BFD4FB6
S113052082E080838091290290912A02A0912B027B
S1130530B0912C0281839283A383B48360E08C2FD7
S11305400E940F022CC04091290250912A0260910E
S11305502B0270912C02FC01EE0FFF1FEE0FFF1F08
S1130560E80FF91FE95BFD4F01811281238134817A
S1130570401B510B620B730B403A51056105710529
S113058070F0FC01EE0FFF1FEE0FFF1F8E0F9F1F79
S1130590FC01E95BFD4F108288B18D7F88B9CF5F84
S11305A0C33008F483CFCF911F910F9108958091A8
S11305B06202882329F01092620283E080932D0264
S11305C080915F02882341F010925F0240E060E076
S11305D070E080E50E94DA0780916002882341F090
S11305E01092600240E060E070E081E50E94DA076A
S11305F080916102882341F01092610240E060E042
S113060070E083E50E94DA07089590E01CC0292F6A
S113061030E0F901EE0FFF1FE20FF31FE450FE4F2D
S1130620408148130FC0F901EE0FFF1F2E0F3F1F2B
S1130630F901E450FE4F0180F281E02D309749F03A
S1130640099508959F5F983010F388EB91E00E941C
S1130650CD07089580912D028130F9F018F0823091
S113066001F108956091290270912A0280912B0270
S113067090912C0220ED37E040E050E00E94510AB6
S1130680643671058105910520F488B1816088B9CB
S1130690089588B18E7F88B9089588B1816088B93A
S11306A008958091290290912A02A0912B02B09181
S11306B02C024091240250912502609126027091EF
S11306C02702841B950BA60BB70B84369105A10555
S11306D0B105A0F098B181E0892788B980912902F9
S11306E090912A02A0912B02B0912C0280932402B3
S11306F090932502A0932602B09327020895CF93E6
S11307008AEC91E00E94CD0786EE91E00E94CD072D
S1130710C0E014C0EC2FF0E0ED59FD4F8081882338
S113072021F08A3021F0805D03C08DE201C088E5AC
S11307300E94B50780E20E94B507CF5FCA3050F32C
S11307408CEE91E00E94CD0780EF91E00E94CD07EE
S1130750C0E014C0EC2FF0E0E057FD4F8081882307
S113076021F08A3021F0805D03C08DE201C088E56C
S11307700E94B50780E20E94B507CF5FCA3050F3EC
S11307808CEE91E00E94CD0786EF91E00E94CD07A8
S1130790C0E014C0EC2FF0E0E35CFD4F80818823BF
S11307A021F08A3021F0805D03C08DE201C088E52C
S11307B00E94B50780E20E94B507CF5FCA3050F3AC
S11307C0CF910895809156028823C1F080915A02F6
S11307D0811114C0809123028A3080F4E9E0F0E0B2
S11307E0E81BF109ED59FD4F9091200290838F5F32
S11307F080932302109256020E947F038091570235
S11308008823A1F180915A02811130C010925702BD
S113081080912302882351F180916C02909180028F
S1130820891315C0E7E4F2E081E080838091290216
S113083090912A02A0912B02B0912C028183928381
S1130840A383B48361E080E00E940F0205C080931B
S11308501F0281E080935D0210926C02809123025A
S113086081508093230281E080935A0280915D023B
S11308708823B1F080915B02811112C08091220221
S11308808A3070F4E9E0F0E0E81BF10990911F026E
S1130890E057FD4F90838F5F8093220210925D0298
S11308A0809158028823A1F180915B02811130C0AC
S11308B01092580280912202882351F1809199026A
S11308C090918102891315C0E7E4F2E081E0858309
S11308D08091290290912A02A0912B02B0912C02BE
S11308E086839783A087B18761E081E00E940F022D
S11308F005C080931E0281E080935E0210929902EB
S11309008091220281508093220281E080935B02D5
S113091080915E028823B1F080915C02811112C043
S1130920809121028A3070F4E9E0F0E0E81BF109DB
S113093090911E02E35CFD4F90838F5F80932102B0
S113094010925E0280915902882371F180915C02B9
S113095081112AC01092590280912102882321F129
S11309609091460280918202981314C0E7E4F2E069
S113097081E082878091290290912A02A0912B0222
S1130980B0912C0283879487A587B68761E082E0C3
S11309900E940F021092460280912102815080939E
S11309A0210281E080935C0280915A02882301F144
S11309B080910201282F30E0EAE0F0E0E21BF30B23
S11309C0A9E0B0E0A21BB30BAD59BD4F9C91ED590A
S11309D0FD4F90838F5F809302018A3049F4109217
S11309E0630210925A0281E0809302010E947F0305
S11309F080915B02882301F180910101282F30E06E
S1130A00EAE0F0E0E21BF30BA9E0B0E0A21BB30BB9
S1130A10A057BD4F9C91E057FD4F90838F5F80930B
S1130A2001018A3049F41092900210925B0281E035
S1130A30809301010E947F0380915C02882301F16D
S1130A4080910001282F30E0EAE0F0E0E21BF30B94
S1130A50A9E0B0E0A21BB30BA35CBD4F9C91E35C87
S1130A60FD4F90838F5F809300018A3049F4109288
S1130A703D0210925C0281E0809300010E947F039A
S1130A80089582E08093C00080E190E09093C500D7
S1130A908093C40086E08093C20088E98093C100FB
S1130AA0089584B1806284B987B1836087B988B1BD
S1130AB08C7F88B987B1837E87B988B18C6188B906
S1130AC08AB18C618AB98AB18F7B8AB98AB180680C
S1130AD08AB9089582E084BD94E095BD9CE797BDF2
S1130AE080936E0008951092800082E080938100CC
S1130AF081E080936F0008951F920F920FB60F92BA
S1130B0011242F933F934F935F936F937F938F930E
S1130B109F93AF93BF93EF93FF938091290290919A
S1130B202A02A0912B02B0912C020296A11DB11DA4
S1130B308093290290932A02A0932B02B0932C0253
S1130B4044E066E270E081E191E00E945C0048E0EC
S1130B5066E270E08AE091E00E945C0040E166E2B7
S1130B6070E083E091E00E945C00FF91EF91BF91FF
S1130B70AF919F918F917F916F915F914F913F9131
S1130B802F910F900FBE0F901F9018951F920F92E8
S1130B900FB60F9211248F939F93809128028F5F39
S1130BA0809328028E3130F095B180E2892785B98F
S1130BB0109228029F918F910F900FBE0F901F905B
S1130BC01895809189028823D9F080912902909107
S1130BD02A02A0912B02B0912C0240916D025091F7
S1130BE06E0260916F0270917002841B950BA60BCC
S1130BF0B70B85369105A105B10510F01092890255
S1130C008091290290912A02A0912B02B0912C028A
S1130C1040916D0250916E0260916F02709170026A
S1130C20841B950BA60BB70B843F9140A105B1051E
S1130C30B8F080918902811113C081E08093890208
S1130C408091290290912A02A0912B02B0912C024A
S1130C5080936D0290936E02A0936F02B093700222
S1130C6083E892E00E948C0080918902853009F02B
S1130C703FC080918E0290918F029C0123503109D4
S1130C802430310538F486E08093200281E080939B
S1130C90560216C0AC01475051094230510538F490
S1130CA088E08093200281E08093560209C009976E
S1130CB0029730F48AE08093200281E08093560208
S1130CC02830310598F481E0809332028091290222
S1130CD090912A02A0912B02B0912C0280932E02B3
S1130CE090932F02A0933002B093310210928902A4
S1130CF00895CF93DF93AC01E1ECF0E07081808143
S1130D008F77808320E014C090919A039F5F309185
S1130D109B03931761F0AAE9B3E0EC91F0E0EA01D8
S1130D20C20FD11D3881E656FD4F30839C932F5F4F
S1130D30261750F37093C100DF91CF910895CF939C
S1130D40DF93CDB7DEB72A970FB6F894DEBF0FBE98
S1130D50CDBF8091290290912A02A0912B02B091DB
S1130D602C02409114025091150260911602709168
S1130D701702841B950BA60BB70B8C3D9540A10560
S1130D80B10508F44FC080912302882389F08AE0DA
S1130D90E8E1F1E0DE01119601900D928A95E1F708
S1130DA06AE0CE0101960E94790681E080935702A1
S1130DB080912202882389F08AE0E2E2F1E0DE01F8
S1130DC0119601900D928A95E1F76AE0CE010196A1
S1130DD00E94790681E08093580280912102882341
S1130DE089F08AE0ECE2F1E0DE01119601900D92C7
S1130DF08A95E1F76AE0CE0101960E94790681E0C6
S1130E00809359028091290290912A02A0912B0289
S1130E10B0912C028093140290931502A0931602B1
S1130E20B09317022A960FB6F894DEBF0FBECDBF5B
S1130E30DF91CF910895F8940E9451050E944105D5
S1130E400E946A050E9473050E94AA07E6E5F2E083
S1130E50148215821682118612861386148620E067
S1130E6012C0822F90E0FC01EE0FFF1FEE0FFF1F58
S1130E708E0F9F1FFC01E95BFD4F108211821282CD
S1130E80138214822F5F233060F3E0E8F2E01082D3
S1130E901182128242E06BE270E081E792E00E94EC
S1130EA0550943E06BE270E086E792E00E94550941
S1130EB044E06BE270E08BE792E00E945509C0E0E9
S1130EC00FC08C2F90E09C01220F331F220F331F81
S1130ED0820F931F62E88F589D4F0E948C09CF5F49
S1130EE0C33078F310926D0210926E0210926F026A
S1130EF010927002E3E8F2E080E591E09183808350
S1130F008AE591E0938382838FE591E095838483DE
S1130F1016828BB18F778BB9E0E8F2E088E08083AA
S1130F2086E081838AE08283789440E060E070E028
S1130F3080EF0E94DA070E94A8080E94D7020E944C
S1130F4051020E942A030E94E2030E94E1050E94CA
S1130F509F06F1CF10929A0310929B0310929C0368
S1130F601092C2041092C30408959091C2049F5F2A
S1130F702091C304921781F0A2ECB4E0EC91F0E06C
S1130F80EE53FC4F80839C939FB7F894E1ECF0E020
S1130F908081806280839FBF0895CF93DF93EC01AB
S1130FA003C021960E94B50788818111FACFDF9191
S1130FB0CF910895BF92CF92DF92EF92FF920F9359
S1130FC01F93CF93DF9300D000D0CDB7DEB7C82EE8
S1130FD07B01D42E85E589838EE48A8385E48B8323
S1130FE082E58C836894BB24B1F8B40E80E000E001
S1130FF009C0E1E0F0E0EC0FFD1FE80FF11D908166
S113100009278F5F8430A8F30B258AE308270C2572
S1131010E114F10469F0D11008C00AC0F701E80F27
S1131020F11D908109278F5F01C080E08D15B0F319
S113103010E00AC0E1E0F0E0EC0FFD1FE10FF11D4C
S113104080810E94B5071F5F1430A0F38B2D0E948E
S1131050B5078AE30E94B5078C2D0E94B507E114F9
S1131060F10471F0D11009C00BC0F701E10FF11DBB
S113107080810E94B5071F5F01C010E01D15A8F311
S1131080802F0E94B5070F900F900F900F90DF9163
S1131090CF911F910F91FF90EF90DF90CF90BF9071
S11310A008951F920F920FB60F9211242F938F93CE
S11310B09F93AF93BF93EF93FF932091C6008091CA
S11310C09A038F5F90919B03891741F0AAE9B3E0DB
S11310D0EC91F0E0E656FD4F20838C93FF91EF9165
S11310E0BF91AF919F918F912F910F900FBE0F9051
S11310F01F9018951F920F920FB60F9211248F9381
S11311009F93AF93BF93EF93FF939091C304809108
S1131110C204981769F0A3ECB4E0EC91F0E0EE534C
S1131120FC4F80818093C6008C918F5F8C9305C0A7
S1131130E1ECF0E080818F7D8083FF91EF91BF919E
S1131140AF919F918F910F900FBE0F901F901895A4
S1131150CF93C0919A03A3C0ABE9B3E0EC91F0E064
S1131160E656FD4F20818C918F5F8C93E0919C0318
S11311708E2F90E08930910508F091C0FC01EC5C61
S1131180FF4F0C94730A253509F089C020939D0301
S113119081E080939C0383C02E3449F4EDE9F3E0AD
S11311A080812827208382E080939C0378C010925A
S11311B09C0375C0253449F4EDE9F3E080812827C8
S11311C0208383E080939C036AC010929C0367C0D1
S11311D0223549F4EDE9F3E080812827208384E077
S11311E080939C035CC010929C0359C020939E037F
S11311F0EDE9F3E080812827208385E080939C0338
S11312004EC02A3349F4EDE9F3E080812827208396
S113121086E080939C0343C010929C0340C02093BB
S1131220A003EDE9F3E080812827208380919E03C9
S1131230823010F0825001C080E080939F031092AE
S1131240C103882311F087E001C088E080939C03E8
S113125026C08091C103803228F4E82FF0E0EF55D6
S1131260FC4F20838F5F8093C103EDE9F3E090810D
S11312702927208390919F03891788F088E0809321
S11312809C030DC080919D03281307C040E060E0DB
S113129070E08091A0030E94050310929C0380914A
S11312A09B03C81359CFCF910895FC0171836083C8
S11312B0428380E494E094838383DB018C9121E076
S11312C030E002C0220F331F4A95E2F7209528230D
S11312D02C9380913602833058F4A82FB0E0AA0FE3
S11312E0BB1FA95CBD4FED93FC938F5F80933602C7
S11312F080913602813079F4EFE6F0E080818260FB
S1131300808380918400909185008C599F4F9093A5
S11313108900809388000895CF93DF93EC01653BA7
S113132008F064EB262F30E0A0E8BEE00E94790AC2
S113133024EB30E040E050E00E94510A205C3B4F37
S11313403C832B83DF91CF9108951F920F920FB6A8
S11313500F9211242F933F934F935F938F939F93F7
S1131360AF93BF93EF93FF9380913602882309F4E0
S113137089C020913502E22FE695422F50E090E09B
S1131380880F991F481759070CF05BC020FD2AC02D
S1131390F0E0EE0FFF1FE95CFD4F0190F081E02DBE
S11313A0A081B1812C9181E090E0028002C0880F7D
S11313B0991F0A94E2F7822B8C9383819481E8E845
S11313C0F0E020813181280F391F3183208320915F
S11313D0330230913402820F931F9093340280932E
S11313E0330229C0F0E0EE0FFF1FE95CFD4FA0813E
S11313F0B181ED91FC911197208181E090E01296EA
S11314000C9002C0880F991F0A94E2F780958223FA
S11314108083E8E8F0E0808191818C599F4F91832B
S1131420808380913302909134028C599F4F909322
S1131430340280933302809135028F5F80933502AA
S113144021C0209133023091340220348CE93807D2
S113145058F4E8E8F0E080819181821B930B805C72
S113146093469183808308C0E8E8F0E0808191810D
S11314708C599F4F918380831092350210923402CD
S113148010923302FF91EF91BF91AF919F918F9191
S11314905F914F913F912F910F900FBE0F901F902E
S11314A01895A1E21A2EAA1BBB1BFD010DC0AA1F91
S11314B0BB1FEE1FFF1FA217B307E407F50720F0B9
S11314C0A21BB30BE40BF50B661F771F881F991F34
S11314D01A9469F760957095809590959B01AC017D
S11314E0BD01CF010895EE0FFF1F0590F491E02D8B
S11314F00994A29FB001B39FC001A39F700D811DE9
S11315001124911DB29F700D811D1124911D089508
S1071510F894FFCF79
S1131514010101000100C101000000010093010068
S11315240000010089010000554E4552033A5E0053
S1131534016A554E4552033A5E01016B554E4552BC
S1131544033A5E0201680D0A5B215D2053544F5037
S11315543A2043696E746120646574656E696461DC
S11315642E0D0A000D0A5B3F5D2053544F50206931
S1131574676E6F7261646F3A204E6F2068617920E0
S1131584636F6E6578696F6E206163746976612E2A
S11315940D0A000D0A5B215D205245534554204930
S11315A44E54454752414C3A20536F6674776172E6
S11315B4652079204861726477617265206C696D75
S11315C470696F732E0D0A00554E45523A436D648B
S11315D45F556E6B6E6F776E0A000D0A2D2D2D20EC
S11315E445535441444F2044452043494E544120DB
S11315F42D2D2D0D0A0051303A205B005D0D0A009B
S113160451313A205B0051323A205B00F0F1005032
S1131614FF00510E01521D01531201541E015E1F9D
S1071624015F480115
S9030000FC
