S01D0000436F6D756E69636163696F6E53696D7543696E74612E73726563A2
S11300000C943D000C945A000C945A000C945A0021
S11300100C945A000C945A000C945A000C945A00F4
S11300200C945A000C945A000C945A000C94280E08
S11300300C945A000C945A000C94620B0C945A00C1
S11300400C945A000C945A000C94D40C0C94FD0C8F
S11300500C945A000C945A000C945A000C945A00B4
S11300600C945A000C945A00460D4F0D5D0D6B0D07
S1130070790D840D920DAC0DC50D11241FBECFEF6B
S1130080D8E0DEBFCDBF12E0A0E0B1E0E2E4F4E2EC
S113009002C005900D92A430B107D9F725E0A4E081
S11300A0B2E001C01D92A031B207E1F70E94870BB4
S11300B00C941F120C940000FC018081811112C069
S11300C0A181B28111962C91119781E090E0038077
S11300D002C0880F991F0A94E2F780958223119633
S11300E08C9308958130C9F437B181E090E0AC017C
S11300F0048002C0440F551F0A94E2F7242F209570
S1130100232327B9AEE7B0E02C91048002C0880F06
S1130110991F0A94E2F7822B8C930895FC01808145
S113012081110FC0A181B2812C9130E0C9010380FB
S113013002C0959587950A94E2F780FF04C081E098
S1130140089580E0089580E00895CF92DF92EF92C1
S1130150FF92CF93DF93EC018E85833009F443C083
S113016028F4813051F0823081F17EC0843009F46A
S113017052C0853009F45EC077C0EC85FD850995D1
S1130180CF84D888E988FA889B01AC012C193D09F1
S11301904E095F0969017A0120932C0230932D02E4
S11301A040932E0250932F022C813D814E815F811A
S11301B0A8EEB3E00E941F0FC616D706E806F9069C
S11301C008F452C082E08E874FC0E885F98581E04B
S11301D00995EC85FD8509956F87788B898B9A8BBA
S11301E083E08E8741C0EC85FD850995CF84D8884E
S11301F0E988FA88DC01CB018C199D09AE09BF0995
S11302000A97A105B10580F1E885F98580E0099593
S113021084E08E8729C0EA85FB850995813021F524
S1130220EC85FD8509956F87788B898B9A8B85E0A2
S11302308E871AC0EA85FB850995811115C0EC8566
S1130240FD850995CF84D888E988FA886C197D09D9
S11302508E099F092AE330E040E050E00E94E80E56
S11302603C8B2B8B86E08E87DF91CF91FF90EF90B4
S1130270DF90CF900895FF928330D8F590E027E186
S1130280289FF001299FF00D1124EF55FD4F268979
S1130290253078F5E7E1E89F9001E99F300D1124BE
S11302A0D901AF55BD4F5496FC905497EF2DF0E013
S11302B0EE0FFF1FEE0FFF1F2E0F3F1FF901EF552B
S11302C0FD4F408351836283738321E02F0D549645
S11302D02C935497253010F0FD01148A27E1289FB0
S11302E0F001299FF00D1124EF55FD4F86898F5F92
S11302F0868BFF900895282F30E087E1829FF001DC
S1130300839FF00D1124EF55FD4F86898823F1F06A
S113031047E1429FC001439F900D1124FC01EF551A
S1130320FD4FE589F0E0EE0FFF1FEE0FFF1F8E0F6C
S11303309F1FFC01EF55FD4F80819181A281B38104
S1130340FB0180839183A283B38381E0089590E0CD
S113035027E1289FF001299FF00D1124EF55FD4F4F
S11303602689222309F127E1289FF001299FF00D16
S11303701124EF55FD4F25892F5F258B253048F03B
S113038027E1289FF001299FF00D1124EF55FD4F1F
S1130390158A27E1289FF001299FF00D1124EF55BC
S11303A0FD4F86898150868B08958091EB038823C5
S11303B059F081E09091ED03911101C080E0E9E4EE
S11303C0F2E0808381E0878B08958091EB0388239A
S11303D041F081E09091ED03911101C080E08093A0
S11303E04A0208958091EB03882339F08091ED034C
S11303F08D3019F481E08093210208958091EB03FC
S1130400833070F08091ED03EFE7F2E08083809118
S1130410EE0381838091EF03828381E080935A020B
S1130420089581E0809321028091EB03882321F0D9
S11304308091ED038D3019F081E080935802089586
S11304400F931F938091EB03813029F49091ED0376
S11304509F3F09F454C0823008F451C09091ED03D9
S11304606091EE0380E048C0282F30E0492F50E02F
S1130470082E02C0559547950A94E2F740FF3BC009
S1130480462F50E0082E02C0559547950A94E2F78E
S113049040FF19C0F901EE0FFF1FEE0FFF1F2E0FD3
S11304A03F1FF901E65CFD4F21E0208300911D020E
S11304B010911E0220911F023091200201831283A9
S11304C02383348318C0F901EE0FFF1FEE0FFF1FC3
S11304D02E0F3F1FF901E65CFD4F23E020830091BE
S11304E01D0210911E0220911F02309120020183EF
S11304F01283238334838F5F833008F4B5CF1F9135
S11305000F91089510924B0260E01CC0F901E35171
S1130510FC4F2081FC01E351FC4F80816E5F8130F0
S113052089F4213041F018F0223049F00BC081E009
S113053080934D0207C081E080934E0203C081E0A6
S113054080934F02262F30E0C90101964091EB03BE
S113055050E084179507D4F20895E9E4F2E012829A
S11305608091ED038093150281E0838308958823AD
S113057021F085B1826085B9089585B18D7F85B9F3
S1130580089583B182FB882780F90895209184001F
S1130590309185008091080290910902A901481BBD
S11305A0590B8091040290910502A0910602B0912A
S11305B00702840F951FA11DB11D8093040290931F
S11305C00502A0930602B093070230930902209318
S11305D00802BC01CD019695879577956795089596
S11305E08AE0E2E6F2E0DF01982F1D929A95E9F79E
S11305F0E7E9F2E0DF01982F1D929A95E9F7E0E32D
S1130600F2E0DF011D928A95E9F710921802109228
S113061017021092160210921502109214021092F0
S11306201302E9E4F2E0138214821582168217821F
S1130630108611861286138680E011C0E82FF0E040
S11306409F01220F331F220F331FE20FF31FE65CBB
S1130650FD4F108211821282138214828F5F8330C5
S113066068F381E080934B02109221028091EB03A6
S1130670882331F08091ED038D3029F08A3019F010
S113068081E0809359020895CF92DF92EF92FF9216
S11306900F931F93CF93DF931F92CDB7DEB7809153
S11306A049028111ACC080912102823009F0A7C0B7
S11306B089E191E00E948E00182FF894C0901D02E9
S11306C0D0901E02E0901F02F090200278948111D5
S11306D016C080910701813091F4F89480911D0235
S11306E090911E02A0911F02B091200280930F02EC
S11306F090931002A0931102B093120278941130D7
S113070009F07BC080910701811177C0F894409172
S11307101D0250911E0260911F027091200280916F
S11307200F0290911002A0911102B09112029A014D
S1130730AB01281B390B4A0B5B0B78942431310530
S11307404105510508F459C060E47FE180E090E080
S11307500E94E80EE22F2093610281E080935D0203
S113076090917F0280911502981751F09091800228
S1130770891741F090918102891731F00FEF05C07C
S113078000E003C001E001C002E00F3F61F1222359
S113079051F1013039F080F0023049F020E030E0CE
S11307A0A9010EC028E230E040E050E009C02CE38B
S11307B030E040E050E004C024E130E040E050E0AC
S11307C0A8EEB3E00E941F0F2E2F30E040E050E06F
S11307D00E94E80EBA01A9014C0D5D1D6E1D7F1D1E
S11307E0802F0E943B0180911502898341E0BE0164
S11307F06F5F7F4F8FE50E945D0C109307010F9090
S1130800DF91CF911F910F91FF90EF90DF90CF90E8
S113081008950F931F93CF93DF9300D0CDB7DEB726
S1130820833090F5062F182F662371F090E09C0119
S1130830220F331F220F331F820F931F60E0805952
S11308409D4F0E940F0E0DC090E09C01220F331F9C
S1130850220F331F820F931F62E880599D4F0E941D
S11308600F0E81E090E002C0880F991F1A95E2F7FD
S11308708983011101C080E08A8342E0BE016F5F79
S11308807F4F82E50E945D0C0F900F90DF91CF9116
S11308901F910F9108958F929F92AF92BF92CF9222
S11308A0DF92EF92FF920F931F93CF93DF9300D0C9
S11308B000D0CDB7DEB7F894C0901D02D0901E02D0
S11308C0E0901F02F09020027894809149028111F7
S11308D046C1B12CA1C00B2D10E0F801EE0FFF1F93
S11308E0EE0FFF1FE00FF11FE65CFD4F80818230A9
S11308F0A9F1833009F460C0811182C0BE016F5F29
S11309007F4F8B2D0E947B01882309F484C0898149
S11309109A81AB81BC81A7019601281B390B4A0B34
S11309205B0B0AF478C08B2D0E94A70161E08B2D2C
S11309300E940904F801EE0FFF1FEE0FFF1F0E0FB8
S11309401F1FF801E65CFD4F82E08083C182D282E2
S1130950E382F48281E080935D025DC0F801EE0FD2
S1130960FF1FEE0FFF1FE00FF11FE65CFD4F8181BB
S11309709281A381B481A7019601281B390B4A0BEC
S11309805B0B243631054105510508F444C060E091
S11309908B2D0E940904F801EE0FFF1FEE0FFF1FBD
S11309A00E0F1F1FF801E65CFD4F83E08083C182B8
S11309B0D282E382F4822FC0F801EE0FFF1FEE0F04
S11309C0FF1FE00FF11FE65CFD4F81819281A3813F
S11309D0B481A7019601281B390B4A0B5B0B243603
S11309E0310541055105B8F0F801EE0FFF1FEE0F78
S11309F0FF1F0E0F1F1FF801E65CFD4F10820BC096
S1130A00F801EE0FFF1FEE0FFF1F0E0F1F1FF8015F
S1130A10E65CFD4F1082B39432E03B1508F05BCFE7
S1130A20A2C0812F90E0FC01EE0FFF1FEE0FFF1F0D
S1130A30E80FF91FE65CFD4F20812230D1F123300D
S1130A4009F462C0213009F088C0FC01EE0FFF1FD9
S1130A50EE0FFF1FE80FF91FE65CFD4F4181528145
S1130A606381748146015701841A950AA60AB70A5C
S1130A70409108015091090160E070E084169506E8
S1130A80A606B70608F469C0FC01EE0FFF1FEE0FBF
S1130A90FF1F8E0F9F1FFC01E65CFD4F82E08083E9
S1130AA0C182D282E382F48261E0812F0E94090430
S1130AB054C0FC01EE0FFF1FEE0FFF1FE80FF91FDC
S1130AC0E65CFD4F41815281638174814601570187
S1130AD0841A950AA60AB70AB501A4014436510539
S1130AE061057105D0F1FC01EE0FFF1FEE0FFF1F32
S1130AF08E0F9F1FFC01E65CFD4F83E08083C18263
S1130B00D282E382F48229C0FC01EE0FFF1FEE0FB4
S1130B10FF1FE80FF91FE65CFD4F4181528163819D
S1130B20748146015701841A950AA60AB70AB501C9
S1130B30A401443651056105710578F0FC01EE0FFE
S1130B40FF1FEE0FFF1F8E0F9F1FFC01E65CFD4F82
S1130B50108260E0812F0E9409041F5F01C010E031
S1130B60133008F45ECF0F900F900F900F90DF9129
S1130B70CF911F910F91FF90EF90DF90CF90BF9096
S1130B80AF909F908F9008951F93CF93DF9300D0E1
S1130B90CDB7DEB780912102823009F04EC080913A
S1130BA04B02882309F449C084E191E00E948E003D
S1130BB0182F81110FC080910301813059F4809363
S1130BC04D0219828A8342E0BE016F5F7F4F8EE53A
S1130BD00E945D0C109303018FE091E00E948E004F
S1130BE0182F81110FC080910201813059F4809334
S1130BF04E0289838A8342E0BE016F5F7F4F8EE598
S1130C000E945D0C109302018AE091E00E948E0024
S1130C10182F811110C080910101813061F48093FB
S1130C204F0292E099838A8342E0BE016F5F7F4F57
S1130C308EE50E945D0C109301010F900F90DF91DF
S1130C40CF911F910895EF92FF921F93CF93DF935B
S1130C501F92CDB7DEB789E191E00E948E0011E0CA
S1130C60811101C010E0811155C0809100018823D9
S1130C7009F450C08091900281114CC080911D02F2
S1130C8090911E02A0911F02B091200240910B028C
S1130C9050910C0260910D0270910E02841B950B11
S1130CA0A60BB70B893C9105A105B10598F10F2E50
S1130CB0F2E8EF2EF2E0FF2EF02DD7011C96ED9115
S1130CC0FC911D970995F7016787708B818B928B37
S1130CD081E0868780911D0290911E02A0911F02DF
S1130CE0B091200280930B0290930C02A0930D020A
S1130CF0B0930E0280911D0290911E02A0911F02DA
S1130D00B091200280936C0290936D02A0936E02C6
S1130D10B0936F021093000182E892E00E94A50054
S1130D2080910A028130A1F480919002823081F492
S1130D3080911D0290911E02A0911F02B091200289
S1130D4080936C0290936D02A0936E02B0936F0235
S1130D508091900280930A028230D8F080911D0223
S1130D6090911E02A0911F02B091200240916C024A
S1130D7050916D0260916E0270916F02841B950B0D
S1130D80A60BB70B85369105A105B10510F010929D
S1130D90900280919002863051F580919502909155
S1130DA096029C01295031092330310550F02E5F01
S1130DB03F4F2230310538F00497039730F080E03C
S1130DC005C086E003C088E001C08AE0882369F09A
S1130DD08093150291E090934C02898341E0BE0117
S1130DE06F5F7F4F8FE50E945D0C109290020F9011
S1130DF0DF91CF911F91FF90EF900895CF93DF93F0
S1130E0000D000D01F92CDB7DEB780915F02882357
S1130E1059F010925F0283E08093210240E060E089
S1130E2070E081E50E945D0C80915E02882341F0B0
S1130E3010925E0240E060E070E08AE50E945D0C82
S1130E4080915502882341F01092550240E060E001
S1130E5070E080EF0E945D0C80915602882359F067
S1130E60109256028DE0898341E0BE016F5F7F4F8F
S1130E7080EF0E945D0C80915702882341F010920C
S1130E80570240E060E070E080E50E945D0C8091D4
S1130E905802882341F01092580240E060E070E06C
S1130EA081E50E945D0C80915902882341F01092E3
S1130EB0590240E060E070E083E50E945D0C80919F
S1130EC06002882361F0E9E4F2E0178A8081898373
S1130ED041E0BE016F5F7F4F89E50E945D0C809108
S1130EE05A02882389F010925A02EFE7F2E08081D7
S1130EF0898381818A8382818B8343E0BE016F5F12
S1130F007F4F80E40E945D0C80915B02882359F03E
S1130F1010925B028DE0898341E0BE016F5F7F4FD9
S1130F2084E50E945D0C80915C02882399F0109204
S1130F305C028091080190910901898380910801E4
S1130F40909109019A8342E0BE016F5F7F4F85E56E
S1130F500E945D0C80915D028823C1F010925D02B5
S1130F60809161028983809115028A83E1EAF2E02B
S1130F7086898B8385A58C838091E5028D8345E0EA
S1130F80BE016F5F7F4F88E50E945D0C0F900F904C
S1130F900F900F900F90DF91CF91089590E01CC0B7
S1130FA0292F30E0F901EE0FFF1FE20FF31FE0528B
S1130FB0FE4F408148130FC0F901EE0FFF1F2E0FA3
S1130FC03F1FF901E052FE4F0180F281E02D30977E
S1130FD049F0099508959F5F9C3010F38EE191E0EC
S1130FE00E94500C089580912102813011F130F05B
S1130FF0823019F1833009F44FC0089560911D02C5
S113100070911E0280911F029091200220ED37E022
S113101040E050E00E94E80E6436710581059105B8
S113102020F485B1806285B9089585B18F7D85B935
S1131030089585B1806285B9089580911D029091CB
S11310401E02A0911F02B0912002409119025091FA
S11310501A0260911B0270911C02841B950BA60B53
S1131060B70B84369105A105B10508F442C095B1CA
S113107080E2892785B980911D0290911E02A0917A
S11310801F02B09120028093190290931A02A09338
S11310901B02B0931C02089580911D0290911E02C0
S11310A0A0911F02B09120024091190250911A029E
S11310B060911B0270911C02841B950BA60BB70B4D
S11310C0843F9140A105B105A0F095B180E2892744
S11310D085B980911D0290911E02A0911F02B091CA
S11310E020028093190290931A02A0931B02B093DA
S11310F01C020895FC0101900020E9F73197AF012B
S1131100481B590BBC0180E70E945D0C0895EF92C7
S1131110FF920F931F93CF93DF93CDB7DEB7C854DD
S1131120D1090FB6F894DEBF0FBECDBF82EB91E0BC
S11311300E947A0886E0EAECF1E0DE011196019063
S11311400D928A95E1F710E01FC0E12FF0E0EE590F
S1131150FD4F80811F928F9380ED91E09F938F9339
S11311607E0181E4E80EF11CFF92EF920E94350F9C
S1131170B701CE0101960E942A0F1F5F0F900F90B6
S11311800F900F900F900F901A30F8F28E010F5FAE
S11311901F4FF80101900020E9F731978DE590E0A9
S11311A091838083C8010E947A0886E0E4EDF1E02F
S11311B0D80101900D928A95E1F710E01FC0E12F4C
S11311C0F0E0E956FD4F80811F928F9380ED91E00E
S11311D09F938F937E0181E4E80EF11CFF92EF92BE
S11311E00E94350FB701CE0101960E942A0F1F5F9E
S11311F00F900F900F900F900F900F901A30F8F2FD
S11312008E010F5F1F4FF80101900020E9F731971D
S11312108DE590E091838083C8010E947A0886E07E
S1131220EAEDF1E0D80101900D928A95E1F710E022
S11312301FC0E12FF0E0E05DFD4F80811F928F938E
S113124080ED91E09F938F937E0181E4E80EF11C81
S1131250FF92EF920E94350FB701CE0101960E94D2
S11312602A0F1F5F0F900F900F900F900F900F9009
S11312701A30F8F2CE010196FC0101900020E9F742
S113128031972DE530E0318320830E947A08C85BD2
S1131290DF4F0FB6F894DEBF0FBECDBFDF91CF9105
S11312A01F910F91FF90EF90089580914902882338
S11312B009F455C180912102823009F050C1809116
S11312C04C028823C1F080915002811114C0809196
S11312D018028A3080F4E9E0F0E0E81BF109EE59E5
S11312E0FD4F9091150290838F5F809318021092A6
S11312F04C020E94870880914D02882381F18091DD
S1131300500281112CC010924D0280911802882342
S113131031F180916B0290917F02891311C0EAE34D
S1131320F2E081E0808380911D0290911E02A091E1
S11313301F02B091200281839283A383B48305C0EA
S11313408093140281E08093530210926B02809187
S1131350180281508093180281E08093500280919A
S113136053028823B1F080915102811112C08091FF
S113137017028A3070F4E9E0F0E0E81BF10990917B
S11313801402E956FD4F90838F5F809317021092E9
S1131390530280914E02882381F180915102811180
S11313A02CC010924E0280911702882331F1809153
S11313B0A00290918002891311C0EAE3F2E081E077
S11313C0858380911D0290911E02A0911F02B0910D
S11313D0200286839783A087B18705C08093130278
S11313E081E0809354021092A002809117028150F0
S11313F08093170281E080935102809154028823E4
S1131400B1F080915202811112C0809116028A308B
S113141070F4E9E0F0E0E81BF10990911302E05D5B
S1131420FD4F90838F5F8093160210925402809137
S11314304F02882341F180915202811124C01092FD
S11314404F02809116028823F1F020913902909185
S11314508102291310C0EAE3F2E091E092874091FF
S11314601D0250911E0260911F0270912002438759
S113147054876587768710923902815080931602CB
S113148081E08093520280915002882301F180917F
S11314900601282F30E0EAE0F0E0E21BF30BA9E0BC
S11314A0B0E0A21BB30BAE59BD4F9C91EE59FD4F5A
S11314B090838F5F809306018A3049F41092620210
S11314C01092500281E0809306010E948708809167
S11314D05102882301F180910501282F30E0EAE0D0
S11314E0F0E0E21BF30BA9E0B0E0A21BB30BA9569A
S11314F0BD4F9C91E956FD4F90838F5F809305010A
S11315008A3049F4109297021092510281E080933C
S113151005010E94870880915202882301F180917D
S11315200401282F30E0EAE0F0E0E21BF30BA9E02D
S1131530B0E0A21BB30BA05DBD4F9C91E05DFD4FDD
S113154090838F5F809304018A3049F410923002B3
S11315501092520281E0809304010E94870808954A
S113156082E08093C00080E190E09093C500809376
S1131570C40086E08093C20088E98093C100089586
S113158084B1806284B984B1826084B984B18B7F70
S113159084B987B1887F87B988B1876088B98AB1EF
S11315A080688AB984B1806184B984B1886084B95F
S11315B08AB1837C8AB98BB18C638BB9089582E03C
S11315C084BD94E095BD9CE797BD80936E0008951B
S11315D01092800082E080938100089580914A02F5
S11315E081110DC060916102662349F070E080EDC5
S11315F097E00E94D40E709309016093080181E082
S113160080935C0208958091EB038430A8F080916C
S1131610ED03809361028091EE03EFE7F2E08083B3
S11316208091EF0381838091F00382830E94EE0A0C
S113163082E0809321020895811116C080917F0277
S1131640882379F080918002882359F08091810267
S1131650882339F082E08093210281E0809357024D
S1131660089581E080935E0208958091EB038823BE
S113167089F08091ED03809361020E94EE0A8091CB
S1131680EB03823020F08091EE038D3019F081E07D
S113169080935B0208958091EB03823090F08091F7
S11316A04A02882361F02091ED038091EE0390E0DB
S11316B0982F8827822B90930901809308010E9418
S11316C0EE0A08951F920F920FB60F9211248F9372
S11316D09F93AF93BF9380911D0290911E02A0919E
S11316E01F02B09120020296A11DB11D80931D021C
S11316F090931E02A0931F02B0932002BF91AF915A
S11317009F918F910F900FBE0F901F901895F89492
S11317100E94C00A0E94B00A0E94DF0A0E94E80ADE
S11317200E942D0CE9E4F2E01782108611861686D9
S11317301786108A168A20E012C0822F90E0FC01DE
S1131740EE0FFF1FEE0FFF1F8E0F9F1FFC01E65CC5
S1131750FD4F108211821282138214822F5F233074
S113176060F347E06BE270E080E792E00E94D80DFE
S113177044E065E270E085E792E00E94D80D43E022
S113178065E270E08AE792E00E94D80DC0E00FC0E5
S11317908C2F90E09C01220F331F220F331F820FE6
S11317A0931F62E880599D4F0E940F0ECF5FC33094
S11317B078F310926C0210926D0210926E021092E5
S11317C06F02E2E8F2E088EE93E0A0E0B0E0848308
S11317D09583A683B78387EB92E09187808781EC1A
S11317E092E09387828786EC92E0958784871686B9
S11317F089E191E00E945C0084E191E00E945C0038
S11318008FE091E00E945C008AE091E00E945C001D
S113181085B18D7F85B91092090110920801C9E440
S1131820D2E011E01983789440E060E070E080EF4A
S11318300E945D0C1A8318830E942B0D0E942306BC
S11318400E94C4050E9444030E9455090E944B044F
S11318500E94FE060E94F307EFCF1092E603109257
S1131860E7031092E80310920E0510920F050895F5
S113187090910E059F5F20910F05921781F0AEE0C5
S1131880B5E0EC91F0E0E25FFB4F80839C939FB75F
S1131890F894E1ECF0E08081806280839FBF08953A
S11318A0CF93DF93EC0103C021960E94380C88810A
S11318B08111FACFDF91CF910895BF92CF92DF9239
S11318C0EF92FF920F931F93CF93DF9300D000D03A
S11318D0CDB7DEB7C82E7B01D42E85E589838EE48F
S11318E08A8385E48B8382E58C836894BB24B1F876
S11318F0B40E80E000E009C0E1E0F0E0EC0FFD1F71
S1131900E80FF11D908109278F5F8430A8F30B2520
S11319108AE308270C25E114F10469F0D11008C00A
S11319200AC0F701E80FF11D908109278F5F01C0FC
S113193080E08D15B0F310E00AC0E1E0F0E0EC0FB8
S1131940FD1FE10FF11D80810E94380C1F5F1430D0
S1131950A0F38B2D0E94380C8AE30E94380C8C2D46
S11319600E94380CE114F10471F0D11009C00BC0CD
S1131970F701E10FF11D80810E94380C1F5F01C047
S113198010E01D15A8F3802F0E94380C0F900F90C3
S11319900F900F90DF91CF911F910F91FF90EF90D7
S11319A0DF90CF90BF9008951F920F920FB60F92C1
S11319B011242F938F939F93AF93BF93EF93FF9330
S11319C02091C6008091E6038F5F9091E703891709
S11319D041F0A6EEB3E0EC91F0E0EA51FD4F208334
S11319E08C93FF91EF91BF91AF919F918F912F9124
S11319F00F900FBE0F901F9018951F920F920FB665
S1131A000F9211248F939F93AF93BF93EF93FF9300
S1131A1090910F0580910E05981769F0AFE0B5E03D
S1131A20EC91F0E0E25FFB4F80818093C6008C91E3
S1131A308F5F8C9305C0E1ECF0E080818F7D808323
S1131A40FF91EF91BF91AF919F918F910F900FBE36
S1131A500F901F901895CF93C091E603A3C0A7EEF3
S1131A60B3E0EC91F0E0EA51FD4F20818C918F5F5F
S1131A708C93E091E8038E2F90E08930910508F073
S1131A8091C0FC01EC5CFF4F0C940A0F253509F062
S1131A9089C02093E90381E08093E80383C02E3456
S1131AA049F4E9EEF3E080812827208382E08093E3
S1131AB0E80378C01092E80375C0253449F4E9EED0
S1131AC0F3E080812827208383E08093E8036AC0C1
S1131AD01092E80367C0223549F4E9EEF3E080810F
S1131AE02827208384E08093E8035CC01092E803F5
S1131AF059C02093EA03E9EEF3E08081282720838C
S1131B0085E08093E8034EC02A3349F4E9EEF3E01C
S1131B1080812827208386E08093E80343C01092C5
S1131B20E80340C02093EC03E9EEF3E0808128272A
S1131B3020838091EA03823010F0825001C080E05B
S1131B408093EB0310920D04882311F087E001C009
S1131B5088E08093E80326C080910D04803228F445
S1131B60E82FF0E0E351FC4F20838F5F80930D0456
S1131B70E9EEF3E09081292720839091EB03891704
S1131B8088F088E08093E8030DC08091E90328136E
S1131B9007C040E060E070E08091EC030E94CE0753
S1131BA01092E8038091E703C81359CFCF910895A9
S1131BB0FC0171836083428380E494E09483838393
S1131BC0DB018C9121E030E002C0220F331F4A95E3
S1131BD0E2F7209528232C9380912502833058F432
S1131BE0A82FB0E0AA0FBB1FAA5DBD4FED93FC93D5
S1131BF08F5F8093250280912502813079F4EFE68E
S1131C00F0E08081826080838091840090918500DF
S1131C108C599F4F90938900809388000895CF93A7
S1131C20DF93EC01653B08F064EB262F30E0A0E87D
S1131C30BEE00E94100F24EB30E040E050E00E9430
S1131C40E80E205C3B4F3C832B83DF91CF910895BA
S1131C501F920F920FB60F9211242F933F934F931D
S1131C605F938F939F93AF93BF93EF93FF93809171
S1131C702502882309F489C020912402E22FE695E5
S1131C80422F50E090E0880F991F481759070CF035
S1131C905BC020FD2AC0F0E0EE0FFF1FEA5DFD4FA0
S1131CA00190F081E02DA081B1812C9181E090E040
S1131CB0028002C0880F991F0A94E2F7822B8C934A
S1131CC083819481E8E8F0E020813181280F391F75
S1131CD0318320832091220230912302820F931FAB
S1131CE0909323028093220229C0F0E0EE0FFF1F9D
S1131CF0EA5DFD4FA081B181ED91FC9111972081A6
S1131D0081E090E012960C9002C0880F991F0A940B
S1131D10E2F7809582238083E8E8F0E08081918176
S1131D208C599F4F9183808380912202909123024A
S1131D308C599F4F90932302809322028091240216
S1131D408F5F8093240221C02091220230912302CC
S1131D5020348CE9380758F4E8E8F0E08081918178
S1131D60821B930B805C93469183808308C0E8E8D0
S1131D70F0E0808191818C599F4F918380831092F0
S1131D8024021092230210922202FF91EF91BF913C
S1131D90AF919F918F915F914F913F912F910F90B0
S1131DA00FBE0F901F901895AA1BBB1B51E107C0D3
S1131DB0AA1FBB1FA617B70710F0A61BB70B881FD7
S1131DC0991F5A95A9F780959095BC01CD01089566
S1131DD0A1E21A2EAA1BBB1BFD010DC0AA1FBB1F2B
S1131DE0EE1FFF1FA217B307E407F50720F0A21B9D
S1131DF0B30BE40BF50B661F771F881F991F1A940A
S1131E0069F760957095809590959B01AC01BD0133
S1131E10CF010895EE0FFF1F0590F491E02D099472
S1131E20A29FB001B39FC001A39F700D811D112417
S1131E30911DB29F700D811D1124911D08950E9462
S1131E40100FA59F900DB49F900DA49F800D911D20
S1131E5011240895FB01DC010D900020E9F711978E
S1131E6001900D920020E1F70895AEE0B0E0EBE3BD
S1131E70FFE00C94F6110D891E8986E08C831A8389
S1131E8009838FEF9FE79E838D83AE01475E5F4F8B
S1131E906F89788DCE0101960E94570FEF81F885E6
S1131EA0E00FF11F10822E96E4E00C941212ABE0C6
S1131EB0B0E0EDE5FFE00C94E8116C017B018A01D0
S1131EC0FC0117821682838181FFCCC1CE01019669
S1131ED03C01F6019381F70193FD859193FF819174
S1131EE07F01882309F4BAC1853239F493FD8591C1
S1131EF093FF81917F01853229F4B60190E00E941D
S1131F004E11E7CF912C212C312CFFE1F315D8F0A1
S1131F108B3279F038F4803279F08332A1F4232DB6
S1131F2020611DC08D3261F0803369F4232D21605E
S1131F3016C0832D8260382EE32DE4603E2E2AC025
S1131F40F32DF8601DC037FC2DC020ED280F2A307A
S1131F5040F08E32B9F436FC81C1232D2064322E38
S1131F6019C036FE06C08AE0989E200D1124922ED8
S1131F7011C0EAE02E9E200D1124222EF32DF062D2
S1131F803F2E08C08C3621F4832D8068382E02C081
S1131F90883641F4F70193FD859193FF81917F0188
S1131FA08111B3CF982F9F7D9554933028F40C5F03
S1131FB01F4F9FE399830DC0833631F0833771F04F
S1131FC0833509F059C021C0F801808189830E5FEF
S1131FD01F4F88248394912C530113C02801F2E0ED
S1131FE04F0E511CF801A080B18036FE03C0692D4C
S1131FF070E002C06FEF7FEFC5010E9443114C01F6
S11320008201F32DFF773F2E16C0280122E0420EF5
S1132010511CF801A080B18036FE03C0692D70E028
S113202002C06FEF7FEFC5010E9438114C01F32D00
S1132030F0683F2E820133FC1BC0822D90E088168D
S11320409906B0F4B60180E290E00E944E112A9401
S1132050F4CFF50137FC859137FE81915F01B6011C
S113206090E00E944E1121102A9421E0821A9108D6
S11320708114910471F7E8C0843611F0893641F572
S1132080F80137FE07C060817181828193810C5F02
S11320901F4F08C060817181072E000C880B990BBB
S11320A00E5F1F4FF32DFF763F2E97FF09C09095CB
S11320B08095709561957F4F8F4F9F4FF0683F2EAD
S11320C02AE030E0A3010E948A11882E861845C0B8
S11320D0853731F4232D2F7EB22E2AE030E025C03F
S11320E0932D997FB92E8F36C1F018F4883579F085
S11320F0B5C0803719F0883721F0B0C0E92FE0610E
S1132100BE2EB4FE0DC0FB2DF460BF2E09C034FEFC
S11321100AC0292F2660B22E06C028E030E005C090
S113212020E130E002C020E132E0F801B7FE07C050
S113213060817181828193810C5F1F4F06C0608131
S1132140718180E090E00E5F1F4FA3010E948A110D
S1132150882E8618FB2DFF773F2E36FE0DC0232DCB
S11321602E7FA22E891458F434FE0BC032FC09C011
S1132170832D8E7EA82E05C0B82CA32C03C0B82CAA
S113218001C0B92CA4FE0FC0FE01E80DF11D808131
S1132190803321F49A2D997EA92E09C0A2FE06C08F
S11321A0B394B39404C08A2D867809F0B394A3FC45
S11321B011C0A0FE06C0B21488F4280C922C9B18FF
S11321C00EC0B21460F4B60180E290E00E944E1199
S11321D0B394F7CFB21418F42B1802C0982C212C06
S11321E0A4FE10C0B60180E390E00E944E11A2FE4E
S11321F017C0A1FC03C088E790E002C088E590E026
S1132200B6010CC08A2D867859F0A1FE02C08BE27B
S113221001C080E2A7FC8DE2B60190E00E944E115D
S1132220891438F4B60180E390E00E944E119A9428
S1132230F7CF8A94F301E80DF11D8081B60190E097
S11322400E944E118110F5CF222009F442CEB6012E
S113225080E290E00E944E112A94F6CFF601868126
S1132260978102C08FEF9FEF2B96E2E10C9404124A
S1132270FC010590615070400110D8F7809590954D
S11322808E0F9F1F0895FC01615070400190011052
S1132290D8F7809590958E0F9F1F08950F931F93E5
S11322A0CF93DF93FB01238121FD03C08FEF9FEFC9
S11322B02CC022FF16C046815781248135814217E4
S11322C0530744F4A081B1819D012F5F3F4F3183B7
S11322D020838C93268137812F5F3F4F378326835A
S11322E014C08B01EC01FB010084F185E02D0995FC
S11322F0892BE1F6D80116968D919C91179701963A
S113230017969C938E931697CE01DF91CF911F91D0
S11323100F910895FA01AA27283051F1203181F153
S1132320E8946F936E7F6E5F7F4F8F4F9F4FAF4FD9
S1132330B1E03ED0B4E03CD0670F781F891F9A1FEC
S1132340A11D680F791F8A1F911DA11D6A0F711DA0
S1132350811D911DA11D20D009F468943F912AE0AC
S1132360269F11243019305D3193DEF6CF01089594
S1132370462F4770405D4193B3E00FD0C9F7F6CFC5
S1132380462F4F70405D4A3318F0495D31FD40528D
S1132390419302D0A9F7EACFB4E0A6959795879523
S11323A077956795BA95C9F7009761057105089502
S11323B09B01AC010A2E06945795479537952795AE
S11323C0BA95C9F7620F731F841F951FA01D089546
S11323D02F923F924F925F926F927F928F929F9231
S11323E0AF92BF92CF92DF92EF92FF920F931F931F
S11323F0CF93DF93CDB7DEB7CA1BDB0B0FB6F894D0
S1132400DEBF0FBECDBF09942A88398848885F840F
S11324106E847D848C849B84AA84B984C884DF8080
S1132420EE80FD800C811B81AA81B981CE0FD11D64
S11324300FB6F894DEBF0FBECDBFED010895F8943A
S1052440FFCFC8
S11324420101010101010101A000002900050000B0
S11324522900040000290003000029000200554E4F
S113246245523A436D645F556E6B6E6F776E0A0028
S11324720D0A5B215D2053544F503A2043696E7418
S11324826120646574656E6964612E0D0A000D0A2B
S11324925B3F5D2053544F502069676E6F726164D5
S11324A26F3A204E6F2068617920636F6E65786998
S11324B26F6E206163746976612E0D0A000D0A5BEA
S11324C2215D20524553455420494E5445475241BB
S11324D24C3A20536F6674776172652079204861A3
S11324E2726477617265206C696D70696F732E0D09
S11324F20A002D2D2D2045535441444F204445209C
S113250243494E5441202D2D2D0051303A205B0079
S11325122564200051313A205B0051323A205B009D
S1132522F0F20150030B51110253F00259D501404C
S1132532FE0154350B56E501554B0B5FAD025E822D
S1072542025220021B
S9030000FC
