:100000000C943D000C945A000C945A000C945A0025
:100010000C945A000C945A000C945A000C945A00F8
:100020000C945A000C945A000C945A000C94A20799
:100030000C945A000C9423050C94D9040C945A0087
:100040000C945A000C945A000C944E060C947706AB
:100050000C945A000C945A000C945A000C945A00B8
:100060000C945A000C945A00C006C906D706E5063F
:10007000F306FE060C0726073F0711241FBECFEF2D
:10008000D8E0DEBFCDBF12E0A0E0B1E0EEE0F1E1EC
:1000900002C005900D92A431B107D9F724E0A4E184
:1000A000B2E001C01D92A43AB207E1F70E943E05FA
:1000B0000C9485080C940000CF93DF93FC01DB01C6
:1000C0008C91482381E009F480E0918189131FC05D
:1000D0008081893018F48F5F80831BC08930C9F418
:1000E000EF01411109C081E082830380F481E02D9A
:1000F000309749F0099507C012820580F681E02DFE
:10010000309709F0099588818F5F888302C010823B
:100110008183DF91CF910895809181038D3031F4F7
:1001200081E08093230280935002089581E08093C0
:100130005302089580918203EDE6F2E0808380917E
:100140008303818380918403828382E080932302EE
:10015000089581E0809323020895809181038D307A
:1001600019F410922302089581E0809353020895B8
:100170000895089560E01CC0F901EF57FC4F2081FD
:10018000FC01EF57FC4F80816E5F813089F4213094
:1001900041F018F0223049F00BC081E08093480212
:1001A00007C081E08093490203C081E080934A0246
:1001B000262F30E0C901019640917F0350E084175B
:1001C0009507D4F20895809181038093160281E00F
:1001D00080934702089540E060E070E080EF0E9465
:1001E000D7050895CF93DF9300D0CDB7DEB78091C8
:1001F0002302823021F0809123028130C1F440E05B
:1002000060E070E081E50E94D70587E089831A826B
:1002100042E0BE016F5F7F4F82E50E94D70581E01B
:100220008093230288E191E00E94CA0504C086E31E
:1002300091E00E94CA050F900F90DF91CF91089531
:1002400040E060E070E083E50E94D7058AE0E4E5E5
:10025000F2E0DF01982F1D929A95E9F7E0E7F2E0CE
:10026000DF01982F1D929A95E9F7EEE2F2E0DF01A7
:100270001D928A95E9F710921902109218021092B5
:100280001702109216021092150210921402E7E45F
:10029000F2E0108211821282138214821582168279
:1002A0001782108680E011C0E82FF0E09F01220F36
:1002B000331F220F331FE20FF31FE85CFD4F108244
:1002C00011821282138214828F5F833068F310923E
:1002D000230285E691E00E94CA0508950F931F93BB
:1002E000CF93DF9300D0CDB7DEB7833090F5062FE4
:1002F000182F662371F090E09C01220F331F220F0C
:10030000331F820F931F60E0825A9D4F0E9489071E
:100310000DC090E09C01220F331F220F331F820F6C
:10032000931F62E8825A9D4F0E94890781E090E006
:1003300002C0880F991F1A95E2F78983011101C045
:1003400080E08A8342E0BE016F5F7F4F82E50E94BA
:10035000D7050F900F90DF91CF911F910F910895C6
:100360000F931F93CF93C0E07AC08C2F90E0FC01D5
:10037000EE0FFF1FEE0FFF1FE80FF91FE85CFD4FA8
:100380002081213019F02230E9F168C040911F022C
:10039000509120026091210270912202FC01EE0F27
:1003A000FF1FEE0FFF1FE80FF91FE85CFD4F0181F3
:1003B000128123813481401B510B620B730B403A35
:1003C00051056105710508F449C0FC01EE0FFF1FDE
:1003D000EE0FFF1F8E0F9F1FFC01E85CFD4F82E0B8
:1003E000808380911F0290912002A0912102B09100
:1003F000220281839283A383B48360E08C2F0E94C6
:100400006E012CC040911F02509120026091210288
:1004100070912202FC01EE0FFF1FEE0FFF1FE80F8D
:10042000F91FE85CFD4F0181128123813481401B5B
:10043000510B620B730B403A51056105710570F069
:10044000FC01EE0FFF1FEE0FFF1F8E0F9F1FFC0121
:10045000E85CFD4F108288B18D7F88B9CF5FC330D3
:1004600008F483CFCF911F910F910895809153028B
:10047000882329F01092530283E080932302809115
:100480005002882341F01092500240E060E070E09A
:1004900080E50E94D70580915102882341F0109297
:1004A000510240E060E070E081E50E94D705809154
:1004B0005202882341F01092520240E060E070E066
:1004C00083E50E94D705089590E01CC0292F30E0F5
:1004D000F901EE0FFF1FE20FF31FE550FE4F4081C1
:1004E00048130FC0F901EE0FFF1F2E0F3F1FF90138
:1004F000E550FE4F0180F281E02D309749F00995DB
:1005000008959F5F983010F38AE991E00E94CA0530
:100510000895809123028130F9F018F0823001F1C2
:10052000089560911F0270912002809121029091A4
:10053000220220ED37E040E050E00E944E08643691
:1005400071058105910520F488B1816088B908950D
:1005500088B18E7F88B9089588B1816088B908957F
:1005600080911F0290912002A0912102B09122025D
:1005700040911A0250911B0260911C0270911D0261
:10058000841B950BA60BB70B84369105A105B1050D
:10059000A0F098B181E0892788B980911F029091DD
:1005A0002002A0912102B091220280931A0290931E
:1005B0001B02A0931C02B0931D020895CF938CEAF6
:1005C00091E00E94CA0588EC91E00E94CA05C0E053
:1005D00014C0EC2FF0E0EC5AFD4F8081882321F00D
:1005E0008A3021F0805D03C08DE201C088E50E9461
:1005F000B20580E20E94B205CF5FCA3050F38EECA4
:1006000091E00E94CA0582ED91E00E94CA05C0E017
:1006100014C0EC2FF0E0E059FD4F8081882321F0D9
:100620008A3021F0805D03C08DE201C088E50E9420
:10063000B20580E20E94B205CF5FCA3050F38EEC63
:1006400091E00E94CA0588ED91E00E94CA05C0E0D1
:1006500014C0EC2FF0E0E25DFD4F8081882321F093
:100660008A3021F0805D03C08DE201C088E50E94E0
:10067000B20580E20E94B205CF5FCA3050F38EED22
:1006800091E00E94CA05CF91089580914702882386
:10069000C1F080914B02811114C0809119028A30FF
:1006A00080F4E9E0F0E0E81BF109EC5AFD4F90918D
:1006B000160290838F5F80931902109247020E9466
:1006C000DE02809148028823A1F180914B028111C2
:1006D00030C01092480280911902882351F1809114
:1006E0005D0290916D02891315C0E8E3F2E081E0AC
:1006F000808380911F0290912002A0912102B091ED
:10070000220281839283A383B48361E080E00E940C
:100710006E0105C08093150281E080934E02109215
:100720005D028091190281508093190281E08093CB
:100730004B0280914E028823B1F080914C028111CE
:1007400012C0809118028A3070F4E9E0F0E0E81BF2
:10075000F10990911502E059FD4F90838F5F8093CE
:10076000180210924E02809149028823A1F18091D3
:100770004C02811130C010924902809118028823E6
:1007800051F18091790290916E02891315C0E8E3CE
:10079000F2E081E0858380911F0290912002A09178
:1007A0002102B091220286839783A087B18761E0FE
:1007B00081E00E946E0105C08093140281E0809365
:1007C0004F02109279028091180281508093180292
:1007D00081E080934C0280914F028823B1F0809198
:1007E0004D02811112C0809117028A3070F4E9E045
:1007F000F0E0E81BF10990911402E25DFD4F908357
:100800008F5F8093170210924F0280914A028823D3
:1008100071F180914D0281112AC010924A0280919B
:100820001702882321F19091370280916F0298136B
:1008300014C0E8E3F2E081E0828780911F0290918A
:100840002002A0912102B091220283879487A5877C
:10085000B68761E082E00E946E01109237028091BB
:10086000170281508093170281E080934D0280919E
:100870004B02882301F180910201282F30E0EAE049
:10088000F0E0E21BF30BA9E0B0E0A21BB30BAC5A03
:10089000BD4F9C91EC5AFD4F90838F5F8093020176
:1008A0008A3049F41092540210924B0281E08093F6
:1008B00002010E94DE0280914C02882301F18091A6
:1008C0000101282F30E0EAE0F0E0E21BF30BA9E0A1
:1008D000B0E0A21BB30BA059BD4F9C91E059FD4F56
:1008E00090838F5F809301018A3049F410927002E7
:1008F00010924C0281E0809301010E94DE028091FF
:100900004D02882301F180910001282F30E0EAE0B8
:10091000F0E0E21BF30BA9E0B0E0A21BB30BA25D79
:10092000BD4F9C91E25DFD4F90838F5F80930001EE
:100930008A3049F410922E0210924D0281E0809389
:1009400000010E94DE02089582E08093C00080E1F1
:1009500090E09093C5008093C40086E08093C2002D
:1009600088E98093C100089584B1806284B987B119
:10097000836087B988B18C7F88B987B1837E87B956
:1009800088B18C6188B98AB18C618AB9089582E096
:1009900084BD94E095BD9CE797BD80936E0008955B
:1009A0001092800082E08093810081E080936F004C
:1009B00008951F920F920FB60F9211242F933F9319
:1009C0004F935F936F937F938F939F93AF93BF9357
:1009D000EF93FF9380911F0290912002A09121023A
:1009E000B09122020296A11DB11D80931F02909327
:1009F0002002A0932102B093220244E066E270E05C
:100A000081E191E00E945C0048E066E270E08AE0EB
:100A100091E00E945C0040E166E270E083E091E0DA
:100A20000E945C00FF91EF91BF91AF919F918F91D8
:100A30007F916F915F914F913F912F910F900FBEDA
:100A40000F901F9018951F920F920FB60F921124BE
:100A50008F939F9380911E028F5F80931E028E3131
:100A600030F095B180E2892785B910921E029F91DE
:100A70008F910F900FBE0F901F901895F8940E94C1
:100A8000B4040E94A4040E94C7040E94D0040E94DF
:100A9000A705E7E4F2E01482158216821186128619
:100AA0001386148620E012C0822F90E0FC01EE0F26
:100AB000FF1FEE0FFF1F8E0F9F1FFC01E85CFD4F15
:100AC000108211821282138214822F5F233060F30E
:100AD000EDE6F2E010821182128242E06BE270E0F9
:100AE0008EE592E00E94520743E06BE270E083E6FD
:100AF00092E00E94520744E06BE270E088E692E0E8
:100B00000E945207C0E00FC08C2F90E09C01220F82
:100B1000331F220F331F820F931F62E8825A9D4FAB
:100B20000E948907CF5FC33078F3789440E060E09B
:100B300070E080EF0E94D7050E94A5060E94360251
:100B40000E94B0010E9445030E948902F5CF1092D5
:100B50007A0310927B0310927C031092A2041092ED
:100B6000A30408959091A2049F5F2091A30492177B
:100B700081F0A2EAB4E0EC91F0E0EE55FC4F808306
:100B80009C939FB7F894E1ECF0E0808180628083D1
:100B90009FBF0895CF93DF93EC0103C021960E947D
:100BA000B20588818111FACFDF91CF910895BF926C
:100BB000CF92DF92EF92FF920F931F93CF93DF9329
:100BC00000D000D0CDB7DEB7C82E7B01D42E85E58E
:100BD00089838EE48A8385E48B8382E58C836894A1
:100BE000BB24B1F8B40E80E000E009C0E1E0F0E021
:100BF000EC0FFD1FE80FF11D908109278F5F8430F6
:100C0000A8F30B258AE308270C25E114F10469F009
:100C1000D11008C00AC0F701E80FF11D9081092723
:100C20008F5F01C080E08D15B0F310E00AC0E1E0F5
:100C3000F0E0EC0FFD1FE10FF11D80810E94B20575
:100C40001F5F1430A0F38B2D0E94B2058AE30E942F
:100C5000B2058C2D0E94B205E114F10471F0D1109F
:100C600009C00BC0F701E10FF11D80810E94B205A0
:100C70001F5F01C010E01D15A8F3802F0E94B20570
:100C80000F900F900F900F90DF91CF911F910F91C8
:100C9000FF90EF90DF90CF90BF9008951F920F923A
:100CA0000FB60F9211242F938F939F93AF93BF93FF
:100CB000EF93FF932091C60080917A038F5F90910C
:100CC0007B03891741F0AAE7B3E0EC91F0E0E65826
:100CD000FD4F20838C93FF91EF91BF91AF919F9136
:100CE0008F912F910F900FBE0F901F9018951F920C
:100CF0000F920FB60F9211248F939F93AF93BF93D0
:100D0000EF93FF939091A3048091A204981769F048
:100D1000A3EAB4E0EC91F0E0EE55FC4F80818093C3
:100D2000C6008C918F5F8C9305C0E1ECF0E0808170
:100D30008F7D8083FF91EF91BF91AF919F918F91B4
:100D40000F900FBE0F901F901895CF93C0917A030C
:100D5000A3C0ABE7B3E0EC91F0E0E658FD4F208193
:100D60008C918F5F8C93E0917C038E2F90E0893083
:100D7000910508F091C0FC01EC5CFF4F0C947008E9
:100D8000253509F089C020937D0381E080937C03A1
:100D900083C02E3449F4EDE7F3E0808128272083D7
:100DA00082E080937C0378C010927C0375C0253468
:100DB00049F4EDE7F3E080812827208383E08093E6
:100DC0007C036AC010927C0367C0223549F4EDE7CA
:100DD000F3E080812827208384E080937C035CC03B
:100DE00010927C0359C020937E03EDE7F3E08081ED
:100DF0002827208385E080937C034EC02A3349F462
:100E0000EDE7F3E080812827208386E080937C0350
:100E100043C010927C0340C020938003EDE7F3E0D1
:100E200080812827208380917E03823010F08250B9
:100E300001C080E080937F031092A103882311F00A
:100E400087E001C088E080937C0326C08091A103E5
:100E5000803228F4E82FF0E0EF57FC4F20838F5FBB
:100E60008093A103EDE7F3E09081292720839091FF
:100E70007F03891788F088E080937C030DC0809100
:100E80007D03281307C040E060E070E0809180039C
:100E90000E94640210927C0380917B03C81359CF97
:100EA000CF910895FC0171836083428380E494E0D4
:100EB00094838383DB018C9121E030E002C0220F18
:100EC000331F4A95E2F7209528232C93809127021F
:100ED000833058F4A82FB0E0AA0FBB1FA85DBD4F08
:100EE000ED93FC938F5F80932702809127028130DE
:100EF00079F4EFE6F0E08081826080838091840065
:100F0000909185008C599F4F909389008093880021
:100F10000895CF93DF93EC01653B08F064EB262F37
:100F200030E0A0E8BEE00E94760824EB30E040E02C
:100F300050E00E944E08205C3B4F3C832B83DF91A6
:100F4000CF9108951F920F920FB60F9211242F93F5
:100F50003F934F935F938F939F93AF93BF93EF9381
:100F6000FF9380912702882309F489C020912602EB
:100F7000E22FE695422F50E090E0880F991F481726
:100F800059070CF05BC020FD2AC0F0E0EE0FFF1FF8
:100F9000E85DFD4F0190F081E02DA081B1812C91A1
:100FA00081E090E0028002C0880F991F0A94E2F766
:100FB000822B8C9383819481E8E8F0E02081318159
:100FC000280F391F3183208320912402309125027C
:100FD000820F931F909325028093240229C0F0E092
:100FE000EE0FFF1FE85DFD4FA081B181ED91FC91F7
:100FF0001197208181E090E012960C9002C0880F3A
:10100000991F0A94E2F7809582238083E8E8F0E054
:10101000808191818C599F4F91838083809124029C
:10102000909125028C599F4F909325028093240222
:10103000809126028F5F8093260221C02091240296
:101040003091250220348CE9380758F4E8E8F0E0C4
:1010500080819181821B930B805C93469183808376
:1010600008C0E8E8F0E0808191818C599F4F91831E
:101070008083109226021092250210922402FF9182
:10108000EF91BF91AF919F918F915F914F913F9160
:101090002F910F900FBE0F901F901895A1E21A2E5E
:1010A000AA1BBB1BFD010DC0AA1FBB1FEE1FFF1F0C
:1010B000A217B307E407F50720F0A21BB30BE40B5C
:1010C000F50B661F771F881F991F1A9469F76095A3
:1010D0007095809590959B01AC01BD01CF0108955D
:1010E000EE0FFF1F0590F491E02D0994A29FB0012F
:1010F000B39FC001A39F700D811D1124911DB29F4C
:0E110000700D811D1124911D0895F894FFCFEC
:10110E0001010100010020010000000100F20000B9
:10111E0000000100EB0000000D0A5B215D2053541E
:10112E004F503A2043696E746120646574656E6930
:10113E0064612E0D0A000D0A5B3F5D2053544F5023
:10114E002069676E6F7261646F3A204E6F2068611E
:10115E007920636F6E6578696F6E2061637469764E
:10116E00612E0D0A000D0A5B215D20524553455438
:10117E0020494E54454752414C3A20536F6674777E
:10118E006172652079204861726477617265206CA6
:10119E00696D70696F732E0D0A00554E45523A43B4
:1011AE006D645F556E6B6E6F776E0A000D0A2D2D96
:1011BE002D2045535441444F2044452043494E541D
:1011CE0041202D2D2D0D0A0051303A205B005D0D72
:1011DE000A0051313A205B0051323A205B005D0D1E
:1011EE000A2D2D2D2D2D2D2D2D2D2D2D2D2D2D2D44
:1011FE002D2D2D2D2D2D2D2D0D0A00F08C00509AFC
:10120E000051A90052B80053AD0054B9005EBA00A7
:04121E005FE300008A
:00000001FF
