S01D0000436F6D756E69636163696F6E53696D7543696E74612E73726563A2
S11300000C943D000C945A000C945A000C945A0021
S11300100C945A000C945A000C945A000C945A00F4
S11300200C945A000C945A000C945A000C949F0E91
S11300300C945A000C945A000C94D90B0C945A004A
S11300400C945A000C945A000C944B0D0C94740D9F
S11300500C945A000C945A000C945A000C945A00B4
S11300600C945A000C945A00BD0DC60DD40DE20D2B
S1130070F00DFB0D090E230E3C0E11241FBECFEF15
S1130080D8E0DEBFCDBF12E0A0E0B1E0E8E2F5E2E7
S113009002C005900D92A831B107D9F725E0A8E177
S11300A0B2E001C01D92A832B207E1F70E94FE0B34
S11300B00C9492120C940000FC018081811112C0F6
S11300C0A181B28111962C91119781E090E0038077
S11300D002C0880F991F0A94E2F780958223119633
S11300E08C9308958130C9F437B181E090E0AC017C
S11300F0048002C0440F551F0A94E2F7242F209570
S1130100232327B9AEE7B0E02C91048002C0880F06
S1130110991F0A94E2F7822B8C930895FC01808145
S113012081110FC0A181B2812C9130E0C9010380FB
S113013002C0959587950A94E2F780FF04C081E098
S1130140089580E0089580E00895CF92DF92EF92C1
S1130150FF92CF93DF93EC018E85833009F443C083
S113016028F4813051F0823081F17EC0843009F46A
S113017052C0853009F45EC077C0EC85FD850995D1
S1130180CF84D888E988FA889B01AC012C193D09F1
S11301904E095F0969017A012093400230934102BC
S11301A040934202509343022C813D814E815F81F2
S11301B0A8EEB3E00E94920FC616D706E806F90629
S11301C008F452C082E08E874FC0E885F98581E04B
S11301D00995EC85FD8509956F87788B898B9A8BBA
S11301E083E08E8741C0EC85FD850995CF84D8884E
S11301F0E988FA88DC01CB018C199D09AE09BF0995
S11302000A97A105B10580F1E885F98580E0099593
S113021084E08E8729C0EA85FB850995813021F524
S1130220EC85FD8509956F87788B898B9A8B85E0A2
S11302308E871AC0EA85FB850995811115C0EC8566
S1130240FD850995CF84D888E988FA886C197D09D9
S11302508E099F092AE330E040E050E00E945B0FE2
S11302603C8B2B8B86E08E87DF91CF91FF90EF90B4
S1130270DF90CF900895FF928330D8F590E027E186
S1130280289FF001299FF00D1124E754FD4F268982
S1130290253078F5E7E1E89F9001E99F300D1124BE
S11302A0D901A754BD4F5496FC905497EF2DF0E01C
S11302B0EE0FFF1FEE0FFF1F2E0F3F1FF901E75434
S11302C0FD4F408351836283738321E02F0D549645
S11302D02C935497253010F0FD01148A27E1289FB0
S11302E0F001299FF00D1124E754FD4F86898F5F9B
S11302F0868BFF900895282F30E087E1829FF001DC
S1130300839FF00D1124E754FD4F86898823F1F073
S113031047E1429FC001439F900D1124FC01E75423
S1130320FD4FE589F0E0EE0FFF1FEE0FFF1F8E0F6C
S11303309F1FFC01E754FD4F80819181A281B3810D
S1130340FB0180839183A283B38381E0089590E0CD
S113035027E1289FF001299FF00D1124E754FD4F58
S11303602689222309F127E1289FF001299FF00D16
S11303701124E754FD4F25892F5F258B253048F044
S113038027E1289FF001299FF00D1124E754FD4F28
S1130390158A27E1289FF001299FF00D1124E754C5
S11303A0FD4F86898150868B0895809103048430A3
S11303B0D8F0209105048091060490E0982F8827B6
S11303C0822B909311018093100120910704809156
S11303D0080490E0982F8827822B90930F01809334
S11303E00E0181E0809378020895809103048230A5
S11303F0A8F0209105048091060490E0982F8827A6
S1130400822BA0E0B0E080939E0290939F02A09381
S1130410A002B093A10281E08093770208958091B5
S11304200304882359F081E090910504911101C0DF
S113043080E0EDE5F2E0808381E0878B0895809190
S113044003048630D8F08091050480930D018091D7
S1130450060480930C018091070480930B01809122
S1130460080480930A018091090480930901809112
S11304700A048093080181E08093750208958091B5
S11304800304882341F081E090910504911101C097
S113049080E080935E02089580910304882339F0FC
S11304A0809105048D3019F481E08093350208951C
S11304B080910304833070F080910504E7E9F2E051
S11304C0808380910604818380910704828381E084
S11304D080936E02089581E08093350288B1816033
S11304E088B980910304882321F0809105048D301C
S11304F019F081E080936C0208950F931F9380910B
S11305000304813029F4909105049F3F09F454C0F9
S1130510823008F451C0909105046091060480E093
S113052048C0282F30E0492F50E0082E02C05595CE
S113053047950A94E2F740FF3BC0462F50E0082E4F
S113054002C0559547950A94E2F740FF19C0F90196
S1130550EE0FFF1FEE0FFF1F2E0F3F1FF901E25B8F
S1130560FD4F21E02083009131021091320220914D
S1130570330230913402018312832383348318C0FD
S1130580F901EE0FFF1FEE0FFF1F2E0F3F1FF901A2
S1130590E25BFD4F23E0208300913102109132028F
S11305A020913302309134020183128323833483F4
S11305B08F5F833008F4B5CF1F910F910895109287
S11305C05F0260E01CC0F901EB5FFB4F2081FC017E
S11305D0EB5FFB4F80816E5F813089F4213041F005
S11305E018F0223049F00BC081E08093610207C00B
S11305F081E08093620203C081E080936302262F2E
S113060030E0C90101964091030450E08417950736
S1130610D4F20895EDE5F2E012828091050480930E
S1130620290281E083830895882321F085B18260C3
S113063085B9089585B18D7F85B9089583B182FB0D
S1130640882780F908952091840030918500809155
S11306501C0290911D02A901481B590B809118029C
S113066090911902A0911A02B0911B02840F951F58
S1130670A11DB11D8093180290931902A0931A0230
S1130680B0931B0230931D0220931C02BC01CD01C8
S113069096958795779567950895CF93DF9388B15D
S11306A0816088B98AE0EAE7F2E0DF01C82F1D9291
S11306B0CA95E9F7EFEAF2E0DF01C82F1D92CA9567
S11306C0E9F7E4E4F2E0DF011D928A95E9F710927C
S11306D02C0210922B0210922A02109229021092DC
S11306E0280210922702EDE5F2E0138214821582AB
S11306F016821782108611861286138685E4A9EB6A
S1130700B2E0ED0119928A95E9F7109279021092FC
S1130710230210922402109225021092260281E0F4
S113072080930701148A80E011C0E82FF0E09F0154
S1130730220F331F220F331FE20FF31FE25BFD4F23
S1130740108211821282138214828F5F833068F3C5
S113075081E080935F0280933502809103048823B3
S113076031F0809105048D3029F08A3019F081E050
S113077080936D02DF91CF910895CF92DF92EF9233
S1130780FF921F93CF93DF931F92CDB7DEB7809173
S11307905D028111BAC080913502823009F0B5C082
S11307A083E291E00E948E00182FF8948091310228
S11307B090913202A0913302B091340278941111D5
S11307C016C080910701813091F4F8948091310230
S11307D090913202A0913302B091340280932302AB
S11307E090932402A0932502B093260278941130AA
S11307F009F089C080910701811185C0F894C090E7
S11308003102D0903202E0903302F09034028091B1
S1130810230290912402A0912502B0912602C81AC5
S1130820D90AEA0AFB0A789484E1C816D104E104DF
S1130830F10408F468C060E47FE180E090E0A7017F
S113084096010E945B0F2093790281E080937102EC
S11308509091970280912902981751F090919802F3
S1130860891741F090919902891731F0EFEF05C093
S1130870E0E003C0E1E001C0E2E0EF3FD1F1E130AC
S113088039F080F0E23049F080E090E0DC010EC005
S113089088E590E0A0E0B0E009C088E890E0A0E03E
S11308A0B0E004C08DE290E0A0E0B0E0BC01CD0176
S11308B06C5F7F4F8F4F9F4FA70196010E944B0F94
S11308C0AB01BC01689412F87695679557954795E6
S11308D01694D1F78091230290912402A0912502CD
S11308E0B0912602480F591F6A1F7B1F8E2F0E944A
S11308F03B0180912902898341E0BE016F5F7F4FF4
S11309008FE50E94D40C109307010F90DF91CF91D3
S11309101F91FF90EF90DF90CF9008950F931F9356
S1130920CF93DF9300D0CDB7DEB7833090F5062F99
S1130930182F662371F090E09C01220F331F220FC1
S1130940331F820F931F60E088579D4F0E94860ECD
S11309500DC090E09C01220F331F220F331F820F22
S1130960931F62E888579D4F0E94860E81E090E0B5
S113097002C0880F991F1A95E2F78983011101C0FB
S113098080E08A8342E0BE016F5F7F4F82E50E9470
S1130990D40C0F900F90DF91CF911F910F91089578
S11309A08F929F92AF92BF92FF920F931F93CF9318
S11309B0DF9300D000D0CDB7DEB7F8948090310239
S11309C090903202A0903302B09034027894F12CCB
S11309D0EBC00F2D10E0F801EE0FFF1FEE0FFF1F0D
S11309E0E00FF11FE25BFD4F80818130E1F138F0CF
S11309F0823009F47CC0833009F4ACC0D4C0809147
S1130A005D028111D0C0BE016F5F7F4F8F2D0E94A8
S1130A107B01882309F4C7C089819A81AB81BC8199
S1130A20A5019401281B390B4A0B5B0B0AF4BBC0CC
S1130A308F2D0E94A70161E08F2D0E948E04F80182
S1130A40EE0FFF1FEE0FFF1F0E0F1F1FF801E25BDB
S1130A50FD4F82E0808381829282A382B48281E00E
S1130A6080937102A0C080915D028823A1F1F801F6
S1130A70EE0FFF1FEE0FFF1FE00FF11FE25BFD4FB4
S1130A8081819281A381B481B501A401481B590BD2
S1130A906A0B7B0B8091120190911301A0E0B0E0EE
S1130AA0481759076A077B0708F47DC061E08F2D5A
S1130AB00E948E04F801EE0FFF1FEE0FFF1F0E0FB2
S1130AC01F1FF801E25BFD4F82E0808381829282E6
S1130AD0A382B48268C0F801EE0FFF1FEE0FFF1F60
S1130AE00E0F1F1FF801E25BFD4F10825CC0F8017E
S1130AF0EE0FFF1FEE0FFF1FE00FF11FE25BFD4F34
S1130B0081819281A381B481B501A401481B590B51
S1130B106A0B7B0B8091100190911101A0E0B0E071
S1130B20481759076A077B07F0F160E08F2D0E9490
S1130B308E04F801EE0FFF1FEE0FFF1F0E0F1F1F95
S1130B40F801E25BFD4F83E0808381829282A3827D
S1130B50B48229C0F801EE0FFF1FEE0FFF1FE00F54
S1130B60F11FE25BFD4F81819281A381B481B501C4
S1130B70A401481B590B6A0B7B0B80910E019091C9
S1130B800F01A0E0B0E0481759076A077B0758F047
S1130B90F801EE0FFF1FEE0FFF1F0E0F1F1FF801CE
S1130BA0E25BFD4F1082F39432E03F1508F011CF61
S1130BB00F900F900F900F90DF91CF911F910F9195
S1130BC0FF90BF90AF909F908F9008951F93CF9305
S1130BD0DF9300D0CDB7DEB780913502823009F0C3
S1130BE04EC080915F02882309F449C08EE191E0F0
S1130BF00E948E00182F81110FC080910301813053
S1130C0059F48093610219828A8342E0BE016F5FC6
S1130C107F4F8EE50E94D40C1093030189E191E08B
S1130C200E948E00182F81110FC080910201813023
S1130C3059F48093620289838A8342E0BE016F5F24
S1130C407F4F8EE50E94D40C1093020184E191E061
S1130C500E948E00182F811110C0809101018130F3
S1130C6061F48093630292E099838A8342E0BE0137
S1130C706F5F7F4F8EE50E94D40C109301010F909B
S1130C800F90DF91CF911F910895EF92FF921F93E0
S1130C90CF93DF931F92CDB7DEB783E291E00E943A
S1130CA08E0011E0811101C010E0811155C08091C6
S1130CB00001882309F450C08091A80281114CC01E
S1130CC08091310290913202A0913302B0913402AA
S1130CD040911F02509120026091210270912202E2
S1130CE0841B950BA60BB70B893C9105A105B10597
S1130CF098F10F2EFAE9EF2EF2E0FF2EF02DD70136
S1130D001C96ED91FC911D970995F7016787708BEF
S1130D10818B928B81E0868780913102909132029F
S1130D20A0913302B091340280931F029093200269
S1130D30A0932102B0932202809131029091320259
S1130D40A0913302B091340280938402909385027F
S1130D50A0938602B0938702109300018AE992E07F
S1130D600E94A50080911E028130A1F48091A80206
S1130D70823081F48091310290913202A091330249
S1130D80B09134028093840290938502A0938602EA
S1130D90B09387028091A80280931E028230D8F01B
S1130DA08091310290913202A0913302B0913402C9
S1130DB0409184025091850260918602709187026D
S1130DC0841B950BA60BB70B85369105A105B105C0
S1130DD010F01092A8028091A802863009F042C057
S1130DE08091AD029091AE0220910D0130E0821706
S1130DF0930730F020910C0130E028173907D0F424
S1130E0020910B0130E08217930730F020910A0102
S1130E1030E02817390780F42091090130E0821767
S1130E20930760F02091080130E02817390740F457
S1130E3080E007C086E005C088E003C080E001C010
S1130E408AE0882369F08093290291E090936002FC
S1130E50898341E0BE016F5F7F4F8FE50E94D40C10
S1130E601092A8020F90DF91CF911F91FF90EF9005
S1130E700895CF93DF9300D000D01F92CDB7DEB793
S1130E8080917302882371F01092730283E080933F
S1130E9035028BB181608BB940E060E070E081E5A0
S1130EA00E94D40C80917202882341F01092720245
S1130EB040E060E070E08AE50E94D40C8091690211
S1130EC0882341F01092690240E060E070E080EF16
S1130ED00E94D40C80916A02882359F010926A020D
S1130EE08DE0898341E0BE016F5F7F4F80EF0E94F8
S1130EF0D40C80916B02882341F010926B0240E085
S1130F0060E070E080E50E94D40C80916C0288233C
S1130F1041F010926C0240E060E070E081E50E94D4
S1130F20D40C80916D02882341F010926D0240E050
S1130F3060E070E083E50E94D40C80917402882301
S1130F4061F0EDE5F2E0178A8081898341E0BE011A
S1130F506F5F7F4F89E50E94D40C80916E028823D5
S1130F6089F010926E02E7E9F2E080818983818141
S1130F708A8382818B8343E0BE016F5F7F4F80E46D
S1130F800E94D40C80916F02882359F010926F0252
S1130F908DE0898341E0BE016F5F7F4F84E50E944D
S1130FA0D40C80917002882399F010927002809181
S1130FB01201909113018983809112019091130180
S1130FC09A8342E0BE016F5F7F4F85E50E94D40C97
S1130FD080917602882361F0EDE5F2E0118E818143
S1130FE0898341E0BE016F5F7F4F86E50E94D40C88
S1130FF080917702882379F01092770290919E0273
S113100080919F0299838A8342E0BE016F5F7F4F84
S113101087E50E94D40C809171028823C1F010925C
S11310207102809179028983809129028A83E9EB94
S1131030F2E086898B8385A58C838091FD028D8364
S113104045E0BE016F5F7F4F88E50E94D40C80911C
S11310507802882341F01092780240E060E070E06A
S113106082E60E94D40C0F900F900F900F900F9077
S1131070DF91CF91089590E01CC0292F30E0F90151
S1131080EE0FFF1FE20FF31FE651FE4F408148139E
S11310900FC0F901EE0FFF1F2E0F3F1FF901E6519C
S11310A0FE4F0180F281E02D309749F009950895B3
S11310B09F5F9F3010F388E291E00E94C70C08956F
S11310C080913502813011F130F0823019F1833092
S11310D009F44FC0089560913102709132028091F9
S11310E033029091340220ED37E040E050E00E945A
S11310F05B0F643671058105910520F485B180622A
S113110085B9089585B18F7D85B9089585B18062CB
S113111085B908958091310290913202A0913302F1
S1131120B091340240912D0250912E0260912F0211
S113113070913002841B950BA60BB70B8436910576
S1131140A105B10508F442C095B180E2892785B9AB
S11311508091310290913202A0913302B091340215
S113116080932D0290932E02A0932F02B09330020D
S113117008958091310290913202A0913302B0918E
S1131180340240912D0250912E0260912F027091F1
S11311903002841B950BA60BB70B843F9140A1052D
S11311A0B105A0F095B180E2892785B9809131021B
S11311B090913202A0913302B091340280932D02B7
S11311C090932E02A0932F02B09330020895FC0155
S11311D001900020E9F73197AF01481B590BBC017E
S11311E080E70E94D40C0895EF92FF920F931F930F
S11311F0CF93DF93CDB7DEB7C854D1090FB6F894B7
S1131200DEBF0FBECDBF8CEB91E00E94E70886E005
S1131210E4EDF1E0DE01119601900D928A95E1F77B
S113122010E01FC0E12FF0E0E658FD4F80811F92CF
S11312308F938AED91E09F938F937E0181E4E80E72
S1131240F11CFF92EF920E94A80FB701CE01019604
S11312500E949D0F1F5F0F900F900F900F900F90A3
S11312600F901A30F8F28E010F5F1F4FF8010190B2
S11312700020E9F731978DE590E091838083C801E0
S11312800E94E70886E0EEEDF1E0D80101900D92AE
S11312908A95E1F710E01FC0E12FF0E0E155FD4F22
S11312A080811F928F938AED91E09F938F937E01AB
S11312B081E4E80EF11CFF92EF920E94A80FB7019F
S11312C0CE0101960E949D0F1F5F0F900F900F900B
S11312D00F900F900F901A30F8F28E010F5F1F4F8E
S11312E0F80101900020E9F731978DE590E09183B2
S11312F08083C8010E94E70886E0E4EEF1E0D801AB
S113130001900D928A95E1F710E01FC0E12FF0E003
S1131310EC5BFD4F80811F928F938AED91E09F9348
S11313208F937E0181E4E80EF11CFF92EF920E94FC
S1131330A80FB701CE0101960E949D0F1F5F0F9069
S11313400F900F900F900F900F901A30F8F2CE017B
S11313500196FC0101900020E9F731972DE530E07A
S1131360318320830E94E708C85BDF4F0FB6F894EF
S1131370DEBF0FBECDBFDF91CF911F910F91FF90C4
S1131380EF90089580915D02882309F455C18091FE
S11313903502823009F050C1809160028823C1F087
S11313A080916402811114C080912C028A3080F4EF
S11313B0E9E0F0E0E81BF109E658FD4F90912902BD
S11313C090838F5F80932C02109260020E94F40835
S11313D080916102882381F18091640281112CC083
S11313E01092610280912C02882331F18091830252
S11313F090919702891311C0EEE4F2E081E08083BA
S11314008091310290913202A0913302B091340262
S113141081839283A383B48305C08093280281E0EF
S1131420809367021092830280912C0281508093F2
S11314302C0281E080936402809167028823B1F0DA
S113144080916502811112C080912B028A3070F460
S1131450E9E0F0E0E81BF10990912802E155FD4F25
S113146090838F5F80932B021092670280916202B7
S1131470882381F18091650281112CC0109262024F
S113148080912B02882331F18091B80290919802C7
S1131490891311C0EEE4F2E081E08583809131028A
S11314A090913202A0913302B091340286839783E3
S11314B0A087B18705C08093270281E080936802EA
S11314C01092B80280912B02815080932B0281E00C
S11314D080936502809168028823B1F0809166024E
S11314E0811112C080912A028A3070F4E9E0F0E0A0
S11314F0E81BF10990912702EC5BFD4F90838F5F0D
S113150080932A021092680280916302882341F139
S113151080916602811124C01092630280912A0294
S11315208823F1F020914D0290919902291310C063
S1131530EEE4F2E091E09287409131025091320260
S113154060913302709134024387548765877687AC
S113155010924D02815080932A0281E080936602AA
S113156080916402882301F180910601282F30E0E4
S1131570EAE0F0E0E21BF30BA9E0B0E0A21BB30B3E
S1131580A658BD4F9C91E658FD4F90838F5F809382
S113159006018A3049F410927A021092640281E0C2
S11315A0809306010E94F40880916502882301F16A
S11315B080910501282F30E0EAE0F0E0E21BF30B14
S11315C0A9E0B0E0A21BB30BA155BD4F9C91E1551E
S11315D0FD4F90838F5F809305018A3049F4109208
S11315E0AF021092650281E0809305010E94F40825
S11315F080916602882301F180910401282F30E054
S1131600EAE0F0E0E21BF30BA9E0B0E0A21BB30BAD
S1131610AC5BBD4F9C91EC5BFD4F90838F5F8093DF
S113162004018A3049F4109244021092660281E067
S1131630809304010E94F408089582E08093C0001E
S113164080E190E09093C5008093C40086E080938D
S1131650C20088E98093C100089584B1806284B98E
S113166084B1826084B984B18B7F84B98AB1806883
S11316708AB984B1806184B984B1886084B98AB13B
S1131680837C8AB98BB18C638BB987B1816087B94C
S113169088B1816088B9089582E084BD94E095BDE5
S11316A09CE797BD80936E0008951092800082E0BD
S11316B080938100089580915E02811111C0209170
S11316C07902222369F030E040E050E060EC7DE5EF
S11316D080E090E00E945B0F30931301209312018D
S11316E081E0809370020895809103048430C0F0F7
S11316F0809105048093790280910604E7E9F2E081
S113170080838091070481838091080482830E94EE
S11317105B0B88B18E7F88B982E08093350208958F
S1131720811119C080919702882391F080919802C9
S1131730882371F080919902882351F088B18E7FBB
S113174088B982E08093350281E080936B0208952A
S113175081E080937202089580910304882389F0C4
S113176080910504809379020E945B0B80910304AD
S1131770823020F0809106048D3019F081E080934E
S11317806F02089580910304823090F080915E028C
S1131790882361F0209105048091060490E0982F3D
S11317A08827822B90931301809312010E945B0B74
S11317B008951F920F920FB60F9211248F939F9347
S11317C0AF93BF938091310290913202A091330282
S11317D0B09134020296A11DB11D80933102909301
S11317E03202A0933302B0933402BF91AF919F9120
S11317F08F910F900FBE0F901F901895F8940E9430
S11318002D0B0E941D0B0E944C0B0E94550B0E9435
S1131810A40CEDE5F2E01782108611861686178671
S1131820108A168A20E012C0822F90E0FC01EE0F8D
S1131830FF1FEE0FFF1F8E0F9F1FFC01E25BFD4F8A
S1131840108211821282138214822F5F233060F37C
S113185047E06BE270E088E892E00E944F0E43E0BC
S113186065E270E08DE892E00E944F0E44E065E28C
S113187070E082E992E00E944F0EC0E00FC08C2F0E
S113188090E09C01220F331F220F331F820F931FFE
S113189062E888579D4F0E94860ECF5FC33078F36D
S11318A0109284021092850210928602109287028E
S11318B0EAE9F2E088EE93E0A0E0B0E08483958367
S11318C0A683B78384E193E0918780878EE193E0D8
S11318D09387828783E293E095878487168683E2E1
S11318E091E00E945C008EE191E00E945C0089E13D
S11318F091E00E945C0084E191E00E945C0088B168
S1131900816088B91092130110921201CDE5D2E0E2
S113191011E01983789440E060E070E080EF0E9469
S1131920D40C1A8318830E94A20D0E9445060E94BB
S1131930E6050E94BD030E94C2090E94D0040E94D1
S113194039070E946008EFCF1092FE031092FF0344
S11319501092000410922605109227050895909184
S113196026059F5F20912705921781F0A6E2B5E036
S1131970EC91F0E0EA5DFB4F80839C939FB7F89471
S1131980E1ECF0E08081806280839FBF0895CF9373
S1131990DF93EC0103C021960E94AF0C8881811172
S11319A0FACFDF91CF910895BF92CF92DF92EF9259
S11319B0FF920F931F93CF93DF9300D000D0CDB746
S11319C0DEB7C82E7B01D42E85E589838EE48A8315
S11319D085E48B8382E58C836894BB24B1F8B40ED0
S11319E080E000E009C0E1E0F0E0EC0FFD1FE80F4B
S11319F0F11D908109278F5F8430A8F30B258AE3BA
S1131A0008270C25E114F10469F0D11008C00AC0BC
S1131A10F701E80FF11D908109278F5F01C080E075
S1131A208D15B0F310E00AC0E1E0F0E0EC0FFD1F0B
S1131A30E10FF11D80810E94AF0C1F5F1430A0F3F1
S1131A408B2D0E94AF0C8AE30E94AF0C8C2D0E9458
S1131A50AF0CE114F10471F0D11009C00BC0F7010F
S1131A60E10FF11D80810E94AF0C1F5F01C010E0E7
S1131A701D15A8F3802F0E94AF0C0F900F900F90AC
S1131A800F90DF91CF911F910F91FF90EF90DF9016
S1131A90CF90BF9008951F920F920FB60F9211240A
S1131AA02F938F939F93AF93BF93EF93FF932091C3
S1131AB0C6008091FE038F5F9091FF03891741F068
S1131AC0AEEFB3E0EC91F0E0E250FD4F20838C9355
S1131AD0FF91EF91BF91AF919F918F912F910F90B3
S1131AE00FBE0F901F9018951F920F920FB60F9272
S1131AF011248F939F93AF93BF93EF93FF93909190
S1131B00270580912605981769F0A7E2B5E0EC91C6
S1131B10F0E0EA5DFB4F80818093C6008C918F5F7B
S1131B208C9305C0E1ECF0E080818F7D8083FF9190
S1131B30EF91BF91AF919F918F910F900FBE0F9036
S1131B401F901895CF93C091FE03A3C0AFEFB3E0ED
S1131B50EC91F0E0E250FD4F20818C918F5F8C93EB
S1131B60E09100048E2F90E08930910508F091C037
S1131B70FC01EC5CFF4F0C947D0F253509F089C006
S1131B802093010481E08093000483C02E3449F43F
S1131B90E1E0F4E080812827208382E08093000440
S1131BA078C01092000475C0253449F4E1E0F4E0F3
S1131BB080812827208383E0809300046AC01092E8
S1131BC0000467C0223549F4E1E0F4E0808128276D
S1131BD0208384E0809300045CC01092000459C008
S1131BE020930204E1E0F4E080812827208385E04B
S1131BF0809300044EC02A3349F4E1E0F4E080818C
S1131C002827208386E08093000443C010920004B8
S1131C1040C020930404E1E0F4E08081282720837D
S1131C2080910204823010F0825001C080E08093E1
S1131C30030410922504882311F087E001C088E092
S1131C408093000426C080912504803228F4E82F74
S1131C50F0E0EB5FFB4F20838F5F80932504E1E08E
S1131C60F4E090812927208390910304891788F058
S1131C7088E0809300040DC080910104281307C0FC
S1131C8040E060E070E0809104040E943B08109200
S1131C9000048091FF03C81359CFCF910895FC012C
S1131CA071836083428380E494E094838383DB01C3
S1131CB08C9121E030E002C0220F331F4A95E2F7F5
S1131CC0209528232C9380913902833058F4A82F2F
S1131CD0B0E0AA0FBB1FA65CBD4FED93FC938F5FD2
S1131CE08093390280913902813079F4EFE6F0E093
S1131CF080818260808380918400909185008C59DA
S1131D009F4F90938900809388000895CF93DF9329
S1131D10EC01653B08F064EB262F30E0A0E8BEE060
S1131D200E94830F24EB30E040E050E00E945B0F00
S1131D30205C3B4F3C832B83DF91CF9108951F920E
S1131D400F920FB60F9211242F933F934F935F93EB
S1131D508F939F93AF93BF93EF93FF938091390237
S1131D60882309F489C020913802E22FE695422F96
S1131D7050E090E0880F991F481759070CF05BC09A
S1131D8020FD2AC0F0E0EE0FFF1FE65CFD4F01903E
S1131D90F081E02DA081B1812C9181E090E002805E
S1131DA002C0880F991F0A94E2F7822B8C938381D7
S1131DB09481E8E8F0E020813181280F391F3183D4
S1131DC020832091360230913702820F931F909323
S1131DD037028093360229C0F0E0EE0FFF1FE65C65
S1131DE0FD4FA081B181ED91FC911197208181E09B
S1131DF090E012960C9002C0880F991F0A94E2F7A3
S1131E00809582238083E8E8F0E0808191818C5979
S1131E109F4F9183808380913602909137028C5931
S1131E209F4F9093370280933602809138028F5FE0
S1131E308093380221C02091360230913702203439
S1131E408CE9380758F4E8E8F0E080819181821B3E
S1131E50930B805C93469183808308C0E8E8F0E0AC
S1131E60808191818C599F4F918380831092380295
S1131E701092370210923602FF91EF91BF91AF9109
S1131E809F918F915F914F913F912F910F900FBE32
S1131E900F901F901895DB018F939F930E94920FD0
S1131EA0BF91AF91A29F800D911DA39F900DB29FF2
S1131EB0900D11240895A1E21A2EAA1BBB1BFD014B
S1131EC00DC0AA1FBB1FEE1FFF1FA217B307E40715
S1131ED0F50720F0A21BB30BE40BF50B661F771F6D
S1131EE0881F991F1A9469F760957095809590954D
S1131EF09B01AC01BD01CF010895EE0FFF1F0590BA
S1131F00F491E02D0994A29FB001B39FC001A39F57
S1131F10700D811D1124911DB29F700D811D11241E
S1131F20911D08950E94830FA59F900DB49F900D5D
S1131F30A49F800D911D11240895FB01DC010D90D7
S1131F400020E9F7119701900D920020E1F7089520
S1131F50AEE0B0E0EEEAFFE00C9469120D891E8950
S1131F6086E08C831A8309838FEF9FE79E838D839A
S1131F70AE01475E5F4F6F89788DCE0101960E9456
S1131F80CA0FEF81F885E00FF11F10822E96E4E06E
S1131F900C948512ABE0B0E0E0EDFFE00C945B1232
S1131FA06C017B018A01FC0117821682838181FF07
S1131FB0CCC1CE0101963C01F6019381F70193FD5A
S1131FC0859193FF81917F01882309F4BAC18532F9
S1131FD039F493FD859193FF81917F01853229F432
S1131FE0B60190E00E94C111E7CF912C212C312C35
S1131FF0FFE1F315D8F08B3279F038F4803279F0C0
S11320008332A1F4232D20611DC08D3261F0803311
S113201069F4232D216016C0832D8260382EE32DB0
S1132020E4603E2E2AC0F32DF8601DC037FC2DC09D
S113203020ED280F2A3040F08E32B9F436FC81C1ED
S1132040232D2064322E19C036FE06C08AE0989EE5
S1132050200D1124922E11C0EAE02E9E200D112491
S1132060222EF32DF0623F2E08C08C3621F4832DEE
S11320708068382E02C0883641F4F70193FD8591BB
S113208093FF81917F018111B3CF982F9F7D955448
S1132090933028F40C5F1F4F9FE399830DC0833660
S11320A031F0833771F0833509F059C021C0F8014C
S11320B0808189830E5F1F4F88248394912C530160
S11320C013C02801F2E04F0E511CF801A080B1802A
S11320D036FE03C0692D70E002C06FEF7FEFC501CB
S11320E00E94B6114C018201F32DFF773F2E16C0DA
S11320F0280122E0420E511CF801A080B18036FE76
S113210003C0692D70E002C06FEF7FEFC5010E942C
S1132110AB114C01F32DF0683F2E820133FC1BC040
S1132120822D90E088169906B0F4B60180E290E022
S11321300E94C1112A94F4CFF50137FC859137FE32
S113214081915F01B60190E00E94C11121102A948F
S113215021E0821A91088114910471F7E8C0843651
S113216011F0893641F5F80137FE07C060817181AD
S1132170828193810C5F1F4F08C060817181072E9B
S1132180000C880B990B0E5F1F4FF32DFF763F2E2B
S113219097FF09C090958095709561957F4F8F4FFB
S11321A09F4FF0683F2E2AE030E0A3010E94FD110A
S11321B0882E861845C0853731F4232D2F7EB22E04
S11321C02AE030E025C0932D997FB92E8F36C1F0D7
S11321D018F4883579F0B5C0803719F0883721F0C4
S11321E0B0C0E92FE061BE2EB4FE0DC0FB2DF4603B
S11321F0BF2E09C034FE0AC0292F2660B22E06C0A5
S113220028E030E005C020E130E002C020E132E007
S1132210F801B7FE07C060817181828193810C5FF0
S11322201F4F06C06081718180E090E00E5F1F4FF8
S1132230A3010E94FD11882E8618FB2DFF773F2EE7
S113224036FE0DC0232D2E7FA22E891458F434FEA1
S11322500BC032FC09C0832D8E7EA82E05C0B82C7D
S1132260A32C03C0B82C01C0B92CA4FE0FC0FE01DE
S1132270E80DF11D8081803321F49A2D997EA92ED9
S113228009C0A2FE06C0B394B39404C08A2D867814
S113229009F0B394A3FC11C0A0FE06C0B21488F4E4
S11322A0280C922C9B180EC0B21460F4B60180E284
S11322B090E00E94C111B394F7CFB21418F42B1814
S11322C002C0982C212CA4FE10C0B60180E390E03B
S11322D00E94C111A2FE17C0A1FC03C088E790E0D0
S11322E002C088E590E0B6010CC08A2D867859F0CA
S11322F0A1FE02C08BE201C080E2A7FC8DE2B60120
S113230090E00E94C111891438F4B60180E390E092
S11323100E94C1119A94F7CF8A94F301E80DF11D3C
S11323208081B60190E00E94C1118110F5CF222076
S113233009F442CEB60180E290E00E94C1112A94D1
S1132340F6CFF6018681978102C08FEF9FEF2B961F
S1132350E2E10C947712FC01059061507040011089
S1132360D8F7809590958E0F9F1F0895FC016150BA
S1132370704001900110D8F7809590958E0F9F1FA3
S113238008950F931F93CF93DF93FB01238121FDC6
S113239003C08FEF9FEF2CC022FF16C046815781E8
S11323A0248135814217530744F4A081B1819D01F2
S11323B02F5F3F4F318320838C93268137812F5F9A
S11323C03F4F3783268314C08B01EC01FB0100844B
S11323D0F185E02D0995892BE1F6D80116968D91AA
S11323E09C911797019617969C938E931697CE01FE
S11323F0DF91CF911F910F910895FA01AA272830F8
S113240051F1203181F1E8946F936E7F6E5F7F4FBD
S11324108F4F9F4FAF4FB1E03ED0B4E03CD0670F39
S1132420781F891F9A1FA11D680F791F8A1F911D8C
S1132430A11D6A0F711D811D911DA11D20D009F4DC
S113244068943F912AE0269F11243019305D31931E
S1132450DEF6CF010895462F4770405D4193B3E007
S11324600FD0C9F7F6CF462F4F70405D4A3318F0AE
S1132470495D31FD4052419302D0A9F7EACFB4E05F
S1132480A6959795879577956795BA95C9F7009717
S11324906105710508959B01AC010A2E06945795B8
S11324A0479537952795BA95C9F7620F731F841F0F
S11324B0951FA01D08952F923F924F925F926F92A5
S11324C07F928F929F92AF92BF92CF92DF92EF92C0
S11324D0FF920F931F93CF93DF93CDB7DEB7CA1B41
S11324E0DB0B0FB6F894DEBF0FBECDBF09942A886C
S11324F0398848885F846E847D848C849B84AA8414
S1132500B984C884DF80EE80FD800C811B81AA81A0
S1132510B981CE0FD11D0FB6F894DEBF0FBECDBF6B
S10B2520ED010895F894FFCFCA
S113252801010101010101010B090D0B0F0E6400EA
S11325382C01A0000029000500002900040000293E
S11325480003000029000200554E45523A436D64C9
S11325585F556E6B6E6F776E0A000D0A5B215D2006
S113256853544F503A2043696E746120646574650E
S11325786E6964612E0D0A000D0A5B3F5D20535499
S11325884F502069676E6F7261646F3A204E6F20F6
S113259868617920636F6E6578696F6E2061637412
S11325A86976612E0D0A000D0A5B215D20524553A0
S11325B8455420494E54454752414C3A20536F667E
S11325C874776172652079204861726477617265F5
S11325D8206C696D70696F732E0D0A002D2D2D20E6
S11325E845535441444F2044452043494E544120C7
S11325F82D2D2D0051303A205B00256420005131E7
S11326083A205B0051323A205B00F04C0250740BC4
S1132618516B02534D03590F0240580254AC0B56E8
S11326283F0255C20B57F501601F0262D5015F0ACC
S10B2638035EDF02527D020083
S9030000FC
