:100000000C943D000C945A000C945A000C945A0025
:100010000C945A000C945A000C945A000C945A00F8
:100020000C945A000C945A000C945A000C94F60A42
:100030000C945A000C944E080C9429080C945A0005
:100040000C945A000C945A000C94A2090C94CB09FD
:100050000C945A000C945A000C945A000C945A00B8
:100060000C945A000C945A00140A1D0A2B0A390ADF
:10007000470A520A600A7A0A930A11241FBECFEF78
:10008000D8E0DEBFCDBF12E0A0E0B1E0E4EFF7E1E1
:1000900002C005900D92A030B107D9F724E0A0E08E
:1000A000B2E001C01D92A03CB207E1F70E945808DF
:1000B0000C94F80B0C940000FC018081811112C09B
:1000C000A181B28111962C91119781E090E003807B
:1000D00002C0880F991F0A94E2F780958223119637
:1000E0008C9308958130C9F437B181E090E0AC0180
:1000F000048002C0440F551F0A94E2F7242F209574
:10010000232327B9AEE7B0E02C91048002C0880F0A
:10011000991F0A94E2F7822B8C930895FC01808149
:1001200081110FC0A181B2812C9130E0C9010380FF
:1001300002C0959587950A94E2F780FF04C081E09C
:10014000089580E0089580E00895CF92DF92EF92C5
:10015000FF92CF93DF93EC018E85833009F443C087
:1001600028F4813051F0823081F17EC0843009F46E
:1001700052C0853009F45EC077C0EC85FD850995D5
:10018000CF84D888E988FA889B01AC012C193D09F5
:100190004E095F0969017A012093240230932502F8
:1001A00040932602509327022C813D814E815F812E
:1001B000A8EEB3E00E94ED0BC616D706E806F906D6
:1001C00008F452C082E08E874FC0E885F98581E04F
:1001D0000995EC85FD8509956F87788B898B9A8BBE
:1001E00083E08E8741C0EC85FD850995CF84D88852
:1001F000E988FA88DC01CB018C199D09AE09BF0999
:100200000A97A105B10580F1E885F98580E0099597
:1002100084E08E8729C0EA85FB850995813021F528
:10022000EC85FD8509956F87788B898B9A8B85E0A6
:100230008E871AC0EA85FB850995811115C0EC856A
:10024000FD850995CF84D888E988FA886C197D09DD
:100250008E099F092AE330E040E050E00E94B60B8F
:100260003C8B2B8B86E08E87DF91CF91FF90EF90B8
:10027000DF90CF90089580919B03882341F081E027
:1002800090919D03911101C080E0809355020895E3
:1002900080919B03882339F080919D038D3019F460
:1002A00081E080931902089580919B03833070F060
:1002B00080919D03E4E7F2E0808380919E03818337
:1002C00080919F03828381E080934F02089581E0B3
:1002D0008093190280919B03882321F080919D03D4
:1002E0008D3019F081E080934C0208950F931F9395
:1002F00080919B03813029F490919D039F3F09F4E5
:1003000054C0823008F451C090919D0360919E03C7
:1003100080E048C0282F30E0492F50E0082E02C06E
:10032000559547950A94E2F740FF3BC0462F50E0B1
:10033000082E02C0559547950A94E2F740FF19C070
:10034000F901EE0FFF1FEE0FFF1F2E0F3F1FF901E8
:10035000EE5CFD4F21E02083009115021091160202
:100360002091170230911802018312832383348372
:1003700018C0F901EE0FFF1FEE0FFF1F2E0F3F1FDA
:10038000F901EE5CFD4F23E02083009115021091EE
:1003900016022091170230911802018312832383E1
:1003A00034838F5F833008F4B5CF1F910F91089588
:1003B0001092540260E01CC0F901E356FC4F20810A
:1003C000FC01E356FC4F80816E5F813089F421305F
:1003D00041F018F0223049F00BC081E080934202D6
:1003E00007C081E08093430203C081E08093440210
:1003F000262F30E0C901019640919B0350E08417FD
:100400009507D4F20895E1E4F2E0138A80919D0308
:1004100080930D0281E080830895882321F08BB1C1
:1004200080688BB908958BB18F778BB9089589B1A6
:1004300086FB882780F908952091840030918500FB
:100440008091040290910502A901481B590B8091EB
:10045000000290910102A0910202B0910302840F68
:10046000951FA11DB11D8093000290930102A093DE
:100470000202B09303023093050220930402BC01F0
:10048000CD01969587957795679508958AE0E7E57C
:10049000F2E0DF01982F1D929A95E9F7ECE8F2E07F
:1004A000DF01982F1D929A95E9F7E8E2F2E0DF016B
:1004B0001D928A95E9F71092100210920F02109285
:1004C0000E0210920D0210920C0210920B02E1E447
:1004D000F2E0108211821282138214821582168237
:1004E0001782108680E011C0E82FF0E09F01220FF4
:1004F000331F220F331FE20FF31FEE5CFD4F1082FC
:1005000011821282138214828F5F833068F381E03C
:10051000809354021092190280919B03882331F03A
:1005200080919D038D3029F08A3019F081E080930D
:100530004D02089580911902823009F048C18091DE
:1005400041028823B1F080914502811112C080914F
:1005500010028A3070F4E9E0F0E0E81BF109E95A92
:10056000FD4F90910D0290838F5F80931002109247
:10057000410280914202882381F1809145028111DC
:100580002CC01092420280911002882331F1809198
:10059000600290917402891311C0E2E3F2E081E0FD
:1005A00080838091150290911602A0911702B0915C
:1005B000180281839283A383B48305C080930C02C5
:1005C00081E0809348021092600280911002815075
:1005D0008093100281E08093450280914802882335
:1005E000B1F080914602811112C080910F028A30D1
:1005F00070F4E9E0F0E0E81BF10990910C02E45797
:10060000FD4F90838F5F80930F021092480280917C
:100610004302882381F18091460281112CC01092FF
:10062000430280910F02882331F1809195029091CD
:100630007502891311C0E2E3F2E081E085838091C5
:10064000150290911602A0911702B09118028683AC
:100650009783A087B18705C080930B0281E08093C8
:1006600049021092950280910F02815080930F02EF
:1006700081E080934602809149028823B1F0809105
:100680004702811112C080910E028A3070F4E9E0B5
:10069000F0E0E81BF10990910B02E85DFD4F9083BB
:1006A0008F5F80930E02109249028091440288234A
:1006B00041F180914702811124C01092440280913F
:1006C0000E028823F1F020913102909176022913D5
:1006D00010C0E2E3F2E091E0928740911502509160
:1006E000160260911702709118024387548765873C
:1006F000768710923102815080930E0281E08093C0
:100700004702809145028823F1F080910601282F4D
:1007100030E0EAE0F0E0E21BF30BA9E0B0E0A21B5E
:10072000B30BA95ABD4F9C91E95AFD4F90838F5F3F
:10073000809306018A3039F41092570210924502D4
:1007400081E080930601809146028823F1F0809138
:100750000501282F30E0EAE0F0E0E21BF30BA9E00E
:10076000B0E0A21BB30BA457BD4F9C91E457FD4FC3
:1007700090838F5F809305018A3039F410928C0248
:100780001092460281E08093050180914702882300
:10079000F1F080910401282F30E0EAE0F0E0E21B64
:1007A000F30BA9E0B0E0A21BB30BA85DBD4F9C9179
:1007B000E85DFD4F90838F5F809304018A3039F4A8
:1007C000109228021092470281E08093040108955C
:1007D0000F931F93CF93DF9300D0CDB7DEB7833055
:1007E00090F5062F182F662371F090E09C01220FE0
:1007F000331F220F331F820F931F60E08B599D4FD1
:100800000E94DD0A0DC090E09C01220F331F220FD1
:10081000331F820F931F62E88B599D4F0E94DD0AA0
:1008200081E090E002C0880F991F1A95E2F7898352
:10083000011101C080E08A8342E0BE016F5F7F4FFB
:1008400082E50E942B090F900F90DF91CF911F91AD
:100850000F9108950F931F93CF93C0E0BDC08C2FCD
:1008600090E0FC01EE0FFF1FEE0FFF1FE80FF91FD6
:10087000EE5CFD4F2081223009F448C0233009F49A
:100880007DC0213009F0A7C0009115021091160219
:100890002091170230911802FC01EE0FFF1FEE0F9E
:1008A000FF1FE80FF91FEE5CFD4F4181528163810C
:1008B0007481041B150B260B370B409107015091D7
:1008C000080160E070E0041715072607370708F4F1
:1008D00082C0FC01EE0FFF1FEE0FFF1F8E0F9F1F48
:1008E000FC01EE5CFD4F82E08083809115029091C7
:1008F0001602A0911702B091180281839283A383FC
:10090000B48361E08C2F0E94E80365C0409115021A
:10091000509116026091170270911802FC01EE0FBF
:10092000FF1FEE0FFF1FE80FF91FEE5CFD4F018167
:10093000128123813481401B510B620B730B4436AF
:1009400051056105710508F446C0FC01EE0FFF1F5B
:10095000EE0FFF1F8E0F9F1FFC01EE5CFD4F83E02B
:1009600080838091150290911602A0911702B09198
:10097000180281839283A383B4832DC04091150212
:10098000509116026091170270911802FC01EE0F4F
:10099000FF1FEE0FFF1FE80FF91FEE5CFD4F0181F7
:1009A000128123813481401B510B620B730B44363F
:1009B00051056105710578F0FC01EE0FFF1FEE0F88
:1009C000FF1F8E0F9F1FFC01EE5CFD4F108260E049
:1009D0008C2F0E94E803CF5FC33008F440CFCF9143
:1009E0001F910F9108951F93CF93DF9300D0CDB740
:1009F000DEB780911902823009F04EC08091540216
:100A0000882309F449C083E191E00E948E00182FE9
:100A100081110FC080910301813059F4809342020B
:100A200019828A8342E0BE016F5F7F4F8EE50E948C
:100A30002B09109303018EE091E00E948E00182F85
:100A400081110FC080910201813059F480934302DB
:100A500089838A8342E0BE016F5F7F4F8EE50E94EB
:100A60002B091093020189E091E00E948E00182F5B
:100A7000811110C080910101813061F480934402A2
:100A800092E099838A8342E0BE016F5F7F4F8EE5DB
:100A90000E942B09109301010F900F90DF91CF91CD
:100AA0001F910895EF92FF921F93CF93DF931F92B0
:100AB000CDB7DEB788E191E00E948E0011E0811190
:100AC00001C010E0811155C080910001882309F414
:100AD00050C08091850281114CC080911502909187
:100AE0001602A0911702B09118024091070250918E
:100AF00008026091090270910A02841B950BA60BF3
:100B0000B70B893C9105A105B10598F10F2EF7E7C8
:100B1000EF2EF2E0FF2EF02DD7011C96ED91FC9107
:100B20001D970995F7016787708B818B928B81E008
:100B300086878091150290911602A0911702B091BC
:100B400018028093070290930802A0930902B093C1
:100B50000A028091150290911602A0911702B0919D
:100B600018028093610290936202A0936302B09393
:100B700064021093000187E792E00E94A500809133
:100B800006028130A1F480918502823081F4809147
:100B9000150290911602A0911702B091180280934D
:100BA000610290936202A0936302B0936402809109
:100BB0008502809306028230D8F0809115029091D0
:100BC0001602A0911702B091180240916102509153
:100BD00062026091630270916402841B950BA60B04
:100BE000B70B85369105A105B10510F0109285026D
:100BF00080918502863051F580918A0290918B0216
:100C00009C012C5031092430310550F02D5F3F4FAD
:100C10002330310538F00697039730F080E005C0A7
:100C200086E003C088E001C08AE0882369F08093F1
:100C30000D0291E090934102898341E0BE016F5F14
:100C40007F4F8FE50E942B09109285020F90DF9154
:100C5000CF911F91FF90EF900895CF93DF9300D035
:100C60001F92CDB7DEB780914E02882359F01092C3
:100C70004E0283E08093190240E060E070E081E57D
:100C80000E942B0980914A02882341F010924A0267
:100C900040E060E070E080EF0E942B0980914B0201
:100CA000882341F010924B0240E060E070E080E564
:100CB0000E942B0980914C02882341F010924C0233
:100CC00040E060E070E081E50E942B0980914D02D8
:100CD000882341F010924D0240E060E070E083E52F
:100CE0000E942B0980914F02882389F010924F02B5
:100CF000E4E7F2E08081898381818A8382818B832A
:100D000043E0BE016F5F7F4F80E40E942B0980911A
:100D10005002882341F01092500240E060E070E001
:100D20008AE50E942B0980915102882359F0109284
:100D300051028DE0898341E0BE016F5F7F4F80EFFC
:100D40000E942B0980915202882359F0109252027E
:100D50008DE0898341E0BE016F5F7F4F84E50E9493
:100D60002B0980915302882399F0109253028091AD
:100D700007019091080189838091070190910801F2
:100D80009A8342E0BE016F5F7F4F85E50E942B0989
:100D90000F900F900F90DF91CF91089590E01CC0BD
:100DA000292F30E0F901EE0FFF1FE20FF31FE15290
:100DB000FE4F408148130FC0F901EE0FFF1F2E0FA9
:100DC0003F1FF901E152FE4F0180F281E02D309783
:100DD00049F0099508959F5F9B3010F38DE191E0F4
:100DE0000E941E09089580911902813011F130F09E
:100DF000823019F1833009F44FC0089560911502D3
:100E000070911602809117029091180220ED37E040
:100E100040E050E00E94B60B6436710581059105F3
:100E200020F485B1806285B9089585B18F7D85B93B
:100E3000089585B1806285B90895809115029091D9
:100E40001602A0911702B091180240911102509120
:100E500012026091130270911402841B950BA60B71
:100E6000B70B84369105A105B10508F442C095B1D0
:100E700080E2892785B98091150290911602A09190
:100E80001702B09118028093110290931202A0935E
:100E90001302B093140208958091150290911602E6
:100EA000A0911702B09118024091110250911202C4
:100EB0006091130270911402841B950BA60BB70B63
:100EC000843F9140A105B105A0F095B180E289274A
:100ED00085B98091150290911602A0911702B091E8
:100EE00018028093110290931202A0931302B09300
:100EF0001402089582E08093C00080E190E0909316
:100F0000C5008093C40086E08093C20088E9809386
:100F1000C100089584B1806284B984B1887F84B9A6
:100F200085B1876085B987B1807F87B988B1807FB7
:100F300088B98AB18C618AB98AB18F7B8AB98AB142
:100F400080688AB9089582E084BD94E095BD9CE7ED
:100F500097BD80936E0008951092800082E0809388
:100F6000810081E080936F00089580915502811186
:100F70000DC060915602662349F070E080ED97E065
:100F80000E94A20B709308016093070181E0809397
:100F90005302089580919B038430A8F080919D03B3
:100FA0008093560280919E03E4E7F2E08083809173
:100FB0009F0381838091A00382830E94B50782E012
:100FC000809319020895811116C0809174028823BC
:100FD00079F080917502882359F0809176028823F8
:100FE00039F082E08093190281E080934B020895EA
:100FF00081E080935002089580919B03882389F0BB
:1010000080919D03809356020E94B50780919B03B7
:10101000823020F080919E038D3019F081E0809322
:101020005202089580919B03823090F08091550286
:10103000882361F020919D0380919E0390E0982F7A
:101040008827822B90930801809307010E94B5079F
:1010500008951F920F920FB60F9211248F939F93B2
:10106000AF93BF938091150290911602A091170241
:10107000B09118020296A11DB11D809315029093A4
:101080001602A0931702B0931802BF91AF919F91DF
:101090008F910F900FBE0F901F9018951F920F9277
:1010A0000FB60F9211240F900FBE0F901F9018953E
:1010B000F8940E948A070E947A070E94A3070E9460
:1010C000AC070E94FB08E1E4F2E01482158216826C
:1010D000128613861486158620E012C0822F90E0B7
:1010E000FC01EE0FFF1FEE0FFF1F8E0F9F1FFC0175
:1010F000EE5CFD4F108211821282138214822F5FE8
:10110000233060F342E06BE270E085E692E00E94FB
:10111000A60A43E06BE270E08AE692E00E94A60A2B
:1011200044E06BE270E08FE692E00E94A60AC0E025
:101130000FC08C2F90E09C01220F331F220F331F12
:10114000820F931F62E88B599D4F0E94DD0ACF5F8B
:10115000C33078F31092610210926202109263021F
:1011600010926402E7E7F2E088EE93E0A0E0B0E0DE
:1011700084839583A683B7838DE092E091878087EF
:1011800087E192E0938782878CE192E0958784875C
:10119000168688E191E00E945C0083E191E00E9464
:1011A0005C008EE091E00E945C0089E091E00E948A
:1011B0005C008BB18F778BB91092080110920701F8
:1011C000C1E4D2E011E01C8B789440E060E070E074
:1011D00080EF0E942B091B8B0E94F9090E942D06AB
:1011E0000E942A040E94F3060E949A020E9452055D
:1011F0000E94F304F1CF109296031092970310927D
:1012000098031092BE041092BF0408959091BE04FA
:101210009F5F2091BF04921781F0AEEBB4E0EC9198
:10122000F0E0E254FC4F80839C939FB7F894E1EC8C
:10123000F0E08081806280839FBF0895CF93DF9329
:10124000EC0103C021960E94060988818111FACF22
:10125000DF91CF910895BF92CF92DF92EF92FF92EC
:101260000F931F93CF93DF9300D000D0CDB7DEB79D
:10127000C82E7B01D42E85E589838EE48A8385E49C
:101280008B8382E58C836894BB24B1F8B40E80E034
:1012900000E009C0E1E0F0E0EC0FFD1FE80FF11DF8
:1012A000908109278F5F8430A8F30B258AE30827F4
:1012B0000C25E114F10469F0D11008C00AC0F7014F
:1012C000E80FF11D908109278F5F01C080E08D1527
:1012D000B0F310E00AC0E1E0F0E0EC0FFD1FE10F19
:1012E000F11D80810E9406091F5F1430A0F38B2D31
:1012F0000E9406098AE30E9406098C2D0E940609B5
:10130000E114F10471F0D11009C00BC0F701E10F35
:10131000F11D80810E9406091F5F01C010E01D15AC
:10132000A8F3802F0E9406090F900F900F900F9046
:10133000DF91CF911F910F91FF90EF90DF90CF90B1
:10134000BF9008951F920F920FB60F9211242F9302
:101350008F939F93AF93BF93EF93FF932091C6001A
:10136000809196038F5F90919703891741F0A6E9CA
:10137000B3E0EC91F0E0EA56FD4F20838C93FF91AF
:10138000EF91BF91AF919F918F912F910F900FBED1
:101390000F901F9018951F920F920FB60F92112465
:1013A0008F939F93AF93BF93EF93FF939091BF045D
:1013B0008091BE04981769F0AFEBB4E0EC91F0E0D7
:1013C000E254FC4F80818093C6008C918F5F8C9398
:1013D00005C0E1ECF0E080818F7D8083FF91EF918B
:1013E000BF91AF919F918F910F900FBE0F901F9063
:1013F0001895CF93C0919603A3C0A7E9B3E0EC91F1
:10140000F0E0EA56FD4F20818C918F5F8C93E09144
:1014100098038E2F90E08930910508F091C0FC016F
:10142000EC5CFF4F0C94D80B253509F089C0209354
:10143000990381E08093980383C02E3449F4E9E94D
:10144000F3E080812827208382E08093980378C08E
:101450001092980375C0253449F4E9E9F3E08081DE
:101460002827208383E0809398036AC01092980312
:1014700067C0223549F4E9E9F3E080812827208319
:1014800084E0809398035CC01092980359C0209325
:101490009A03E9E9F3E080812827208385E080939F
:1014A00098034EC02A3349F4E9E9F3E08081282704
:1014B000208386E08093980343C01092980340C035
:1014C00020939C03E9E9F3E0808128272083809121
:1014D0009A03823010F0825001C080E080939B0319
:1014E0001092BD03882311F087E001C088E080934B
:1014F000980326C08091BD03803228F4E82FF0E0E5
:10150000E356FC4F20838F5F8093BD03E9E9F3E04E
:1015100090812927208390919B03891788F088E088
:10152000809398030DC080919903281307C040E071
:1015300060E070E080919C030E94CE0610929803B8
:1015400080919703C81359CFCF910895FC017183FF
:101550006083428380E494E094838383DB018C91F5
:1015600021E030E002C0220F331F4A95E2F72095B8
:1015700028232C9380911D02833058F4A82FB0E0CB
:10158000AA0FBB1FA25EBD4FED93FC938F5F8093AC
:101590001D0280911D02813079F4EFE6F0E0808138
:1015A0008260808380918400909185008C599F4F48
:1015B00090938900809388000895CF93DF93EC0186
:1015C000653B08F064EB262F30E0A0E8BEE00E9407
:1015D000DE0B24EB30E040E050E00E94B60B205CD4
:1015E0003B4F3C832B83DF91CF9108951F920F9245
:1015F0000FB60F9211242F933F934F935F938F93C6
:101600009F93AF93BF93EF93FF9380911D02882325
:1016100009F489C020911C02E22FE695422F50E088
:1016200090E0880F991F481759070CF05BC020FD08
:101630002AC0F0E0EE0FFF1FE25EFD4F0190F08147
:10164000E02DA081B1812C9181E090E0028002C068
:10165000880F991F0A94E2F7822B8C9383819481DF
:10166000E8E8F0E020813181280F391F31832083A1
:1016700020911A0230911B02820F931F90931B023C
:1016800080931A0229C0F0E0EE0FFF1FE25EFD4FCB
:10169000A081B181ED91FC911197208181E090E0D2
:1016A00012960C9002C0880F991F0A94E2F7809559
:1016B00082238083E8E8F0E0808191818C599F4FFC
:1016C0009183808380911A0290911B028C599F4FC5
:1016D00090931B0280931A0280911C028F5F80936B
:1016E0001C0221C020911A0230911B0220348CE987
:1016F000380758F4E8E8F0E080819181821B930B71
:10170000805C93469183808308C0E8E8F0E08081A4
:1017100091818C599F4F9183808310921C0210926B
:101720001B0210921A02FF91EF91BF91AF919F910E
:101730008F915F914F913F912F910F900FBE0F901E
:101740001F901895AA1BBB1B51E107C0AA1FBB1F06
:10175000A617B70710F0A61BB70B881F991F5A953D
:10176000A9F780959095BC01CD010895A1E21A2EAC
:10177000AA1BBB1BFD010DC0AA1FBB1FEE1FFF1F35
:10178000A217B307E407F50720F0A21BB30BE40B85
:10179000F50B661F771F881F991F1A9469F76095CC
:1017A0007095809590959B01AC01BD01CF01089586
:1017B000EE0FFF1F0590F491E02D0994A29FB00158
:1017C000B39FC001A39F700D811D1124911DB29F75
:1017D000700D811D1124911D08950E94DE0BA59F9F
:1017E000900DB49F900DA49F800D911D112408951C
:0417F000F894FFCF9B
:1017F40001010101010101A00000260003000026EF
:1018040000020000260001000026000000554E459D
:10181400523A436D645F556E6B6E6F776E0A000DBE
:101824000A5B215D2053544F503A2043696E746122
:1018340020646574656E6964612E0D0A000D0A5B8F
:101844003F5D2053544F502069676E6F7261646F1F
:101854003A204E6F2068617920636F6E6578696FF6
:101864006E206163746976612E0D0A000D0A5B2196
:101874005D20524553455420494E54454752414CEE
:101884003A20536F667477617265207920486172DB
:101894006477617265206C696D70696F732E0D0ACF
:1018A400002D2D2D2045535441444F2044452043C1
:1018B400494E5441202D2D2D0051303A205B0025F6
:1018C40064200051313A205B0051323A205B00F031
:1018D400480140540150CA075167015276015346EA
:1018E4000254FC075512085ED8015F0302563B01FF
:00000001FF
