:100000000C943D000C945A000C945A000C945A0025
:100010000C945A000C945A000C945A000C945A00F8
:100020000C945A000C945A000C945A000C94F80E3C
:100030000C945A000C945A000C94320C0C945A00F4
:100040000C945A000C945A000C94A40D0C94CD0DF1
:100050000C945A000C945A000C945A000C945A00B8
:100060000C945A000C945A00160E1F0E2D0E3B0EC7
:10007000490E540E620E7C0E950E11241FBECFEF5A
:10008000D8E0DEBFCDBF12E0A0E0B1E0EAEDF5E2DE
:1000900002C005900D92AE31B107D9F725E0AEE16F
:1000A000B2E001C01D92A133B207E1F70E94570CE4
:1000B0000C94EB120C940000FC018081811112C0A1
:1000C000A181B28111962C91119781E090E003807B
:1000D00002C0880F991F0A94E2F780958223119637
:1000E0008C9308958130C9F437B181E090E0AC0180
:1000F000048002C0440F551F0A94E2F7242F209574
:10010000232327B9AEE7B0E02C91048002C0880F0A
:10011000991F0A94E2F7822B8C930895FC01808149
:1001200081110FC0A181B2812C9130E0C9010380FF
:1001300002C0959587950A94E2F780FF04C081E09C
:10014000089580E0089580E00895CF92DF92EF92C5
:10015000FF92CF93DF93EC018E85833009F443C087
:1001600028F4813051F0823081F17EC0843009F46E
:1001700052C0853009F45EC077C0EC85FD850995D5
:10018000CF84D888E988FA889B01AC012C193D09F5
:100190004E095F0969017A012093470230934802B2
:1001A0004093490250934A022C813D814E815F81E8
:1001B000A8EEB3E00E94EB0FC616D706E806F906D4
:1001C00008F452C082E08E874FC0E885F98581E04F
:1001D0000995EC85FD8509956F87788B898B9A8BBE
:1001E00083E08E8741C0EC85FD850995CF84D88852
:1001F000E988FA88DC01CB018C199D09AE09BF0999
:100200000A97A105B10580F1E885F98580E0099597
:1002100084E08E8729C0EA85FB850995813021F528
:10022000EC85FD8509956F87788B898B9A8B85E0A6
:100230008E871AC0EA85FB850995811115C0EC856A
:10024000FD850995CF84D888E988FA886C197D09DD
:100250008E099F092AE330E040E050E00E94B40F8D
:100260003C8B2B8B86E08E87DF91CF91FF90EF90B8
:10027000DF90CF900895FF928330D8F590E027E18A
:10028000289FF001299FF00D1124EE53FD4F268980
:10029000253078F5E7E1E89F9001E99F300D1124C2
:1002A000D901AE53BD4F5496FC905497EF2DF0E01A
:1002B000EE0FFF1FEE0FFF1F2E0F3F1FF901EE5332
:1002C000FD4F408351836283738321E02F0D549649
:1002D0002C935497253010F0FD01148A27E1289FB4
:1002E000F001299FF00D1124EE53FD4F86898F5F99
:1002F000868BFF900895282F30E087E1829FF001E0
:10030000839FF00D1124EE53FD4F86898823F1F071
:1003100047E1429FC001439F900D1124FC01EE5321
:10032000FD4FE589F0E0EE0FFF1FEE0FFF1F8E0F70
:100330009F1FFC01EE53FD4F80819181A281B3810B
:10034000FB0180839183A283B38381E0089590E0D1
:1003500027E1289FF001299FF00D1124EE53FD4F56
:100360002689222309F127E1289FF001299FF00D1A
:100370001124EE53FD4F25892F5F258B253048F042
:1003800027E1289FF001299FF00D1124EE53FD4F26
:10039000158A27E1289FF001299FF00D1124EE53C3
:1003A000FD4F86898150868B089580910C0484309E
:1003B000D8F020910E0480910F0490E0982F8827A8
:1003C000822B909311018093100120911004809151
:1003D000110490E0982F8827822B90930F0180932F
:1003E0000E0181E080938002089580910C04823098
:1003F000A8F020910E0480910F0490E0982F882798
:10040000822BA0E0B0E08093A7029093A802A09373
:10041000A902B093AA0281E080937F02089580919F
:100420000C04882359F081E090910E04911101C0D1
:1004300080E0E4E6F2E0808381E0808F089580919F
:100440000C048630D8F080910E0480930D018091C9
:100450000F0480930C018091100480930B01809114
:10046000110480930A018091120480930901809104
:1004700013048093080181E080937D0208958091A8
:100480000C04882341F081E090910E04911101C089
:1004900080E080936502089580910C04882339F0F0
:1004A00080910E048D3019F481E080933C02089510
:1004B00080910C04833070F080910E04E0EAF2E049
:1004C000808380910F04818380911004828381E076
:1004D00080937602089581E080933C0288B1816028
:1004E00088B980910C04882321F080910E048D300E
:1004F00019F081E08093740208950F931F93809107
:100500000C04813029F490910E049F3F09F454C0EB
:10051000823008F451C090910E0460910F0480E085
:1005200048C0282F30E0492F50E0082E02C05595D2
:1005300047950A94E2F740FF3BC0462F50E0082E53
:1005400002C0559547950A94E2F740FF19C0F9019A
:10055000EE0FFF1FEE0FFF1F2E0F3F1FF901EB5A8B
:10056000FD4F21E020830091380210913902209143
:100570003A0230913B02018312832383348318C0F3
:10058000F901EE0FFF1FEE0FFF1F2E0F3F1FF901A6
:10059000EB5AFD4F23E0208300913802109139027D
:1005A00020913A0230913B020183128323833483EA
:1005B0008F5F833008F4B5CF1F910F91089510928B
:1005C000660260E01CC0F901E25FFB4F2081FC0184
:1005D000E25FFB4F80816E5F813089F4213041F012
:1005E00018F0223049F00BC081E08093690207C007
:1005F00081E080936A0203C081E080936B02262F22
:1006000030E0C901019640910C0450E08417950731
:10061000D4F20895E4E6F2E081E08383858F0895C3
:10062000E4E6F2E0128280910E048093300281E0D1
:1006300084830895882321F085B1826085B9089567
:1006400085B18D7F85B9089583B182FB882780F9B4
:10065000089520918400309185008091220290912C
:100660002302A901481B590B80911E0290911F0281
:10067000A0912002B0912102840F951FA11DB11DF0
:1006800080931E0290931F02A0932002B093210238
:100690003093230220932202BC01CD0196958795C9
:1006A000779567950895CF93DF9388B1816088B976
:1006B0008AE0E3E8F2E0DF01C82F1D92CA95E9F76E
:1006C000E8EBF2E0DF01C82F1D92CA95E9F7EBE4F1
:1006D000F2E0DF011D928A95E9F710923302109241
:1006E0003202109231021092300210922F021092B8
:1006F0002E02E4E6F2E0148215821682178210863A
:10070000118612861386148685E4A2ECB2E0ED0110
:1007100019928A95E9F7109282021092290210929A
:100720002A0210922B0210922C0281E08093070182
:10073000158A80E011C0E82FF0E09F01220F331FDF
:10074000220F331FE20FF31FEB5AFD4F108211826D
:100750001282138214828F5F833068F381E080936A
:10076000660280933C0280910C04882331F08091D2
:100770000E048D3029F08A3019F081E080937502E3
:10078000DF91CF910895CF92DF92EF92FF921F9366
:10079000CF93DF931F92CDB7DEB7809164028111B2
:1007A000BAC080913C02823009F0B5C083E291E08A
:1007B0000E948E00182FF89480913802909139028F
:1007C000A0913A02B0913B027894111116C0809129
:1007D0000701813091F4F8948091380290913902A8
:1007E000A0913A02B0913B028093290290932A0291
:1007F000A0932B02B0932C027894113009F089C099
:1008000080910701811185C0F894C0903802D09082
:100810003902E0903A02F0903B02809129029091D7
:100820002A02A0912B02B0912C02C81AD90AEA0A16
:10083000FB0A789484E1C816D104E104F10408F4B9
:1008400068C060E47FE180E090E0A70196010E942B
:10085000B40F2093820281E0809379029091A002EC
:1008600080913002981751F09091A102891741F0C0
:100870009091A202891731F0EFEF05C0E0E003C0CC
:10088000E1E001C0E2E0EF3FD1F1E13039F080F08A
:10089000E23049F080E090E0DC010EC088E590E0B5
:1008A000A0E0B0E009C088E890E0A0E0B0E004C0BB
:1008B0008DE290E0A0E0B0E0BC01CD016C5F7F4F25
:1008C0008F4F9F4FA70196010E94A40FAB01BC015F
:1008D000689412F876956795579547951694D1F7D1
:1008E0008091290290912A02A0912B02B0912C02B2
:1008F000480F591F6A1F7B1F8E2F0E943B0180915A
:100900003002898341E0BE016F5F7F4F8FE50E9417
:100910002D0D109307010F90DF91CF911F91FF9044
:10092000EF90DF90CF9008950F931F93CF93DF93B5
:1009300000D0CDB7DEB7833090F5062F182F662391
:1009400071F090E09C01220F331F220F331F820FA2
:10095000931F60E08F569D4F0E94DF0E0DC090E008
:100960009C01220F331F220F331F820F931F62E857
:100970008F569D4F0E94DF0E81E090E002C0880FED
:10098000991F1A95E2F78983011101C080E08A83DB
:1009900042E0BE016F5F7F4F82E50E942D0D0F90F8
:1009A0000F90DF91CF911F910F9108958F929F9299
:1009B000AF92BF92FF920F931F93CF93DF9300D01C
:1009C00000D0CDB7DEB7F89480903802909039020D
:1009D000A0903A02B0903B027894F12CEBC00F2D1E
:1009E00010E0F801EE0FFF1FEE0FFF1FE00FF11FE9
:1009F000EB5AFD4F80818130E1F138F0823009F40B
:100A00007CC0833009F4ACC0D4C0809164028111F1
:100A1000D0C0BE016F5F7F4F8F2D0E947B01882366
:100A200009F4C7C089819A81AB81BC81A501940179
:100A3000281B390B4A0B5B0B0AF4BBC08F2D0E949D
:100A4000A70161E08F2D0E949404F801EE0FFF1FB3
:100A5000EE0FFF1F0E0F1F1FF801EB5AFD4F82E034
:100A6000808381829282A382B48281E08093790222
:100A7000A0C0809164028823A1F1F801EE0FFF1F4E
:100A8000EE0FFF1FE00FF11FEB5AFD4F81819281A6
:100A9000A381B481B501A401481B590B6A0B7B0BE0
:100AA0008091120190911301A0E0B0E0481759071E
:100AB0006A077B0708F47DC061E08F2D0E949404D3
:100AC000F801EE0FFF1FEE0FFF1F0E0F1F1FF801A3
:100AD000EB5AFD4F82E0808381829282A382B482AE
:100AE00068C0F801EE0FFF1FEE0FFF1F0E0F1F1F54
:100AF000F801EB5AFD4F10825CC0F801EE0FFF1FAA
:100B0000EE0FFF1FE00FF11FEB5AFD4F8181928125
:100B1000A381B481B501A401481B590B6A0B7B0B5F
:100B20008091100190911101A0E0B0E048175907A1
:100B30006A077B07F0F160E08F2D0E949404F801B2
:100B4000EE0FFF1FEE0FFF1F0E0F1F1FF801EB5AD6
:100B5000FD4F83E0808381829282A382B48229C088
:100B6000F801EE0FFF1FEE0FFF1FE00FF11FEB5A12
:100B7000FD4F81819281A381B481B501A401481BFD
:100B8000590B6A0B7B0B80910E0190910F01A0E035
:100B9000B0E0481759076A077B0758F0F801EE0FD5
:100BA000FF1FEE0FFF1F0E0F1F1FF801EB5AFD4F27
:100BB0001082F39432E03F1508F011CF0F900F90A0
:100BC0000F900F90DF91CF911F910F91FF90BF90E9
:100BD000AF909F908F9008951F93CF93DF9300D095
:100BE000CDB7DEB780913C02823009F04EC08091D3
:100BF0006602882309F449C08EE191E00E948E00CC
:100C0000182F81110FC080910301813059F4809316
:100C1000690219828A8342E0BE016F5F7F4F8EE5D1
:100C20000E942D0D1093030189E191E00E948E0036
:100C3000182F81110FC080910201813059F48093E7
:100C40006A0289838A8342E0BE016F5F7F4F8EE52F
:100C50000E942D0D1093020184E191E00E948E000C
:100C6000182F811110C080910101813061F48093AF
:100C70006B0292E099838A8342E0BE016F5F7F4FEF
:100C80008EE50E942D0D109301010F900F90DF91C2
:100C9000CF911F910895CF93DF9300D000D01F9282
:100CA000CDB7DEB780917B02882371F010927B0272
:100CB00083E080933C028BB181608BB940E060E0BF
:100CC00070E081E50E942D0D80917A02882341F029
:100CD00010927A0240E060E070E08AE50E942D0DFB
:100CE00080917102882341F01092710240E060E02F
:100CF00070E080EF0E942D0D80917202882359F0E0
:100D0000109272028DE0898341E0BE016F5F7F4FD8
:100D100080EF0E942D0D80917302882341F0109284
:100D2000730240E060E070E080E50E942D0D80914C
:100D30007402882341F01092740240E060E070E099
:100D400081E50E942D0D80917502882341F010925B
:100D5000750240E060E070E083E50E942D0D809117
:100D60007C02882361F0E4E6F2E0108E80818983C2
:100D700041E0BE016F5F7F4F89E50E942D0D80919C
:100D80007602882389F010927602E0EAF2E0808110
:100D9000898381818A8382818B8343E0BE016F5F77
:100DA0007F4F80E40E942D0D80917702882359F0B7
:100DB000109277028DE0898341E0BE016F5F7F4F23
:100DC00084E50E942D0D80917802882399F010927D
:100DD0007802809112019091130189838091120110
:100DE000909113019A8342E0BE016F5F7F4F85E5CA
:100DF0000E942D0D80917E02882361F0E4E6F2E0EE
:100E0000128E8181898341E0BE016F5F7F4F86E54D
:100E10000E942D0D80917F02882379F010927F022D
:100E20009091A7028091A80299838A8342E0BE0133
:100E30006F5F7F4F87E50E942D0D80917902882397
:100E4000C1F01092790280918202898380913002F0
:100E50008A83E2ECF2E086898B8385A58C8380917E
:100E600006038D8345E0BE016F5F7F4F88E50E94DA
:100E70002D0D80918002882341F01092800240E085
:100E800060E070E082E60E942D0D80916702882369
:100E900041F01092670242E06DE272E083E60E9448
:100EA0002D0D0F900F900F900F900F90DF91CF911D
:100EB000089590E01CC0292F30E0F901EE0FFF1FCC
:100EC000E20FF31FE351FE4F408148130FC0F901B9
:100ED000EE0FFF1F2E0F3F1FF901E351FE4F018060
:100EE000F281E02D309749F0099508959F5F903188
:100EF00010F388E291E00E94200D089580913C0259
:100F0000813011F130F0823019F1833009F44FC093
:100F10000895609138027091390280913A0290915F
:100F20003B0220ED37E040E050E00E94B40F643611
:100F300071058105910520F485B1806285B9089518
:100F400085B18F7D85B9089585B1806285B9089591
:100F50008091380290913902A0913A02B0913B02FF
:100F600040913402509135026091360270913702FF
:100F7000841B950BA60BB70B84369105A105B10513
:100F800008F442C095B180E2892785B98091380282
:100F900090913902A0913A02B0913B0280933402C1
:100FA00090933502A0933602B09337020895809152
:100FB000380290913902A0913A02B0913B024091DF
:100FC0003402509135026091360270913702841BD1
:100FD000950BA60BB70B843F9140A105B105A0F07E
:100FE00095B180E2892785B98091380290913902C4
:100FF000A0913A02B0913B02809334029093350263
:10100000A0933602B09337020895FC0101900020AE
:10101000E9F73197AF01481B590BBC0180E70E94EB
:101020002D0D0895EF92FF920F931F93CF93DF93AF
:1010300000D000D01F92CDB7DEB783E291E00E94CE
:101040008E0011E0811101C010E0882329F0809109
:101050006702882309F459C080910001811105C0FD
:1010600080916702882309F450C08091B1028111F8
:101070004CC08091380290913902A0913A02B0910F
:101080003B02409125025091260260912702709107
:101090002802841B950BA60BB70B893C9105A10573
:1010A000B10598F10F2EF3EAEF2EF2E0FF2EF02DAE
:1010B000D7011C96ED91FC911D970995F701678763
:1010C000708B818B928B81E0868780913802909122
:1010D0003902A0913A02B0913B028093250290938D
:1010E0002602A0932702B0932802809138029091A3
:1010F0003902A0913A02B0913B0280938D02909305
:101100008E02A0938F02B09390021093000183EAA5
:1011100092E00E94A500809124028130A1F4809188
:10112000B102823081F48091380290913902A0910D
:101130003A02B0913B0280938D0290938E02A0936D
:101140008F02B09390028091B1028093240282308A
:1011500048F18091380290913902A0913A02B09101
:101160003B0240918D0250918E0260918F027091EE
:101170009002841B950BA60BB70B85369105A10534
:10118000B10580F080916702882351F010926702C8
:10119000198241E0BE016F5F7F4F83E60E942D0DF3
:1011A0001092B1028091B102863009F06AC0E3EA80
:1011B000F2E0F38884898F93FF928CEB91E09F9308
:1011C0008F938E010F5F1F4F1F930F930E9401108B
:1011D000C8010E940508809167020F900F900F9040
:1011E0000F900F900F90882359F010926702FC82A5
:1011F00041E0BE016C5F7F4F83E60E942D0D3FC032
:1012000090912D0280910D01981730F090912D0250
:1012100080910C018917D0F490912D0280910B01DF
:10122000981730F090912D0280910A01891780F46F
:1012300090912D0280910901981760F090912D02F4
:1012400080910801891740F480E007C086E005C05E
:1012500088E003C080E001C08AE0882381F08093A9
:10126000300291E0909368028C8380912D028D83EF
:1012700042E0BE016C5F7F4F8FE50E942D0D109202
:10128000B1020F900F900F900F900F90DF91CF91C0
:101290001F910F91FF90EF900895EF92FF920F939F
:1012A0001F93CF93DF93CDB7DEB7C854D1090FB6E4
:1012B000F894DEBF0FBECDBF8FEB91E00E94050812
:1012C00086E0E7EDF1E0DE01119601900D928A953E
:1012D000E1F710E01FC0E12FF0E0ED57FD4F8081F6
:1012E0001F928F938DED91E09F938F937E0181E408
:1012F000E80EF11CFF92EF920E940110B701CE019F
:1013000001960E94F60F1F5F0F900F900F900F90A5
:101310000F900F901A30F8F28E010F5F1F4FF801F7
:1013200001900020E9F731978DE590E0918380836B
:10133000C8010E94050886E0E1EEF1E0D8010190C5
:101340000D928A95E1F710E01FC0E12FF0E0E8541C
:10135000FD4F80811F928F938DED91E09F938F932E
:101360007E0181E4E80EF11CFF92EF920E940110D1
:10137000B701CE0101960E94F60F1F5F0F900F90EC
:101380000F900F900F900F901A30F8F28E010F5FB0
:101390001F4FF80101900020E9F731978DE590E0AB
:1013A00091838083C8010E94050886E0E7EEF1E0A2
:1013B000D80101900D928A95E1F710E01FC0E12F4E
:1013C000F0E0E55BFD4F80811F928F938DED91E002
:1013D0009F938F937E0181E4E80EF11CFF92EF92C0
:1013E0000E940110B701CE0101960E94F60F1F5F07
:1013F0000F900F900F900F900F900F901A30F8F2FF
:10140000CE010196FC0101900020E9F731972DE50E
:1014100030E0318320830E940508C85BDF4F0FB6A0
:10142000F894DEBF0FBECDBFDF91CF911F910F911A
:10143000FF90EF90089580916402882309F455C1CC
:1014400080913C02823009F050C18091680288236B
:10145000C1F080916C02811114C0809133028A30F6
:1014600080F4E9E0F0E0E81BF109ED57FD4F9091C1
:10147000300290838F5F80933302109268020E9443
:101480004D0980916902882381F180916C0281115C
:101490002CC01092690280913302882331F180912F
:1014A0008C029091A002891311C0E5E5F2E081E081
:1014B00080838091380290913902A0913A02B091D4
:1014C0003B0281839283A383B48305C080932F0260
:1014D00081E080936F0210928C02809133028150E0
:1014E0008093330281E080936C0280916F028823A5
:1014F000B1F080916D02811112C0809132028A3068
:1015000070F4E9E0F0E0E81BF10990912F02E85453
:10151000FD4F90838F5F8093320210926F02809113
:101520006A02882381F180916D0281112CC0109292
:101530006A0280913202882331F18091C102909138
:10154000A102891311C0E5E5F2E081E08583809175
:10155000380290913902A0913A02B0913B02868301
:101560009783A087B18705C080932E0281E0809386
:1015700070021092C1028091320281508093320237
:1015800081E080936D02809170028823B1F0809198
:101590006E02811112C0809131028A3070F4E9E04C
:1015A000F0E0E81BF10990912E02E55BFD4F90837E
:1015B0008F5F809331021092700280916B028823BA
:1015C00041F180916E02811124C010926B028091D2
:1015D00031028823F1F0209154029091A202291344
:1015E00010C0E5E5F2E091E0928740913802509119
:1015F000390260913A0270913B02438754876587B4
:1016000076871092540281508093310281E080935A
:101610006E0280916C02882301F180910601282FCF
:1016200030E0EAE0F0E0E21BF30BA9E0B0E0A21B3F
:10163000B30BAD57BD4F9C91ED57FD4F90838F5F1E
:10164000809306018A3049F41092830210926C0252
:1016500081E0809306010E944D0980916D028823EC
:1016600001F180910501282F30E0EAE0F0E0E21B73
:10167000F30BA9E0B0E0A21BB30BA854BD4F9C91A3
:10168000E854FD4F90838F5F809305018A3049F4C1
:101690001092B80210926D0281E0809305010E94C1
:1016A0004D0980916E02882301F180910401282F59
:1016B00030E0EAE0F0E0E21BF30BA9E0B0E0A21BAF
:1016C000B30BA55BBD4F9C91E55BFD4F90838F5F96
:1016D000809304018A3049F410924B0210926E02FA
:1016E00081E0809304010E944D09089582E0809377
:1016F000C00080E190E09093C5008093C40086E034
:101700008093C20088E98093C100089584B180620B
:1017100084B984B1826084B984B18B7F84B98AB181
:1017200080688AB984B1806184B984B1886084B9E1
:101730008AB1837C8AB98BB18C638BB987B18160A4
:1017400087B988B1816088B9089582E084BD94E04A
:1017500095BD9CE797BD80936E0008951092800020
:1017600082E080938100089580916502811111C00B
:1017700020918202222369F030E040E050E060ECEA
:101780007DE580E090E00E94B40F30931301209338
:10179000120181E080937802089580910C048430D6
:1017A000C0F080910E048093820280910F04E0EAE1
:1017B000F2E0808380911004818380911104828300
:1017C0000E94B40B88B18E7F88B982E080933C027E
:1017D0000895811119C08091A002882391F0809111
:1017E000A102882371F08091A202882351F088B170
:1017F0008E7F88B982E080933C0281E080937302FF
:10180000089581E080937A02089580910C048823E2
:1018100089F080910E04809382020E94B40B809123
:101820000C04823020F080910F048D3019F081E09B
:1018300080937702089580910C04823090F080911B
:101840006502882361F020910E0480910F0490E0DE
:10185000982F8827822B90931301809312010E9466
:10186000B40B08951F920F920FB60F9211248F930D
:101870009F93AF93BF938091380290913902A091CA
:101880003A02B0913B020296A11DB11D809338022D
:1018900090933902A0933A02B0933B02BF91AF916B
:1018A0009F918F910F900FBE0F901F901895F894F5
:1018B0000E94860B0E94760B0E94A50B0E94AE0B25
:1018C0000E94FD0CE4E6F2E010861186128617866F
:1018D000108A118A178A20E012C0822F90E0FC0142
:1018E000EE0FFF1FEE0FFF1F8E0F9F1FFC01EB5A25
:1018F000FD4F108211821282138214822F5F2330D7
:1019000060F347E06BE270E081E992E00E94A80E8C
:1019100043E065E270E086E992E00E94A80E44E0B0
:1019200065E270E08BE992E00E94A80EC0E00FC073
:101930008C2F90E09C01220F331F220F331F820F48
:10194000931F62E88F569D4F0E94DF0ECF5FC3301A
:1019500078F310928D0210928E0210928F021092E4
:101960009002E3EAF2E088EE93E0A0E0B0E0848346
:101970009583A683B7838AE193E09187808784E289
:1019800093E09387828789E293E095878487168620
:1019900083E291E00E945C008EE191E00E945C0095
:1019A00089E191E00E945C0084E191E00E945C008A
:1019B00088B1816088B91092130110921201C4E6B7
:1019C000D2E011E01983789440E060E070E080EFAD
:1019D0000E942D0D1A8318830E94FB0D0E9412088D
:1019E0000E94EC050E94C3030E941B0A0E94D604B9
:1019F0000E944B060E947E07EFCF109207041092C0
:101A000008041092090410922F05109230050895D1
:101A100090912F059F5F20913005921781F0AFE2E2
:101A2000B5E0EC91F0E0E15DFB4F80839C939FB7C4
:101A3000F894E1ECF0E08081806280839FBF08959C
:101A4000CF93DF93EC0103C021960E94080D88819B
:101A50008111FACFDF91CF910895BF92CF92DF929B
:101A6000EF92FF920F931F93CF93DF9300D000D09C
:101A7000CDB7DEB7C82E7B01D42E85E589838EE4F1
:101A80008A8385E48B8382E58C836894BB24B1F8D8
:101A9000B40E80E000E009C0E1E0F0E0EC0FFD1FD3
:101AA000E80FF11D908109278F5F8430A8F30B2583
:101AB0008AE308270C25E114F10469F0D11008C06D
:101AC0000AC0F701E80FF11D908109278F5F01C05F
:101AD00080E08D15B0F310E00AC0E1E0F0E0EC0F1B
:101AE000FD1FE10FF11D80810E94080D1F5F143062
:101AF000A0F38B2D0E94080D8AE30E94080D8C2D07
:101B00000E94080DE114F10471F0D11009C00BC05E
:101B1000F701E10FF11D80810E94080D1F5F01C0D8
:101B200010E01D15A8F3802F0E94080D0F900F9054
:101B30000F900F90DF91CF911F910F91FF90EF9039
:101B4000DF90CF90BF9008951F920F920FB60F9223
:101B500011242F938F939F93AF93BF93EF93FF9392
:101B60002091C600809107048F5F90910804891727
:101B700041F0A7E0B4E0EC91F0E0E95FFC4F208396
:101B80008C93FF91EF91BF91AF919F918F912F9186
:101B90000F900FBE0F901F9018951F920F920FB6C7
:101BA0000F9211248F939F93AF93BF93EF93FF9363
:101BB0009091300580912F05981769F0A0E3B5E06A
:101BC000EC91F0E0E15DFB4F80818093C6008C9149
:101BD0008F5F8C9305C0E1ECF0E080818F7D808386
:101BE000FF91EF91BF91AF919F918F910F900FBE99
:101BF0000F901F901895CF93C0910704A3C0A8E041
:101C0000B4E0EC91F0E0E95FFC4F20818C918F5FB4
:101C10008C93E09109048E2F90E08930910508F0B3
:101C200091C0FC01EC5CFF4F0C94D60F253509F0F8
:101C300089C020930A0481E08093090483C02E3474
:101C400049F4EAE0F4E080812827208382E0809351
:101C5000090478C01092090475C0253449F4EAE0FB
:101C6000F4E080812827208383E0809309046AC000
:101C70001092090467C0223549F4EAE0F4E080815B
:101C80002827208384E0809309045CC01092090413
:101C900059C020930B04EAE0F4E0808128272083D8
:101CA00085E0809309044EC02A3349F4EAE0F4E069
:101CB00080812827208386E08093090443C0109206
:101CC000090440C020930D04EAE0F4E08081282755
:101CD000208380910B04823010F0825001C080E09C
:101CE00080930C0410922E04882311F087E001C029
:101CF00088E08093090426C080912E04803228F465
:101D0000E82FF0E0E25FFB4F20838F5F80932E048B
:101D1000EAE0F4E090812927208390910C04891750
:101D200088F088E0809309040DC080910A0428138C
:101D300007C040E060E070E080910D040E94590708
:101D40001092090480910804C81359CFCF910895C7
:101D5000FC0171836083428380E494E094838383F5
:101D6000DB018C9121E030E002C0220F331F4A9545
:101D7000E2F7209528232C9380914002833058F479
:101D8000A82FB0E0AA0FBB1FAF5BBD4FED93FC9334
:101D90008F5F8093400280914002813079F4EFE6BA
:101DA000F0E0808182608083809184009091850042
:101DB0008C599F4F90938900809388000895CF930A
:101DC000DF93EC01653B08F064EB262F30E0A0E8E0
:101DD000BEE00E94DC0F24EB30E040E050E00E94C7
:101DE000B40F205C3B4F3C832B83DF91CF91089550
:101DF0001F920F920FB60F9211242F933F934F9380
:101E00005F938F939F93AF93BF93EF93FF938091D3
:101E10004002882309F489C020913F02E22FE69511
:101E2000422F50E090E0880F991F481759070CF097
:101E30005BC020FD2AC0F0E0EE0FFF1FEF5BFD4FFF
:101E40000190F081E02DA081B1812C9181E090E0A2
:101E5000028002C0880F991F0A94E2F7822B8C93AC
:101E600083819481E8E8F0E020813181280F391FD7
:101E70003183208320913D0230913E02820F931FD7
:101E800090933E0280933D0229C0F0E0EE0FFF1FC9
:101E9000EF5BFD4FA081B181ED91FC911197208105
:101EA00081E090E012960C9002C0880F991F0A946E
:101EB000E2F7809582238083E8E8F0E080819181D9
:101EC0008C599F4F9183808380913D0290913E0277
:101ED0008C599F4F90933E0280933D0280913F0228
:101EE0008F5F80933F0221C020913D0230913E02DE
:101EF00020348CE9380758F4E8E8F0E080819181DB
:101F0000821B930B805C93469183808308C0E8E832
:101F1000F0E0808191818C599F4F91838083109252
:101F20003F0210923E0210923D02FF91EF91BF914D
:101F3000AF919F918F915F914F913F912F910F9012
:101F40000FBE0F901F901895DB018F939F930E94F7
:101F5000EB0FBF91AF91A29F800D911DA39F900D9C
:101F6000B29F900D11240895A1E21A2EAA1BBB1B4B
:101F7000FD010DC0AA1FBB1FEE1FFF1FA217B30755
:101F8000E407F50720F0A21BB30BE40BF50B661F6B
:101F9000771F881F991F1A9469F76095709580952F
:101FA00090959B01AC01BD01CF010895EE0FFF1F7D
:101FB0000590F491E02D0994A29FB001B39FC00158
:101FC000A39F700D811D1124911DB29F700D811D65
:101FD0001124911D08950E94DC0FA59F900DB49FC0
:101FE000900DA49F800D911D11240895FB01DC012B
:101FF0000D900020E9F7119701900D920020E1F774
:102000000895AEE0B0E0E7E0F0E10C94C2120D8973
:102010001E8986E08C831A8309838FEF9FE79E8356
:102020008D83AE01475E5F4F6F89788DCE0101963B
:102030000E942310EF81F885E00FF11F10822E9689
:10204000E4E00C94DE12ABE0B0E0E9E2F0E10C94E5
:10205000B4126C017B018A01FC0117821682838114
:1020600081FFCCC1CE0101963C01F6019381F701BD
:1020700093FD859193FF81917F01882309F4BAC173
:10208000853239F493FD859193FF81917F018532EB
:1020900029F4B60190E00E941A12E7CF912C212C6E
:1020A000312CFFE1F315D8F08B3279F038F480321F
:1020B00079F08332A1F4232D20611DC08D3261F0AF
:1020C000803369F4232D216016C0832D8260382E61
:1020D000E32DE4603E2E2AC0F32DF8601DC037FCCE
:1020E0002DC020ED280F2A3040F08E32B9F436FC96
:1020F00081C1232D2064322E19C036FE06C08AE02D
:10210000989E200D1124922E11C0EAE02E9E200DE3
:102110001124222EF32DF0623F2E08C08C3621F4BC
:10212000832D8068382E02C0883641F4F70193FD74
:10213000859193FF81917F018111B3CF982F9F7D6E
:102140009554933028F40C5F1F4F9FE399830DC083
:10215000833631F0833771F0833509F059C021C0DF
:10216000F801808189830E5F1F4F88248394912C0E
:10217000530113C02801F2E04F0E511CF801A0805A
:10218000B18036FE03C0692D70E002C06FEF7FEFB3
:10219000C5010E940F124C018201F32DFF773F2EE3
:1021A00016C0280122E0420E511CF801A080B18027
:1021B00036FE03C0692D70E002C06FEF7FEFC501EE
:1021C0000E9404124C01F32DF0683F2E820133FC73
:1021D0001BC0822D90E088169906B0F4B60180E20B
:1021E00090E00E941A122A94F4CFF50137FC8591F1
:1021F00037FE81915F01B60190E00E941A12211012
:102200002A9421E0821A91088114910471F7E8C0A0
:10221000843611F0893641F5F80137FE07C0608138
:102220007181828193810C5F1F4F08C06081718131
:10223000072E000C880B990B0E5F1F4FF32DFF76B6
:102240003F2E97FF09C090958095709561957F4FBF
:102250008F4F9F4FF0683F2E2AE030E0A3010E948D
:102260005612882E861845C0853731F4232D2F7ECF
:10227000B22E2AE030E025C0932D997FB92E8F36FB
:10228000C1F018F4883579F0B5C0803719F0883777
:1022900021F0B0C0E92FE061BE2EB4FE0DC0FB2DD1
:1022A000F460BF2E09C034FE0AC0292F2660B22E6A
:1022B00006C028E030E005C020E130E002C020E1A7
:1022C00032E0F801B7FE07C060817181828193819D
:1022D0000C5F1F4F06C06081718180E090E00E5F4F
:1022E0001F4FA3010E945612882E8618FB2DFF77E0
:1022F0003F2E36FE0DC0232D2E7FA22E891458F4BA
:1023000034FE0BC032FC09C0832D8E7EA82E05C082
:10231000B82CA32C03C0B82C01C0B92CA4FE0FC04C
:10232000FE01E80DF11D8081803321F49A2D997E04
:10233000A92E09C0A2FE06C0B394B39404C08A2D8E
:10234000867809F0B394A3FC11C0A0FE06C0B214B5
:1023500088F4280C922C9B180EC0B21460F4B601BD
:1023600080E290E00E941A12B394F7CFB21418F4EE
:102370002B1802C0982C212CA4FE10C0B60180E3BB
:1023800090E00E941A12A2FE17C0A1FC03C088E7C9
:1023900090E002C088E590E0B6010CC08A2D8678F6
:1023A00059F0A1FE02C08BE201C080E2A7FC8DE2E1
:1023B000B60190E00E941A12891438F4B60180E345
:1023C00090E00E941A129A94F7CF8A94F301E80DD4
:1023D000F11D8081B60190E00E941A128110F5CFA4
:1023E000222009F442CEB60180E290E00E941A1247
:1023F0002A94F6CFF6018681978102C08FEF9FEF76
:102400002B96E2E10C94D012FC01059061507040D3
:102410000110D8F7809590958E0F9F1F0895FC01AD
:102420006150704001900110D8F7809590958E0F03
:102430009F1F08950F931F93CF93DF93FB01238179
:1024400021FD03C08FEF9FEF2CC022FF16C04681F5
:102450005781248135814217530744F4A081B1810B
:102460009D012F5F3F4F318320838C9326813781DD
:102470002F5F3F4F3783268314C08B01EC01FB0194
:102480000084F185E02D0995892BE1F6D801169697
:102490008D919C911797019617969C938E93169702
:1024A000CE01DF91CF911F910F910895FA01AA27D4
:1024B000283051F1203181F1E8946F936E7F6E5F87
:1024C0007F4F8F4F9F4FAF4FB1E03ED0B4E03CD035
:1024D000670F781F891F9A1FA11D680F791F8A1F18
:1024E000911DA11D6A0F711D811D911DA11D20D07F
:1024F00009F468943F912AE0269F11243019305D39
:102500003193DEF6CF010895462F4770405D419329
:10251000B3E00FD0C9F7F6CF462F4F70405D4A3376
:1025200018F0495D31FD4052419302D0A9F7EACF3E
:10253000B4E0A6959795879577956795BA95C9F76D
:1025400000976105710508959B01AC010A2E069460
:102550005795479537952795BA95C9F7620F731F19
:10256000841F951FA01D08952F923F924F925F9256
:102570006F927F928F929F92AF92BF92CF92DF9293
:10258000EF92FF920F931F93CF93DF93CDB7DEB7F8
:10259000CA1BDB0B0FB6F894DEBF0FBECDBF09948C
:1025A0002A88398848885F846E847D848C849B84E3
:1025B000AA84B984C884DF80EE80FD800C811B81F1
:1025C000AA81B981CE0FD11D0FB6F894DEBF0FBE20
:0A25D000CDBFED010895F894FFCF90
:1025DA0001010101010101010B090D0B0F0E64003C
:1025EA002C01A00000290005000029000400002990
:1025FA000003000029000200554E45523A436D641B
:10260A005F556E6B6E6F776E0A000D0A5B215D2057
:10261A0053544F503A2043696E746120646574655F
:10262A006E6964612E0D0A000D0A5B3F5D205354EA
:10263A004F502069676E6F7261646F3A204E6F2047
:10264A0068617920636F6E6578696F6E2061637463
:10265A006976612E0D0A000D0A5B215D20524553F1
:10266A00455420494E54454752414C3A20536F66CF
:10267A007477617265207920486172647761726546
:10268A00206C696D70696F732E0D0A002575002D17
:10269A002D2D2045535441444F2044452043494E53
:1026AA005441202D2D2D0051303A205B0025642005
:1026BA000051313A205B0051323A205B00F04C0263
:1026CA0050CD0B516B02535303630A03590F024057
:1026DA00580254050C563F02551B0C57F501601F52
:0E26EA000262D5015F10035EDF02527D020026
:00000001FF
