S01D0000436F6D756E69636163696F6E53696D7543696E74612E73726563A2
S11300000C943D000C945A000C945A000C945A0021
S11300100C945A000C945A000C945A000C945A00F4
S11300200C945A000C945A000C945A000C945A00E4
S11300300C945A000C94F0040C94A6040C945A00EA
S11300400C945A000C945A000C944F040C947804A9
S11300500C945A000C945A000C945A000C945A00B4
S11300600C945A000C945A00180121012F013D01EF
S11300704B01560164017E01970111241FBECFEF8D
S1130080D8E0DEBFCDBF11E0A0E0B1E0EEEAFBE0D6
S113009002C005900D92AE37B107D9F723E0AEE761
S11300A0B1E001C01D92A13FB207E1F70E949205A1
S11300B00C94D5050C94000010928E0210928F02BD
S11300C0109290021092B6031092B7030895909183
S11300D0B6039F5F2091B703921769F0A6EBB3E0D4
S11300E0EC91F0E0EA54FD4F80839C93E1ECF0E066
S11300F08081806280830895CF93DF93EC0103C0F5
S113010021960E94670088818111FACFDF91CF91F7
S11301100895BF92CF92DF92EF92FF920F931F93B5
S1130120CF93DF9300D000D0CDB7DEB7C82E7B01CC
S1130130D42E85E589838EE48A8385E48B8382E5E6
S11301408C836894BB24B1F8B40E80E000E009C04D
S1130150E1E0F0E0EC0FFD1FE80FF11D90810927AD
S11301608F5F8430A8F30B258AE308270C25E1145C
S1130170F10469F0D11008C00AC0F701E80FF11DBD
S1130180908109278F5F01C080E08D15B0F310E0E6
S11301900AC0E1E0F0E0EC0FFD1FE10FF11D8081EA
S11301A00E9467001F5F1430A0F38B2D0E9467002C
S11301B08AE30E9467008C2D0E946700E114F10419
S11301C071F0D11009C00BC0F701E10FF11D80815E
S11301D00E9467001F5F01C010E01D15A8F3802F67
S11301E00E9467000F900F900F900F90DF91CF91B6
S11301F01F910F91FF90EF90DF90CF90BF900895E3
S113020098C0AFE8B2E0EC91F0E0E257FE4F2081F5
S11302108C918F5F8C93E09190028E2F90E08930C7
S1130220910508F086C0FC01EC5CFF4F0C94CF05EF
S1130230253509F07EC02093910281E080939002DD
S113024078C02E3449F4E1E9F2E080812827208344
S113025082E0809390026DC0109290026AC02534AF
S113026049F4E1E9F2E080812827208383E0809348
S113027090025FC0109290025CC0223549F4E1E91B
S1130280F2E080812827208384E08093900251C08B
S1130290109290024EC020939202E1E9F2E0808134
S11302A02827208385E08093900243C02A3349F4B1
S11302B0E1E9F2E080812827208386E080939002A0
S11302C038C01092900235C020939402E1E9F2E024
S11302D080812827208380919202823010F08250FE
S11302E001C080E0809393021092B502882311F03C
S11302F087E001C088E0809390021BC08091B50222
S1130300803228F4E82FF0E0EB56FD4F20838F5F16
S11303108093B502E1E9F2E090812927208390914E
S11303209302891730F088E08093900202C0109203
S1130330900290918F0280918E02981362CF08955B
S1130340CF93DF93FC01DB018C91482381E009F416
S113035080E0918189131FC08081893018F48F5FF8
S113036080831BC08930C9F4EF01411109C081E0C9
S113037082830380F481E02D309749F0099507C00A
S113038012820580F681E02D309709F00995888165
S11303908F5F888302C010828183DF91CF9108959B
S11303A040E060E070E080EF0E9489000895CF9300
S11303B0DF9300D0CDB7DEB780918D01823021F07C
S11303C080918D018130B9F440E060E070E081E516
S11303D00E94890087E089831A8242E0BE016F5F30
S11303E07F4F82E50E94890081E080938D0188E13E
S11303F091E00E947C000F900F90DF91CF910895BF
S113040040E060E070E083E50E9489008AE0EAED64
S1130410F3E0DF01982F1D929A95E9F7E7EEF3E0F8
S1130420DF01982F1D929A95E9F7E8EBF3E0DF01DD
S11304301D928A95E9F7109281011092820110921F
S1130440830110927E0110927F0110928001E1EDF0
S1130450F3E01382128211821082108617821682B0
S11304601582148280E011C0E82FF0E09F01220F72
S1130470331F220F331FE20FF31FEE53FC4F108282
S113048011821282138214828F5F833068F3109278
S11304908D0186E391E00E947C000895CF93DF9361
S11304A000D0CDB7DEB78330C0F421E030E0A9013D
S11304B002C0440F551F8A95E2F7CA0149836111AE
S11304C001C080E08A8342E0BE016F5F7F4F82E516
S11304D00E94890088B1826088B90F900F90DF91E3
S11304E0CF9108958091D1038823B1F08091D503F1
S11304F0811112C0809183018A3070F4E9E0F0E048
S1130500E81BF109E652FC4F9091800190838F5FC4
S1130510809383011092D1038091D2038823A1F1A7
S11305208091D503811130C01092D2038091830150
S1130530882351F18091E3039091E403891315C05A
S1130540E2ECF3E081E080838091890190918A015B
S1130550A0918B01B0918C0181839283A383B48396
S113056061E080E00E944E0205C080937F0181E03B
S11305708093D8031092E303809183018150809388
S1130580830181E08093D5038091D8038823B1F05F
S11305908091D603811112C0809182018A3070F457
S11305A0E9E0F0E0E81BF10990917F01E951FC4F8B
S11305B090838F5F809382011092D8038091D3033C
S11305C08823A1F18091D603811130C01092D30306
S11305D080918201882351F18091F0039091E50389
S11305E0891315C0E2ECF3E081E0858380918901F1
S11305F090918A01A0918B01B0918C01868397839D
S1130600A087B18761E081E00E944E0205C080931B
S11306107E0181E08093D9031092F00380918201DE
S113062081508093820181E08093D6038091D90325
S11306308823B1F08091D703811112C08091810188
S11306408A3070F4E9E0F0E0E81BF10990917E0152
S1130650E854FC4F90838F5F809381011092D903FB
S11306608091D403882371F18091D70381112AC02A
S11306701092D40380918101882321F19091C103C8
S11306808091E603981314C0E2ECF3E081E08287E2
S11306908091890190918A01A0918B01B0918C0184
S11306A083879487A587B68761E082E00E944E0223
S11306B01092C1038091810181508093810181E076
S11306C08093D7038091D5038823F1F080910201B0
S11306D0282F30E0EAE0F0E0E21BF30BA9E0B0E001
S11306E0A21BB30BA652BC4F9C91E652FC4F9083C5
S11306F08F5F809302018A3039F41092DA031092EA
S1130700D50381E0809302018091D6038823F1F020
S113071080910101282F30E0EAE0F0E0E21BF30BC6
S1130720A9E0B0E0A21BB30BA951BC4F9C91E951C5
S1130730FC4F90838F5F809301018A3039F41092CB
S1130740E7031092D60381E0809301018091D703DF
S11307508823F1F080910001282F30E0EAE0F0E0F6
S1130760E21BF30BA9E0B0E0A21BB30BA854BC4FEF
S11307709C91E854FC4F90838F5F809300018A30F2
S113078039F41092B8031092D70381E080930001EA
S113079008950F931F93CF93C0E07AC08C2F90E0FD
S11307A0FC01EE0FFF1FEE0FFF1FE80FF91FEE53C2
S11307B0FC4F2081213019F02230E9F168C04091CA
S11307C0890150918A0160918B0170918C01FC0127
S11307D0EE0FFF1FEE0FFF1FE80FF91FEE53FC4F44
S11307E00181128123813481401B510B620B730BF5
S11307F0403A51056105710508F449C0FC01EE0F4A
S1130800FF1FEE0FFF1F8E0F9F1FFC01EE53FC4FC7
S113081082E080838091890190918A01A0918B016B
S1130820B0918C0181839283A383B48360E08C2F85
S11308300E944E022CC04091890150918A0160911E
S11308408B0170918C01FC01EE0FFF1FEE0FFF1F57
S1130850E80FF91FEE53FC4F01811281238134818B
S1130860401B510B620B730B403A51056105710536
S113087070F0FC01EE0FFF1FEE0FFF1F8E0F9F1F86
S1130880FC01EE53FC4F108288B18D7F88B9CF5F95
S1130890C33008F483CFCF911F910F9108951F9215
S11308A00F920FB60F9211242F938F939F93AF93B0
S11308B0BF93EF93FF932091C60080918E028F5FC8
S11308C090918F02891741F0AEE8B2E0EC91F0E02C
S11308D0E257FE4F20838C93FF91EF91BF91AF912C
S11308E09F918F912F910F900FBE0F901F9018958D
S11308F01F920F920FB60F9211248F939F93AF9371
S1130900BF93EF93FF939091B7038091B603981729
S113091069F0A7EBB3E0EC91F0E0EA54FD4F80817D
S11309208093C6008C918F5F8C9305C0E1ECF0E05E
S113093080818F7D8083FF91EF91BF91AF919F91D3
S11309408F910F900FBE0F901F9018951F920F92CA
S11309500FB60F9211242F933F934F935F936F938E
S11309607F938F939F93AF93BF93EF93FF93809164
S1130970890190918A01A0918B01B0918C0102961A
S1130980A11DB11D8093890190938A01A0938B01CD
S1130990B0938C0144E066E270E081E191E00E9452
S11309A0A00148E066E270E08AE091E00E94A001C4
S11309B040E166E270E083E091E00E94A001FF91D3
S11309C0EF91BF91AF919F918F917F916F915F91C3
S11309D04F913F912F910F900FBE0F901F9018953C
S11309E01F920F920FB60F9211248F939F938091B1
S11309F088018F5F809388018E3130F095B180E259
S1130A00892785B9109288019F918F910F900FBE0D
S1130A100F901F90189580918D018130F9F018F096
S1130A20823001F108956091890170918A01809169
S1130A308B0190918C0120ED37E040E050E00E9462
S1130A40AD05643671058105910520F488B1816096
S1130A5088B9089588B18E7F88B9089588B1816076
S1130A6088B908958091890190918A01A0918B01A0
S1130A70B0918C014091840150918501609186016F
S1130A8070918701841B950BA60BB70B84369105D7
S1130A90A105B105A0F098B181E0892788B98091BA
S1130AA0890190918A01A0918B01B0918C0180936E
S1130AB0840190938501A0938601B09387010895E2
S1130AC082E08093C00080E190E09093C500809321
S1130AD0C40086E08093C20088E98093C100089531
S1130AE084B1806284B987B1836087B988B18C7F0F
S1130AF088B987B1837E87B988B18C6188B9089534
S1130B0082E084BD94E095BD9CE797BD80936E0020
S1130B1008951092800082E08093810081E08093A8
S1130B206F000895F8940E9470050E9460050E9469
S1130B3080050E9489050E945C00789440E060E092
S1130B4070E080EF0E9489000E9400010E94C903A6
S1130B500E9472020E940B05F7CFA1E21A2EAA1B73
S1130B60BB1BFD010DC0AA1FBB1FEE1FFF1FA21759
S1130B70B307E407F50720F0A21BB30BE40BF50B56
S1130B80661F771F881F991F1A9469F760957095DF
S1130B90809590959B01AC01BD01CF010895EE0FA6
S1110BA0FF1F0590F491E02D0994F894FFCF07
S1130BAE01010100010000020000000100D7010054
S1130BBE00000100D00100000D0A5B215D2053549A
S1130BCE4F503A2043696E746120646574656E6992
S1130BDE64612E0D0A000D0A5B215D2052455345BA
S1130BEE5420494E54454752414C3A20536F667433
S1130BFE776172652079204861726477617265202D
S1130C0E6C696D70696F732E0D0A00554E45523A1C
S1110C1E436D645F556E6B6E6F776E0A000057
S9030000FC
