:100000000C943D000C945A000C945A000C945A0025
:100010000C945A000C945A000C945A000C945A00F8
:100020000C945A000C945A000C945A000C945A00E8
:100030000C945A000C9498040C944E040C945A009E
:100040000C945A000C945A000C949B050C94C40513
:100050000C945A000C945A000C945A000C945A00B8
:100060000C945A000C945A000D061606240632060B
:1000700040064B06590673068C0611241FBECFEFAF
:10008000D8E0DEBFCDBF12E0A0E0B1E0E2E9FDE0E4
:1000900002C005900D92A431B107D9F724E0A4E184
:1000A000B2E001C01D92AB38B207E1F70E94B30481
:1000B0000C94C7060C940000CF93DF93FC01DB0186
:1000C0008C91482381E009F480E0918189131FC05D
:1000D0008081893018F48F5F80831BC08930C9F418
:1000E000EF01411109C081E082830380F481E02D9A
:1000F000309749F0099507C012820580F681E02DFE
:10010000309709F0099588818F5F888302C010823B
:100110008183DF91CF910895809168038D3031F410
:1001200081E08093230280934602089581E08093CA
:100130004902089580916903E4E5F2E080838091AB
:100140006A03818380916B03828382E08093230220
:10015000089581E08093230280934702089580915F
:1001600068038D3031F41092230281E080934802BD
:10017000089581E08093490208950895089560E00C
:100180001CC0F901E859FC4F2081FC01E859FC4FE3
:1001900080816E5F813089F4213041F018F0223087
:1001A00049F00BC081E080933E0207C081E080935C
:1001B0003F0203C081E080934002262F30E0C90156
:1001C00001964091660350E084179507D4F2089594
:1001D000809168038093160281E080933D02089528
:1001E00040E060E070E080EF0E9424050895CF9326
:1001F000DF9300D0CDB7DEB780912302823021F0AB
:10020000809123028130C1F440E060E070E081E53C
:100210000E94240587E089831A8242E0BE016F5F55
:100220007F4F82E50E94240581E08093230288E1CC
:1002300091E00E94170504C086E391E00E94170533
:100240000F900F90DF91CF91089540E060E070E053
:1002500083E50E9424058AE0EAE4F2E0DF01982FBA
:100260001D929A95E9F7E7E5F2E0DF01982F1D92DC
:100270009A95E9F7E4E2F2E0DF011D928A95E9F749
:100280001092190210921802109217021092160280
:100290001092150210921402EDE3F2E01082118226
:1002A000128213821482158216821782108680E0D1
:1002B00011C0E82FF0E09F01220F331F220F331FE0
:1002C000E20FF31FE25DFD4F108211821282138252
:1002D00014828F5F833068F31092230285E691E0E9
:1002E0000E9417050895CF93DF9300D0CDB7DEB7F6
:1002F0008330C0F421E030E0A90102C0440F551F53
:100300008A95E2F7CA014983611101C080E08A83BE
:1003100042E0BE016F5F7F4F82E50E94240588B1F5
:10032000826088B90F900F90DF91CF9108958091EE
:100330003D028823B1F080914102811112C0809169
:1003400019028A3070F4E9E0F0E0E81BF109E65B9D
:10035000FD4F9091160290838F5F80931902109247
:100360003D0280913E028823A1F1809141028111DA
:1003700030C010923E0280911902882351F1809181
:10038000530290915402891315C0EEE2F2E081E02D
:10039000808380911F0290912002A0912102B09150
:1003A000220281839283A383B48361E080E00E9470
:1003B000730105C08093150281E08093440210927E
:1003C00053028091190281508093190281E0809339
:1003D0004102809144028823B1F080914202811150
:1003E00012C0809118028A3070F4E9E0F0E0E81B56
:1003F000F10990911502E95AFD4F90838F5F809328
:1004000018021092440280913F028823A1F180914A
:100410004202811130C010923F028091180288235D
:1004200051F18091600290915502891315C0EEE25E
:10043000F2E081E0858380911F0290912002A091DB
:100440002102B091220286839783A087B18761E061
:1004500081E00E94730105C08093140281E08093C3
:100460004502109260028091180281508093180218
:1004700081E080934202809145028823B1F080910F
:100480004302811112C0809117028A3070F4E9E0B2
:10049000F0E0E81BF10990911402EC5DFD4F9083B0
:1004A0008F5F80931702109245028091400288234B
:1004B00071F18091430281112AC010924002809113
:1004C0001702882321F190912D02809156029813F2
:1004D00014C0EEE2F2E081E0828780911F029091E9
:1004E0002002A0912102B091220283879487A587E0
:1004F000B68761E082E00E94730110922D02809124
:10050000170281508093170281E08093430280910B
:1005100041028823F1F080910201282F30E0EAE0C7
:10052000F0E0E21BF30BA9E0B0E0A21BB30BA65B6B
:10053000BD4F9C91E65BFD4F90838F5F80930201DE
:100540008A3039F410924A021092410281E080937D
:100550000201809142028823F1F080910101282F4D
:1005600030E0EAE0F0E0E21BF30BA9E0B0E0A21B10
:10057000B30BA95ABD4F9C91E95AFD4F90838F5FF1
:10058000809301018A3039F410925702109242028E
:1005900081E080930101809143028823F1F08091F2
:1005A0000001282F30E0EAE0F0E0E21BF30BA9E0C5
:1005B000B0E0A21BB30BAC5DBD4F9C91EC5DFD4F59
:1005C00090838F5F809300018A3039F41092240267
:1005D0001092430281E08093000108950F931F93CE
:1005E000CF93C0E07AC08C2F90E0FC01EE0FFF1F8C
:1005F000EE0FFF1FE80FF91FE25DFD4F2081213054
:1006000019F02230E9F168C040911F025091200298
:100610006091210270912202FC01EE0FFF1FEE0F8C
:10062000FF1FE80FF91FE25DFD4F01811281238159
:100630003481401B510B620B730B403A510561052D
:10064000710508F449C0FC01EE0FFF1FEE0FFF1FFC
:100650008E0F9F1FFC01E25DFD4F82E08083809141
:100660001F0290912002A0912102B0912202818369
:100670009283A383B48360E08C2F0E9473012CC00B
:1006800040911F025091200260912102709122023C
:10069000FC01EE0FFF1FEE0FFF1FE80FF91FE25DD9
:1006A000FD4F0181128123813481401B510B620B6C
:1006B000730B403A51056105710570F0FC01EE0FB6
:1006C000FF1FEE0FFF1F8E0F9F1FFC01E25DFD4F0E
:1006D000108288B18D7F88B9CF5FC33008F483CF93
:1006E000CF911F910F91089580914902882329F09D
:1006F0001092490283E0809323028091460288236E
:1007000041F01092460240E060E070E080E50E9417
:10071000240580914702882341F01092470240E06F
:1007200060E070E081E50E94240580914802882302
:1007300041F01092480240E060E070E083E50E94E2
:100740002405089590E01CC0292F30E0F901EE0F38
:10075000FF1FE20FF31FE550FE4F408148130FC00B
:10076000F901EE0FFF1F2E0F3F1FF901E550FE4F5D
:100770000180F281E02D309749F0099508959F5F3F
:10078000983010F38AE991E00E941705089580914E
:1007900023028130F9F018F0823001F10895609160
:1007A0001F0270912002809121029091220220ED7F
:1007B00037E040E050E00E949F06643671058105F5
:1007C000910520F488B1816088B9089588B18E7F41
:1007D00088B9089588B1816088B9089580911F0211
:1007E00090912002A0912102B091220240911A0220
:1007F00050911B0260911C0270911D02841B950B8D
:10080000A60BB70B84369105A105B105A0F098B1F0
:1008100081E0892788B980911F0290912002A091E0
:100820002102B091220280931A0290931B02A0939E
:100830001C02B0931D02089582E08093C00080E105
:1008400090E09093C5008093C40086E08093C2003E
:1008500088E98093C100089584B1806284B987B12A
:10086000836087B988B18C7F88B987B1837E87B967
:1008700088B18C6188B9089582E084BD94E095BD0B
:100880009CE797BD80936E0008951092800082E0EF
:100890008093810081E080936F0008951F920F92F2
:1008A0000FB60F9211242F933F934F935F936F9343
:1008B0007F938F939F93AF93BF93EF93FF93809119
:1008C0001F0290912002A0912102B0912202029673
:1008D000A11DB11D80931F0290932002A0932102BD
:1008E000B093220244E066E270E081E191E00E9470
:1008F0005C0048E066E270E08AE091E00E945C0003
:1009000040E166E270E083E091E00E945C00FF91CC
:10091000EF91BF91AF919F918F917F916F915F9177
:100920004F913F912F910F900FBE0F901F901895F0
:100930001F920F920FB60F9211248F939F93809165
:100940001E028F5F80931E028E3130F095B180E2DF
:10095000892785B910921E029F918F910F900FBE2B
:100960000F901F901895F8940E942C040E941C046C
:100970000E943C040E9445040E94F404EDE3F2E06E
:10098000148215821682118612861386148620E040
:1009900012C0822F90E0FC01EE0FFF1FEE0FFF1F31
:1009A0008E0F9F1FFC01E25DFD4F108211821282AB
:1009B000138214822F5F233060F3E4E5F2E01082AB
:1009C00011821282789440E060E070E080EF0E9433
:1009D00024050E94F2050E9474030E94EE020E9408
:1009E00097010E94C703F5CF109261031092620332
:1009F000109263031092890410928A0408959091D2
:100A000089049F5F20918A04921781F0A9E8B4E0DD
:100A1000EC91F0E0E757FC4F80839C939FB7F894EC
:100A2000E1ECF0E08081806280839FBF0895CF93E6
:100A3000DF93EC0103C021960E94FF04888181119D
:100A4000FACFDF91CF910895BF92CF92DF92EF92CC
:100A5000FF920F931F93CF93DF9300D000D0CDB7B9
:100A6000DEB7C82E7B01D42E85E589838EE48A8388
:100A700085E48B8382E58C836894BB24B1F8B40E43
:100A800080E000E009C0E1E0F0E0EC0FFD1FE80FBE
:100A9000F11D908109278F5F8430A8F30B258AE32D
:100AA00008270C25E114F10469F0D11008C00AC030
:100AB000F701E80FF11D908109278F5F01C080E0E9
:100AC0008D15B0F310E00AC0E1E0F0E0EC0FFD1F7F
:100AD000E10FF11D80810E94FF041F5F1430A0F31D
:100AE0008B2D0E94FF048AE30E94FF048C2D0E943C
:100AF000FF04E114F10471F0D11009C00BC0F7013B
:100B0000E10FF11D80810E94FF041F5F01C010E012
:100B10001D15A8F3802F0E94FF040F900F900F90D7
:100B20000F90DF91CF911F910F91FF90EF90DF9089
:100B3000CF90BF9008951F920F920FB60F9211247D
:100B40002F938F939F93AF93BF93EF93FF93209136
:100B5000C600809161038F5F90916203891741F015
:100B6000A1E6B3E0EC91F0E0EF59FD4F20838C93C8
:100B7000FF91EF91BF91AF919F918F912F910F9026
:100B80000FBE0F901F9018951F920F920FB60F92E5
:100B900011248F939F93AF93BF93EF93FF93909103
:100BA0008A0480918904981769F0AAE8B4E0EC916E
:100BB000F0E0E757FC4F80818093C6008C918F5FF7
:100BC0008C9305C0E1ECF0E080818F7D8083FF9104
:100BD000EF91BF91AF919F918F910F900FBE0F90AA
:100BE0001F901895CF93C0916103A3C0A2E6B3E014
:100BF000EC91F0E0EF59FD4F20818C918F5F8C9349
:100C0000E09163038E2F90E08930910508F091C048
:100C1000FC01EC5CFF4F0C94C106253509F089C03E
:100C20002093640381E08093630383C02E3449F4EE
:100C3000E4E6F3E080812827208382E08093630349
:100C400078C01092630375C0253449F4E4E6F3E0FC
:100C500080812827208383E0809363036AC01092F9
:100C6000630367C0223549F4E4E6F3E08081282776
:100C7000208384E0809363035CC01092630359C0B7
:100C800020936503E4E6F3E080812827208385E054
:100C9000809363034EC02A3349F4E4E6F3E0808195
:100CA0002827208386E08093630343C01092630368
:100CB00040C020936703E4E6F3E080812827208387
:100CC00080916503823010F0825001C080E08093F3
:100CD000660310928803882311F087E001C088E042
:100CE0008093630326C080918803803228F4E82F24
:100CF000F0E0E859FC4F20838F5F80938803E4E69F
:100D0000F3E090812927208390916603891788F06A
:100D100088E0809363030DC080916403281307C0AB
:100D200040E060E070E0809167030E94A2031092AF
:100D3000630380916203C81359CFCF910895A1E254
:100D40001A2EAA1BBB1BFD010DC0AA1FBB1FEE1F45
:100D5000FF1FA217B307E407F50720F0A21BB30B90
:100D6000E40BF50B661F771F881F991F1A9469F70C
:100D700060957095809590959B01AC01BD01CF0168
:100D80000895EE0FFF1F0590F491E02D0994F8945B
:020D9000FFCF93
:100D920001010100010025010000000100F700002F
:100DA20000000100F00000000D0A5B215D20535499
:100DB2004F503A2043696E746120646574656E69B0
:100DC20064612E0D0A000D0A5B3F5D2053544F50A3
:100DD2002069676E6F7261646F3A204E6F2068619E
:100DE2007920636F6E6578696F6E206163746976CE
:100DF200612E0D0A000D0A5B215D205245534554B8
:100E020020494E54454752414C3A20536F667477FD
:100E12006172652079204861726477617265206C25
:100E2200696D70696F732E0D0A00554E45523A4333
:100E32006D645F556E6B6E6F776E0A000D0A2D2D15
:100E42002D2045535441444F2044452043494E549C
:100E520041202D2D2D0D0A0051303A205B005D0DF1
:100E62000A0051313A205B0051323A205B005D0D9D
:100E72000A2D2D2D2D2D2D2D2D2D2D2D2D2D2D2DC3
:100E82002D2D2D2D2D2D2D2D0D0A00F08C00509A7B
:100E92000051A90052BD0053AF0054BE005EBF0016
:040EA2005FE8000005
:00000001FF
